:020000040000FA
:060000000211DF020823DB
:03002B00020F4180
:0300330002085D63
:030053000206F5AD
:10008300020781010100F0FF0700080000FFFF00E5
:10009300000504000000030001FFFFFFFF0005301F
:1000A3007500000020FD000206FFFF1E050F003251
:1000B30000DF180000000000000000000000000046
:1000C30000210016004B0023001E00000000000169
:1000D3000000AFFF0104010C000204FB85030A8644
:1000E300010400003E13000000E8030000FFFF8F3F
:1000F300130188130000E803000064006400B801E2
:10010300A0BB0D00A0BB0D00020202070401071EE5
:1001130002051E020A0A010108080103B80B028046
:100123003E0102FEFFE8030A050001FFFF020A0188
:100133001401E00000000002000000050301010FAC
:100143000300030003000300030003000300030094
:10015300030005000A00140028004F009E00000061
:10016300852A00000000592900000000FF0000005C
:10017300FF001211FE601D1211EF7005191919808D
:100183001A1210A5701F1210B9C37003E667331952
:10019300191940071818182208080874FFF618F6EA
:1001A30018F618F6221210B9601712129E702192D7
:1001B300F012128C7019501720F01408080809095E
:1001C30009E7F61819E7F61819E7F61819E7F622FA
:1001D30012128C60E6E869701F0808E62480F608AE
:1001E300E436F618547FB47F0CE654806007F6E4D7
:1001F30018F618F622181822E9C6CC08C6CD08C688
:10020300CE08C6CFC0E0E8C0E0EAC0E0EBC0E0093A
:10021300E9F809E7FA09E7FBE6F918E6F8C3EC9809
:10022300ED99EE9AEBC2E7F5F0EFC2E795F0500EC9
:10023300600CEBCFFBEACEFAE9CDF9E8CCF8EAA201
:10024300E7D2E7FAEB33FB13F5F0EEA2E7D2E7FED2
:10025300EF33FFC5F013A2E730E601B313C5F0C3D4
:10026300C0E0C0F07F00C39BFB605E9418600F404A
:100273001D14601AD0E023F9D0E0F80203568AF087
:10028300E9486003D2F0E4AFF0FAF9F8803BEB30D1
:10029300E40D89F0EA6003D2F0E4AFF0F9CAF8EBB9
:1002A30030E30D88F0EF6002D2F0AFF0E4CAC9F892
:1002B300EB54076014FBC3EA13FAE913F9E813F8E4
:1002C300EF135002D2E0FFDBEDD0E0C0E030E739BE
:1002D300C3E49FFFF5F0EC98FC42F0ED99FD42F08A
:1002E300EE9AFE42F0D0E0F9D0E0F8E5F0607AE96A
:1002F30023F9EE20E742D8028067C3EF33FFEC33E4
:10030300FCED33FDEE33FE80EAEC28FCED39FDEE27
:100313003AFED0E023F9D0E0F84002801BC3EE138D
:10032300FEED13FDEC13FCEF135002D2E0FF08B80F
:1003330000067F7F74FF802EEF3350178CF020F080
:100343000260100CBC000C0DBD00080EBE000408BA
:10035300E860DFE933E813FFEE2313FE4F4D4C80D3
:1003630008E95480FFE4FEFDFCEE33EF33F4700440
:10037300FCFD7E80D0E0FBD0E0FAD0E0F8D0E0CF07
:10038300C618CEC618CDC618CCC6F9221211FE70F7
:1003930004181818221211EF700D74FFF61819F6CD
:1003A3001819F61819F622E7548066F612128C70A3
:1003B3000F12129E70F014F608F608F608F680D1B4
:1003C30012129E700CF608F608768008E6447F80C9
:1003D300EC1210BC700C1210A860BFE65480F6E457
:1003E30080BB1210A8700519191980A5E869700C53
:1003F300763F18768018F618F6E8F922E6CDC0E0C5
:1004030018ECC0E0E633CD33CDD313F6E719FCE7A0
:10041300191933CC33C3947F400ECD9D502408E685
:100423005480F6E418F6800FF4043D14501408E6E3
:10043300447FF6187680E418F618F6D0E0FCD0E096
:10044300FD22CCD313CCFD18E4C6CBC0E018E4C620
:10045300CAC0E00808ED08C633E613F618E433C64D
:1004630075F003C3CA97CA09CB97CB199C40047D87
:1004730008802EBD000302053816B6FF05060608E0
:100483001618C3CA33CACB33CB33CA27CA09CB37EF
:10049300CB193CC37D08803E187D0820E75CC6333A
:1004A300C6CA33CACB33CB33DDF1D5F0EB30E77BB0
:1004B300CA97CA09CB974ACB199C406F4B7025E664
:1004C30020E0218066187D08C3CA97CA09CB97CB61
:1004D300199CD3C633C6CA33CACB33CB3350C9DD19
:1004E300E7D5F0E1D3E4C636C608C636C608C63635
:1004F300C608C636C61818188031C3CA97CA09CBAE
:1005030097CB199CB34097C633C6CA33CACB33CBF8
:1005130033DD34D5F02EC6A2E0C640C8CA27CA09C7
:10052300CB37194A70BECB3CB480B90808E6330810
:10053300E633601F181818D0E0FAD0E0FBD0E0FCD7
:10054300D0E0FD22187D08CA27CA09CB37CB193C56
:10055300D3808013F618E4B67F11F618B6FF0EF6B3
:1005630018C60470D20808768080CAF618F618F602
:1005730080C5001211FE604F1211EF6012E7548024
:1005830066F61210A5701112129E703B090909F448
:10059300F618F618F618F6221210B9701512128C06
:1005A30008080860EAE6447FF618768018E4F6182F
:1005B300F62212128C601612129E7012E4F608F6DE
:1005C30008F608E65480F609090918181822EAC043
:1005D300E0EBC0E0ECC0E0EDC0E0E687F0A4FBACEC
:1005E300F008E687F0A42CFCE435F0FA1809E68756
:1005F300F0A42C4B60027401CA35F0FCE433FB0910
:10060300E687F0D2F7A42CCB35F0FC1908E687F087
:10061300A42BCC35F0FBE433FD0819E687F0D2E7D1
:10062300A42C4ACB35F0CD3400FC09E687F0D2E7A1
:10063300A42DCC35F0FDE433FA0918E687F0D2F7A0
:10064300A42CCD35F0CA3400FC08E687F0D2E7D2FB
:10065300F7A42ACC35F07A7E20E70B0ACB33CBCD37
:1006630033CDCC33CC33CB3350147004ED30E00EA8
:10067300D2F1E4CD3DCDCC3CCC3B5005DA05C2F103
:10068300EB547FC63308E63392F0FBE73309E733D5
:10069300C39A502D2B70190C0D4C4D70151806E68E
:1006A30008C333700D20F10AA2F013F6E418800B8F
:1006B3004024E4F630F002768018F618F618F68037
:1006C30024D33B14501074FFA2F013F6187680E481
:1006D30018F618F6800FA2F013F618E63303F6188F
:1006E300ECF618EDF6D0E0FDD0E0FCD0E0FBD0E076
:1006F300FA22C0E0C0D0E8C0E0E9C0E0EAC0E0EB25
:10070300C0E0ECC0E0EDC0E0EEC0E0EFC0E0C00848
:10071300C009C082C083C0F0A2AFE433F509D2AFF1
:1007230085A708AFA1EF5508FE74105E600612148A
:100733005375A1EF74085E600812145975A1F78010
:1007430024EFA2E092F0E508A2E082F05017906156
:1007530098E0F89005A6E0C398A2D265D033500282
:10076300E8F075A1FE752300E509A2E092AFD0F091
:10077300D083D082D009D008D0E0FF020809C0E0BE
:10078300C0D0E8C0E0E9C0E0EAC0E0EBC0E0ECC004
:10079300E0EDC0E0EEC0E0C082C083C0F0A2AFE4F1
:1007A30033FED2AF9061A4E0F8759B00E5915854F5
:1007B3000860087591F712149B8023E59158541033
:1007C30060087591EF1214A18014E591A2E092F0F4
:1007D300E8A2E082F05007E0C2E0F01215DF90617A
:1007E300A3E0F8E5E9585404600E1215C175E9FB5E
:1007F300906193E0A2E640F2752300EEA2E092AF8F
:10080300D0F0D083D082D0E0FED0E0FDD0E0FCD0A9
:10081300E0FBD0E0FAD0E0F9D0E0F8D0D0D0E0327D
:10082300C0E0C0D0E8C0E0E9C0E0EAC0E0EBC0E06F
:10083300ECC0E0EDC0E0EEC0E0C082C083C0F0A237
:10084300AFE433FED2AF9061A5E0F8E5BF5854049E
:10085300600675BFFB1215EB809EC0E0C0D0E8C0F8
:10086300E0E9C0E0EAC0E0EBC0E0ECC0E0EDC0E0EE
:10087300EEC0E0C008C009C00AC00BC082C083C07C
:10088300F0A2AFE433FED2AFE58BA2E05032900585
:100893006F7404F0E58BA2E0E433900570F0750803
:1008A30019750900750A00750B007808120F947A00
:1008B300107B0090056DE0F91217D77404120F79BD
:1008C300758B00C2E8752300EEA2E092AFD0F0D0A2
:1008D30083D082D00BD00AD009D008D0E0FED0E07C
:1008E300FDD0E0FCD0E0FBD0E0FAD0E0F9D0E0F8B6
:1008F300D0D0D0E032C3E498F8E499F912093980F2
:1009030026C3E49AFAE49BFBE920E7E9120939E4F8
:1009130098F8E499F922C3E498F8E499F9120939AB
:10092300E498F8E499F9C3E49AFAE49BFB22EB20F8
:10093300E7CFE920E7E0B90010BB0008E88AF084BC
:10094300F8AAF022E4FBC8FA22EB70227B10C8332A
:10095300C8C933C9335007C39AC3DBF280069A5020
:10096300012ADBEAC833F4C8C933F4C9FA2275F0A3
:1009730008E4C833C8C933C933C99AC99B5004C9E9
:100983002AC93BD5F0ECFBC833F4C8E4C9FA2212F8
:1009930009DD30F039120A2280341209DD20F01407
:1009A30030E72B74FFFCFBFA747F8022E4FCFBFA34
:1009B3007480801AB48008BC00F2BB00EF800F5033
:1009C300EBF9E4C39AFAE49BFBE49CFCE499C6CC00
:1009D30018C6CB18C6CA18C6F922E4C9C608CAC6BF
:1009E30008CBC6D3330308CCC63392F0C3947F40FD
:1009F3002E94184019C9B90704CACBCC225025C379
:100A030009CA33CACB33CBCC33CC33D9F422F46009
:100A13000DC9CCC313CB13CBCA13CAD9F6CC22E46A
:100A2300FCFBFA2214FCFBFA22080808EAC0E0EBFC
:100A3300C0E086F0E7A4FA180986F0E7A42AFA18BA
:100A43000986F0E7A42AFA180986F0E7A42AFA1916
:100A530086F0E7A4FBE5F02AFA190886F0E7A42B51
:100A6300FBE5F03AFA190886F0E7A42BFBE5F03A28
:100A7300FA18180986F0E7A4C5F02BFBE43AFA1933
:100A830008E7C5F0C6A426F6E5F03BFBE43AFA18FE
:100A930086F0E7A4F6E5F00826F6E43B08F6E43A28
:100AA30008F6D0E0FBD0E0FA22080808E630E711A8
:100AB300121091120AC4080808C64480C6181818F0
:100AC30022181818E9799EC608CAC608CBC608CCEE
:100AD300C6C370207996CACBCC7019798ECBCC70F3
:100AE300137986CC700EF9802ACA33CACB33CBCCA8
:100AF30033CC331930E7F2CCCBCA3350147004EA49
:100B030030E00DE4CA3ACACB3BCBCC3CCC50020913
:100B1300C3E913C6CC182313C6CB18C6CA18C6F923
:100B230022E4CFC0E0E4CEC0E0E4CDC0E0E4CCC03A
:100B3300E075F020E626F608E633F608E633F60815
:100B4300E633F6181818EC33FCED33FDEE33FEEF05
:100B530033FFC3EC9709ED9709EE9709EF9719193E
:100B630019400FFFEC97FC09ED97FD09EE97FE196D
:100B73001906D5F0BFECF709EDF709EEF709EFF722
:100B8300191919D0E0FCD0E0FDD0E0FED0E0FF223F
:100B93002521C582C0E0E52234FFC583C0E0E521FD
:100BA300C3958224F810AF088583228582218008AB
:100BB300858322858221D2AFCEF0A3E520F0A378EE
:100BC30008E608F0A3DEFAEFF0A3E58124FAF8E6DD
:100BD30008F0A3E608F0A3E608F0A30808E608F087
:100BE300A3E608F0A315811581D0E0FED0E0F81547
:100BF3008115811581E8C0E0EEC0E022121277B9B9
:100C03000003020C51E4900501782A79128002F066
:100C1300A3D8FCD9FA78239000867A01BA0002801F
:100C230007E493A3F608DAF97A2A7B16900087780B
:100C3300EF79018015E493A3AD82AE838A828B831F
:100C4300F0A3AA82AB838D828E83D8E9D9E775821C
:100C5300957583AB7405120F2375827175832674A2
:100C630000120F23FF75F0108E248F2585822985AE
:100C73008328852182852283E0CEA3E0CF85298244
:100C8300852883EBC9EAC8EDCBECCAC3E833C8E9CE
:100C930033C9EA33CAEB33CBC3EA9EF527EB9FF59F
:100CA30026B35004AB26AA27EC33CCED33CDD5F0D5
:100CB300DAAE24AF2522D083D082ECC0E0EDC0E0D1
:100CC300E493A3FCE493A3FDED4C600D120D91ECB2
:100CD30024FFFCED34FFFD80EFE493A3FCE493A336
:100CE300FDED4C600D120E2EEC24FFFCED34FFFDE8
:100CF30080EFD0E0FDD0E0FCE493A3C0E0E493C038
:100D0300E022D083D082E9C0E0E493A3C386F0C598
:100D1300F095F0F908E493A386F0C5F095F0700B15
:100D2300E493A3C3994005E9048002A3E475F002A8
:100D3300A42582F582E5F03583F583D0E0F9E493C9
:100D4300A3C0E0E493C0E022852283852182E0A34F
:100D5300FEE0A3F5207808E0A3F608DFFAE0A3FF9E
:100D6300E0A3C0E0E0A3C0E0E0A3C0E0E0A3C0E0F4
:100D7300E0A3C0E010AF0885822185832280088527
:100D83008221858322D2AFD083D082020F29C0E093
:100D9300C3E49396087401939618400FE493667026
:100DA3000808740193661870007019A3A3C3E49331
:100DB30096087401939618A3A3400DD0E0D0E0D019
:100DC300E0020CF5A3A3A3A3A3A3D0E022740480A1
:100DD3000474028000CCC0E0EDC0E0E521C39CCCEC
:100DE300AD2250011D10AF068C218D2280068C216F
:100DF3008D22D2AF120EA5D0E0FDD0E0FC2274020A
:100E03008000CCC0E0EDC0E0E521C39CCCAD225016
:100E1300011D10AF068C218D2280068C218D22D2DC
:100E2300AF120E83D0E0FDD0E0FC22C0E0C0F0881A
:100E3300F0E4936670080874019366187000A8F0D4
:100E4300A3A3700BD0F0D0E0D0E0D0E0020CF5A368
:100E5300A3D0F0D0E022D083D082CCC0E0E493A32F
:100E63006006120F041470FAE493A36006121028AC
:100E73001470FAD0E0FCE493A3C0E0E493C0E02252
:100E8300CAC0E0E493A3C582CCC582C583CDC58324
:100E9300F0A3C582CCC582C583CDC583DAE5D0E096
:100EA300CA22CAC0E0E0A3C582CCC582C583CDC532
:100EB30083F0A3C582CCC582C583CDC583DAE6D0D2
:100EC300E0CA22C008C3E096F50808A3E0964208EA
:100ED30008A3E096420808A3E09645087001D3D022
:100EE30008227009080808226016181818C6C333A8
:100EF300C608C633C608C633C608C633C6D5E0EA35
:100F030022C0E0E493A3D39C5010E493A3C39C407A
:100F13000AD0E0D0E0D0E0020E76A3A3A3D0E02273
:100F2300C09FF59FE473D09F22D083D082C09FE4FB
:100F330093C0E0740193C0E0740293F59F22C0E074
:100F4300C0D0E8C0E0A8A8D2AFC2C7752300E8A20A
:100F5300E792AFD0E0F8D0D0D0E0322521F582106F
:100F6300AF08F521400C15228008F5214002152217
:100F7300D2AF8522832200C0D0252110AF08F521EE
:100F8300500C05228008F52150020522D2AFD0D0A3
:100F9300227404800A74038006740280027401C000
:100FA300E0F404120F5ED0E012123A22BB0102E712
:100FB30022C082C08389828A83BB0003E08002E46B
:100FC30093D083D082226016080808C6C313C618BC
:100FD300C613C618C613C618C613C6D5E0EA22251B
:100FE30021F8E43522F9222521FAE43522FB2225D2
:100FF30021FCE43522FD22C3E0C696F608A3E0C631
:1010030096F608A3E0C696F608A3E0C696F6222550
:101013002110AF08F521400C15228008F52140026C
:101023001522D2AF22C0E0E493A36C7009D0E0D0C4
:10103300E0D0E0020E76A3A3D0E022E066701008B1
:10104300A3E066700A08A3E066700408A3E06622C2
:10105300C3E09608A3E09608A3E09608A3E096A24F
:10106300D265D03322E76670100809E766700A0874
:1010730009E76670040809E76622C3E096F008A34F
:10108300E096F008A3E096F008A3E096F022181883
:1010930018E4C396F608E496F608E496F608E49690
:1010A300F622181818E60846087009E6260870059F
:1010B300E633F4220822191919E70947097009E7E9
:1010C30027097005E733F4220922C3E493960874D1
:1010D3000193960874029396087403939622C3E6C9
:1010E30097F60809E697F60809E697F60809E697DA
:1010F300F622E026F608A3E036F608A3E036F60863
:10110300A3E036F622E627F60809E637F60809E6ED
:1011130037F60809E637F622E056F008A3E056F062
:1011230008A3E056F008A3E056F022E056F608A321
:10113300E056F608A3E056F608A3E056F622E64783
:10114300F60809E647F60809E647F60809E647F60A
:1011530022E657F60809E657F60809E657F608099E
:10116300E657F622E026F008A3E036F008A3E036BF
:10117300F008A3E036F022700422600D18C6C333D2
:10118300C608C633C6D5E0F4182206E6700D080675
:10119300E670080806E670030806E622600D08C636
:1011A300A2E713C618C613C6D5E0F322C3E7960811
:1011B30009E7960809E7960809E79622C6F4C608E0
:1011C300C6F4C608C6F4C608C6F4C622C3E0960829
:1011D300A3E09608A3E09608A3E0962275D00075D5
:1011E300813F75210175220500020BFFE7094709BD
:1011F300C3134709336002E733F422E6084608C302
:10120300134608336002E633F422600C08C6C313A6
:10121300C618C613C6D5E0F422E0F608A3E0F60824
:10122300A3E0F608A3E0F622E6F008A3E6F008A39D
:10123300E6F008A3E6F022CAC0E0E6F0A308DAFA73
:10124300D0E0FA22EAF0A3EBF0A3ECF0A3EDF02256
:10125300E8F0A3E9F0A3EAF0A3EBF022E0F8A3E0BF
:10126300F9A3E0FAA3E0FB22E0FAA3E0FBA3E0FC8E
:10127300A3E0FD22E5C754F84401F5C7790122250F
:1012830021F582E43522F58322E62618461846180E
:101293004622C2AF75D69F02000022E727194719DD
:1012A30047194722E96004F800D8FD22120F2CB732
:1012B300B504120F2C98B604120F2C76B704120F34
:1012C3002CC28C05120F2CED8C05120F2C618E0590
:1012D300120F2C658F05120F2CF08F05120F2CB4F3
:1012E300FF03120F2CB9FF03120F2CECFF03120F95
:1012F3002CCBA605120F2C92A705120F2CC3A80501
:10130300120F2C8FB905120F2CA0B905120F2C3A0E
:10131300BA05120F2C45BA05120F2C5FBA05120F2E
:101323002CF4FF01120F2CEA7F00120F2CBAB70521
:10133300120F2CCAB705120F2CDFB705120F2CA9F9
:10134300B805120F2CD9FE02120F2C5FFF02120FE9
:101353002CC7FF02120F2CDB9D05120F2CEF9D05EE
:10136300120F2CB99E05120F2C379F05120F2C8CD0
:101373009F05120F2CB19F05120F2CD49F05120F3E
:101383002C47A005120F2C87A005120F2CEAA005ED
:10139300120F2CAFB805120F2C36B905120F2C3FC4
:1013A300B905120F2C66B905120F2C7DB905120F62
:1013B3002C49F004120F2C8DF004120F2C2DF20483
:1013C300120F2C6DF304120F2C53F504120F2C94EF
:1013D300F504120F2CB5F504120F2C30A405120FCF
:1013E3002C7CA405120F2CC8A605120F2C0EFF018E
:1013F300120F2C37FF01120F2CBFEA04120F2CEA35
:10140300EA04120F2CFCED04120F2CD7EE04120F7A
:101413002CF8EE04120F2C14EF04120F2C2DEF04F2
:10142300120F2C81AD05120F2CB6AD05120F2CF146
:10143300AD05120F2C63AE05120F2C93AE05120FE0
:101443002CC0AE05120F2CCAAE05120F2C27AF0508
:10145300120F2C2AAF05120F2C3DAF05120F2C498A
:10146300AF05120F2C10A105120F2C64A105120F4A
:101473002CB4A105120F2C22A205120F2C63A20576
:10148300120F2CBCA205120F2CCBA205120F2CF3AA
:10149300A205120F2CE4A305120F2CF1A305120FC2
:1014A3002C02A405120F2CACBB05120F2CFCBB05A0
:1014B300120F2C26BC05120F2CE47900120F2C47B7
:1014C3007B00120F2C557B00120F2C687B00120F30
:1014D3002C7D7B00120F2C927B00120F2CA57B001E
:1014E300120F2C6C7C00120F2CE27C00120F2C6468
:1014F3007D00120F2C0D7E00120F2CE67E00120FC2
:101503002CF67E00120F2C057F00120F2C11BB0549
:10151300120F2C36BB05120F2C5FBB05120F2C8745
:10152300BB05120F2C3AA905120F2C61A905120F46
:101533002CD8A905120F2CD59305120F2CEE930569
:10154300120F2C0C9405120F2C209405120F2C3E15
:101553009405120F2C489405120F2C529405120F68
:101563002C659405120F2C569505120F2CC7950563
:10157300120F2CF29505120F2C409605120F2C8D8D
:101583009605120F2CA89605120F2CB29605120F72
:101593002CFD9605120F2C95BC05120F2CE0BC05F3
:1015A300120F2C4BD404120F2C7FD404120F2CA136
:1015B300D404120F2CBAD404120F2CD4D404120F57
:1015C3002C3FD504120F2C72D504120F2C5EDB04B2
:1015D300120F2CEEDC04120F2C6DDD04120F2CFB0A
:1015E300DE04120F2C16DF04120F2C89DF04120FF6
:1015F3002C52AF05120F2C62AF05120F2C9AAF05B8
:10160300120F2CB3AF05120F2C24B005120F2C4967
:10161300B005120F2C74B005120F2CCAB005120FAF
:101623002CF0B005120F2C367F00120F2C7C7F009C
:10163300120F2C008005120F2C078005120F2CBAF5
:101643008105120F2CDE8105120F2C6C8205120FFF
:101653002C4B8305120F2CAA8305120F2C3F8405F4
:10166300120F2C8A8405120F2CA8B205120F2CBA64
:10167300B205120F2CCFB305120F2CD2B305120FE4
:101683002C44B505120F2C7AB505120F2C92B50513
:10169300120F2CD4B505120F2C1AB605120F2C5E9F
:1016A300B605120F2C68B605120F2CA7F703120FFD
:1016B3002CE4F703120F2C49F803120F2C68F803DC
:1016C300120F2C1FF903120F2C29F903120F2C7A76
:1016D300F903120F2CA8F903120F2C8FFA03120F20
:1016E3002CACFB03120F2CFAFB03120F2C3BFC0355
:1016F300120F2CA4FC03120F2C19FD03120F2C74D0
:10170300FD03120F2CB1FD03120F2CF4FD03120F76
:101713002C06FE03120F2C18FE03120F2C37FE03A8
:10172300120F2C40FE03120F2CF7FE03120F2C484E
:10173300FF03120F2C82FF03120F2C47BD05120F5C
:101743002C1DB105120F2C949A05120F2CCA9A0561
:10175300120F2C1B9C05120F2C749D05120F2CB21B
:10176300A203120F2C34A903120F2CDCAF03120FA8
:101773002C71B203120F2CD4B403120F2C72B503C5
:10178300120F2C4BB703120F2C84B903120F2CB575
:10179300BC03120F2CC3BC03120F2C8EBD03120FFC
:1017A3002C2FBE03120F2C97C303120F2C41C4031B
:1017B300120F2C6EBA05120F2C86BA05120F2C903D
:1017C300BA05120F2CE6BA05120F2CF9FA04120F00
:1017D3002C0BFB04120F2CFAFB04120F2C2BFC0412
:1017E300120F2C78FC04120F2CD8FC04120F2C447B
:1017F300FD04120F2C61FF04120F2CD0FF04120FF3
:101803002C82B605120F2C06B705120F2C5CB705F8
:10181300120F2C9BB705120F2CECBC05120F2C36A4
:101823008601120F2C428601120F2CE78601120F3C
:101833002C638701120F2C6C8801120F2CFF880177
:10184300120F2C9D8901120F2CDF8901120F2CE03E
:101853008B01120F2CC18E01120F2CCD9301120F8D
:101863002C129901120F2CE2A301120F2CE4A401F4
:10187300120F2C7CA501120F2C2DA601120F2CA6E2
:10188300A601120F2C5DA801120F2C50A901120FF3
:101893002CBDAB01120F2C45AC01120F2CB3AF01C1
:1018A300120F2C0CB301120F2CE2B301120F2CF503
:1018B300B801120F2C86B901120F2CC1B901120FF6
:1018C3002CADBC01120F2C98C301120F2CC2C60100
:1018D300120F2C1F9804120F2C679904120F2CA2BD
:1018E3009D04120F2CD29D04120F2C0E9E04120F76
:1018F3002C8E9F04120F2CC7A004120F2C48A20495
:10190300120F2CB5A304120F2C3DA404120F2CC5E7
:10191300A404120F2C0BA604120F2C4AA704120FB7
:101923002C6A9005120F2C099105120F2C2A910590
:10193300120F2C159205120F2CCADE03120F2C3F27
:10194300DF03120F2CC8DF03120F2C1CE203120F4C
:101953002C54E303120F2C3BE503120F2C8AE503EF
:10196300120F2CEEE503120F2C69E603120F2C9FC6
:10197300EA03120F2CA3EB03120F2C03ED03120F38
:101983002CF3ED03120F2C7FEE03120F2CB8EE0392
:10199300120F2CD7EF03120F2C7AF003120F2C0324
:1019A300F103120F2CB2F303120F2CD9F403120F0D
:1019B3002C2DF503120F2C43F603120F2C6BF60399
:1019C300120F2C6EF603120F2C7CF603120F2CA0B1
:1019D300F603120F2C10F703120F2C49F703120F03
:1019E3002C75F703120F2C88F703120F2C29BC0553
:1019F300120F2CFD7F00120F2C008004120F2C23DA
:101A03008004120F2C878104120F2CD08104120F33
:101A13002C7C8204120F2CE58204120F2CE8820422
:101A2300120F2C7B8304120F2C058404120F2CB687
:101A33008404120F2CB98404120F2C588504120F3E
:101A43002CD98A04120F2C9C8C04120F2CD18C04D9
:101A5300120F2C8D9004120F2CBC9104120F2CD357
:101A63009204120F2C9F9304120F2CC09404120F94
:101A73002C899604120F2C3AC503120F2C44C6036B
:101A8300120F2CF1C603120F2CFBC703120F2CD617
:101A9300C803120F2C8CC903120F2C5ACA03120F3E
:101AA3002C6BCC03120F2C6CCE03120F2C5ECF03C6
:101AB300120F2C38D203120F2C94D303120F2C972E
:101AC300D403120F2C76D603120F2C84D903120FD2
:101AD3002CA5DB03120F2C40DC03120F2C65DD0356
:101AE300120F2CB0E202120F2C15E302120F2C7608
:101AF300E302120F2C4AE502120F2CEEE502120F3D
:101B03002C17E602120F2C10EA02120F2C27EA02FE
:101B1300120F2C2BEB02120F2CE9EC02120F2CF4F8
:101B2300ED02120F2CA9EE02120F2C29EF02120F55
:101B33002CDAEF02120F2CC7F102120F2CAAF202B9
:101B4300120F2C11F402120F2C24F602120F2CAFD9
:101B5300F802120F2C8FFA02120F2C52FB02120FF3
:101B63002CCAFB02120F2CE1FB02120F2CE3FC0226
:101B7300120F2CC7FD02120F2C36FE02120F2C1669
:101B83008905120F2C148B05120F2CD38B05120F02
:101B93002C378C05120F2C409705120F2C969705A6
:101BA300120F2CDF9705120F2C079805120F2C2EFE
:101BB3009805120F2C79A904120F2C169905120FF0
:101BC3002C2B9905120F2C4E9A05120F2C579A05A0
:101BD300120F2C609A05120F2C699A05120F2C73A1
:101BE3009A05120F2CCCF504120F2CF2FA04120FE3
:101BF3002CF7FA04120F2C09AC05120F2CE0FF028C
:101C0300120F2CF6BD05120F2C9FBD05120F2CAF22
:101C1300BD05120F2CDE8405120F2CF7BC02120F28
:101C23002C2ABD02120F2C96BD02120F2C31BE02BC
:101C3300120F2CEDB304120F2C13BF02120F2C350D
:101C4300BF02120F2C4EBF02120F2C74BF02120FD1
:101C53002C96BF02120F2CD4BF02120F2C18C002F5
:101C6300120F2C3AC002120F2C9CC002120F2C63CD
:101C7300C102120F2C1AC202120F2C8CC202120FB5
:101C83002C57C302120F2CAAC302120F2C10C4022A
:101C9300120F2C4AC402120F2C9CC402120F2C0ADE
:101CA300C502120F2C75C502120F2C78C502120F34
:101CB3002CF9C502120F2C90C602120F2C10C7026A
:101CC300120F2C2FC702120F2C93C802120F2CA035
:101CD300C802120F2CACC902120F2CB9C902120F81
:101CE3002CC2C902120F2C9ACB02120F2CB4CC02B5
:101CF300120F2C2DCD02120F2C9FCD02120F2CC1CF
:101D0300CD02120F2C55CE02120F2C29D002120F26
:101D13002C00D402120F2C14D402120F2C24D40240
:101D2300120F2C2ED402120F2C37D402120F2C4078
:101D3300D402120F2C4AD402120F2C77D402120FA2
:101D43002CA0D402120F2CABD402120F2CCFD4022E
:101D5300120F2CF3D402120F2C5DD502120F2CA3F9
:101D6300D502120F2CC0D502120F2C3DD602120F32
:101D73002C74D602120F2CB3D602120F2C00D702EA
:101D8300120F2C86D702120F2C54D902120F2CD704
:101D9300D902120F2CBBDA02120F2C22DD02120F12
:101DA3002C7BDD02120F2CC5DD02120F2C20DF026B
:101DB300120F2C55DF02120F2CA7DF02120F2C5C1F
:101DC300E002120F2C0BE102120F2C48E102120F5A
:101DD3002CDDE102120F2C49E202120F2CE52C003C
:101DE300120F2C172D00120F2C452D00120F2C1B38
:101DF3002F00120F2CFB2F00120F2C533000120F49
:101E03002C8E3100120F2CDA3100120F2C03350007
:101E1300120F2CF63700120F2C463900120F2CDC50
:101E23003900120F2CE83900120F2C1A3A00120F46
:101E33002C9D3B00120F2C4E3D00120F2CE23D0057
:101E4300120F2C253E00120F2CA33E00120F2CC0A4
:101E53003E00120F2CF03E00120F2C253F00120FF4
:101E63002CF53F00120F2C9E4000120F2C24430030
:101E7300120F2C444400120F2C2F4500120F2CB1CB
:101E83004500120F2CE54900120F2C224A00120FB5
:101E93002C7A4A00120F2CAD4A00120F2C174B005C
:101EA300120F2C4D4B00120F2CD84B00120F2C305D
:101EB3004C00120F2C074D00120F2CC04D00120FB7
:101EC3002C5B4E00120F2C635100120F2C7F52001B
:101ED300120F2C225600120F2C165700120F2C191A
:101EE3005700120F2C485700120F2C4E5900120F97
:101EF3002C275A00120F2C6A5A00120F2CC05B00B9
:101F0300120F2CFF5B00120F2C885C00120F2CBCED
:101F13005C00120F2C815D00120F2C995F00120FD1
:101F23002C0A6000120F2C4A6000120F2CD860009C
:101F3300120F2CFA6100120F2CBC6200120F2CC37B
:101F43006400120F2CDB6400120F2CEF6400120FDD
:101F53002C276500120F2C556500120F2CD4660038
:101F6300120F2CF96700120F2C566800120F2C0861
:101F73006900120F2C2F6900120F2CF66900120F43
:101F83002C8E6A00120F2CB46C00120F2CE96C001B
:101F9300120F2C4C6D00120F2C7B6E00120F2C2392
:101FA3006F00120F2C546F00120F2C6C6F00120F66
:101FB3002CFB6F00120F2CAF7200120F2C877400D2
:101FC300120F2CA37400120F2CBF7400120F2C8D50
:101FD3007500120F2C807900120F2C008002120F53
:101FE3002C328002120F2C218402120F2C6D8402DA
:101FF300120F2CB38402120F2C558502120F2CB131
:102003008502120F2CF68502120F2C3D8702120F48
:102013002C518802120F2C408C02120F2CC48C02FC
:10202300120F2CD18D02120F2C2D8E02120F2C1D8C
:102033009002120F2C929002120F2C9C9002120FFE
:102043002CA99002120F2CD49002120F2CBB9102D8
:10205300120F2C659202120F2CE39202120F2C0323
:102063009302120F2C2C9302120F2C4E9302120F79
:102073002CAE9502120F2C749602120F2CB99602F5
:10208300120F2C369702120F2CE79702120F2C19FE
:102093009802120F2C5F9802120F2C9B9802120FBA
:1020A3002CEB9802120F2C3F9902120F2C959902D8
:1020B300120F2CE19902120F2C4E9A02120F2CC907
:1020C3009A02120F2C949C02120F2C949D02120F51
:1020D3002CB99E02120F2CF8A102120F2C0BA50291
:1020E300120F2CC8A502120F2C0CA602120F2CBC27
:1020F300A702120F2CD0A702120F2CDAA702120F7D
:102103002CE4A702120F2CF0A702120F2C0CA8022A
:10211300120F2CB7A802120F2CF6A802120F2C00D4
:10212300A902120F2C0AA902120F2C7AA902120F6C
:102133002CC5A902120F2CDAAA02120F2C36AB02FD
:10214300120F2CB7AB02120F2C76AC02120F2C7F9E
:10215300AD02120F2CB3AE02120F2CA1AF02120F5D
:102163002CB9AF02120F2C14B002120F2C32B00292
:10217300120F2C7AB002120F2CA1B002120F2C3CBA
:10218300B102120F2C02B202120F2C94B202120FE0
:102193002C0EB302120F2C28B402120F2CD5B4024A
:1021A300120F2CFDB502120F2C4DB602120F2CB1DB
:1021B300B602120F2C13B702120F2C41B702120FE3
:1021C3002C65B702120F2C9AB702120F2CCBB70251
:1021D300120F2CFEB702120F2C1EB802120F2C8600
:1021E300B802120F2C7AB902120F2CD5B902120FB2
:1021F3002CFEB902120F2C86BA02120F2C09BB0255
:10220300120F2C34BB02120F2C19BC02120F2CAA72
:10221300DF04120F2CE2DF04120F2C03E004120F71
:102223002C45E004120F2CA7E004120F2CB1E0049C
:10223300120F2CC1E004120F2CFCE004120F2CDC53
:10224300E404120F2CC9E604120F2CAFE804120F9A
:102253002C46E904120F2CE8E904120F2C47D30192
:10226300120F2CC5D301120F2C21D401120F2C6C89
:10227300D401120F2C87D401120F2CB2D401120FE8
:102283002CCFD401120F2CDBD401120F2C72D601E8
:10229300120F2C8BD601120F2C10D701120F2C23E7
:1022A300D701120F2C42D701120F2CE6D701120FC0
:1022B3002C67D901120F2C1ADB01120F2CB0DB0192
:1022C300120F2CB3DB01120F2C23DC01120F2C4154
:1022D300DC01120F2CD8DC01120F2C20DD01120FB0
:1022E3002C23DD01120F2CE9DD01120F2C56DE0128
:1022F300120F2C7CDE01120F2C07DF01120F2C258D
:10230300DF01120F2C6BDF01120F2C1FE001120FE4
:102313002C69E001120F2C98E001120F2CF5E0015B
:10232300120F2C2AE101120F2C56E101120F2C641B
:10233300E101120F2CB1E101120F2C21E201120F66
:102343002C6AE201120F2CB6E201120F2CE2E20119
:10235300120F2CEDE201120F2C0BE301120F2CF6DE
:10236300E301120F2C00E401120F2C3BE401120FC6
:102373002C4BE401120F2C54E401120F2CA8E4019E
:10238300120F2CBCE401120F2CEBE501120F2C02EF
:10239300E601120F2C17E601120F2CA5E601120F0E
:1023A3002CEAE601120F2C76E701120F2C81E701CC
:1023B300120F2CC3E801120F2CDEE801120F2C2A96
:1023C300E901120F2C99E901120F2CD2E901120F26
:1023D3002CECE901120F2C2EEA01120F2CFEEC015A
:1023E300120F2CABED01120F2C18EE01120F2C580B
:1023F300F001120F2C70F001120F2C73F001120F69
:102403002C7FF001120F2C93F001120F2C9BF00183
:10241300120F2CCEF001120F2CD0F101120F2C57FA
:10242300F201120F2CC7F201120F2C49F301120F04
:102433002C0AF401120F2C29F401120F2CCAF401F7
:10244300120F2C27F501120F2C2AF501120F2C570E
:10245300F501120F2C6CF501120F2CE0F501120F90
:102463002C2FF701120F2C35F801120F2CC0F80195
:10247300120F2CDBF901120F2CA3FA01120F2CD42B
:10248300FA01120F2CF7FA01120F2C00FB01120FA5
:102493002C2FFB01120F2CBFFB01120F2C75FC011B
:1024A300120F2CEAFC01120F2C91FD01120F2C06C6
:1024B300FE01120F2C3DFE01120F2C7BFE01120FA9
:1024C3002CB1FE01120F2CAFB304120F2C2DA90453
:1024D300120F2CEAA804120F2C6EA804120F2C045E
:1024E300B405120F2C55C704120F2C20C504120F6C
:1024F3002C56C404120F2CA9C304120F2C9FC3041F
:10250300120F2C8BC304120F2C28B304120F2CDAD6
:10251300B204120F2C50C204120F2CDDC004120F90
:102523002C47B204120F2CB5B104120F2C65BD0455
:10253300120F2C15B904120F2C5EB804120F2C9C29
:10254300A203120F2C92A203120F2CA09E03120FB0
:102553002C769D03120F2C2C9D03120F2C499B03E9
:10256300120F2C929503120F2CBC9103120F2C3EC9
:102573009103120F2C739003120F2CFC8F03120F75
:102583002C288F03120F2C8A8E03120F2CDA8C0344
:10259300120F2C018C03120F2C578B03120F2C528A
:1025A3008B03120F2C8DB104120F2C39B104120FAF
:1025B3002CA7B004120F2C1BB004120F2C93AF04E2
:1025C300120F2C30AE04120F2C3CAD04120F2C460C
:1025D3008B03120F2CB78503120F2C858503120F63
:1025E3002C178503120F2CAAAC04120F2C6484033E
:1025F300120F2CAC8303120F2C628303120F2C5780
:102603008303120F2C5FAC04120F2C138103120FE0
:102613002CCEBE02120F2C6F8003120F2C298003C5
:10262300120F2C008003120F2C0BD404120F2CDC7E
:10263300D304120F2C4CD304120F2C12D304120FF9
:102643002C7ACF04120F2CD2CC04120F2CB3C90452
:10265300120F2C04C904120F2C84C804120F2C8CE3
:10266300C704120F2C47AC04120F2C469805000028
:102673000080FB000022E4738F000100D516870061
:102683000100D316350004009C1625000200A01695
:1026930026000200A21627000200A416280001004B
:1026A300AE1629000100AF16840004001A14860038
:1026B300010038162A000100B0162B000100B116E4
:1026C3002C000100B5162D00080026142E00010071
:1026D300B6162F000100B71630000100B8163100FE
:1026E3000100B916320001002E14330001002F142B
:1026F30034000100BA16360001003014380001001E
:10270300BB1639000100B41683000200D116630022
:1027130001003C1464000100B21665000100B31609
:102723006D0001003D14710008001E1466000100D5
:10273300D01643000100C11644000200C216450032
:102743000100C41646000200C516470008003414F1
:1027530048000100C7164B000100C8160400010021
:10276300D416A1000100D81637000100D71688003F
:102773000100D6163C00010031143D000100BC16D7
:1027830049000200C916670001003E144D00020013
:10279300CB164E000100CD164F000200CE163E00B0
:1027A3000100C01651000100321452000100BE1690
:1027B30053000100BF165400010033140000000051
:1027C300000000000000200130860000010020010D
:1027D300328600000200200135860000030020013C
:1027E3003186000004004201C88500000500420153
:1027F3008585000006004201528500000700300174
:10280300348600000040420152850000FDFF210193
:102813002E86010020002001401601002100200126
:102823004116010000022101421601003E001B0176
:102833002F050100010221236F1601000502102359
:1028430075160204000029010E1302041002292345
:102853007616020420021023711602042102292392
:102863006716020422022923691602042502102393
:102873007216050400002101101305041002292318
:102883007816050420021023731605042102212360
:102893006B160504220221236D160504250210235D
:1028A3007416000136360101000102010001030123
:1028B30000010401060605020000070100340801B7
:1028C300000F090401010D0100FF0E0800001702AB
:1028D3000000190100FF1A0100011B0100FE1C0189
:1028E30000081D0200001F01000120010001210258
:1028F30000002301000F240200002601000127012C
:102903000008280200FF2A0100072B0102402C01C6
:1029130000002D0100012E0100012F0100FF3001F5
:102923000B1D310800003A0100083B01000F3C0178
:1029330000013D0100FF3E04000042040000460484
:1029430000004A0400004E04000052040000560434
:1029530000005A0400000103710301030103010392
:102963000103010322030203010310030003000315
:1029730000030003000300030003420300032403D6
:1029830006030003000304031203250323032503A3
:1029930023030403040300030003000344030003AD
:1029A30000032303000365032100350381030003B0
:1029B30005030003000300030003250323030302AD
:1029C300710230016002110270020102020202026E
:1029D3008002100261023A00410063027302720234
:1029E30062024302000213023800000200020402E2
:1029F3001202000200020002000204020402370075
:102A030037003C0244020002390000020002650262
:102A130000023502810200020502820283020002E3
:102A230001017101010101011101010131010101E3
:102A330001018001100161013B0014006301730176
:102A43007201620143010001130106013D013500DA
:102A5300040112010001000100010001040104014D
:102A6300330133013C01440132013600000100010E
:102A73006501000135008101000105018201830127
:102A83000001030071003001600011007000310289
:102A93002003500480001000610000001400630054
:102AA3007300720062004300000013000600000080
:102AB30000000400120000000000000000000400F9
:102AC3000400370037003C0244000000000000000F
:102AD30000006500000035008100000005000000D3
:102AE3008300000036000100060000000F00000014
:102AF3000000000000000000000003FFFF000004CE
:102B030003FFFF0000FFFF0FF4010005C4040320CF
:102B1300000100000B000000000000000003010F93
:102B230000000000000000000000000000000000A2
:102B33000000000000000000000000000000000092
:102B430000009118BB18971831189D18C1189D18CB
:102B5300CD18A31831189D18C118A91831180000F1
:102B63000000AF1831180000000000000000B51885
:102B73003118000000000000000000000000000009
:102B83000000000000000000000000000000000042
:102B93000000000000000000000000000000000032
:102BA3009B1A01009B1A02001D1A0280171A0300C8
:102BB300231A0400291A04802F1A0500351A060067
:102BC3003B1A31004D1A3300531A3400591AFFFFD0
:102BD3000000030003000400080010001F003E0073
:102BE3007B00F600EC01D703AF075D0FB91E713D03
:102BF300000007ECFDFDFDECDCDCCCBCACAC9C9C2C
:102C03008C7C7C6C6C5C5C5C4C4C3C3C2C2C1C1CB1
:102C130003EAF5E5D5D5C5B5A5959585857575659E
:102C23006555554545353525251515050A532002A6
:102C33001D200529200723200C05200D1120FF004E
:102C43000000160F00000B150B020002220F3300C9
:102C5300000E0F5A6967426565416C6C69616E636A
:102C6300653039D0D1D2D3D4D5D6D7D8D9DADBDCB5
:102C7300DDDEDF303016181920231A1C1E30000346
:102C83004D4C4651181A250502000119161816163F
:102C930018230300303017181921301B1D1F300073
:102CA3003C40423A3F3F392F47300C0E020B040B96
:102CB3000A0708000F020402010101010902E803E7
:102CC300000000BE040A01000E000300E80304092B
:102CD3001C031004030A0C041E0828020C05081523
:102CE3001E04C082C0831224D990146774F5F0A324
:102CF300741DF090146974FBF0A3741DF090146BB1
:102D03007401F0A3741EF090146D7407F0A3741E85
:102D1300F0025A2074F7120B9390145BE4F0E990DD
:102D2300145AF07C347D147A5C7B141218139016B9
:102D3300C7E0901464F0901465741EF0A374140239
:102D43003CAD74F0120B93EAFEEBFF548070030268
:102D53002EB690145A123D427003022EAFEA241B82
:102D63001255AD707CEA241F1255AD64137002A393
:102D7300E0706E8A828B83122F04901475124B3F7E
:102D8300750A00750B00800D123B83126C1F12171E
:102D930059AA0EAB0FEA4B60488A828B83E0650C1D
:102DA3007004A3E0650D702C8A828B83A3A3A3A375
:102DB300E0F50EA3E0F50FE50A450B8A828B83A3AA
:102DC300A3A3A360C3123E85850A82850B83A3A3B5
:102DD300A3A380B78A0A8B0B8A828B83124B3B8017
:102DE300B4E508242A1255ADFCE5082402F8E435BD
:102DF30009F9E8FAE9FB901475122FEBA3A3E06439
:102E030002703C8A828B83124B3F800B88828983BA
:102E1300A3A3A3A3123E85E849601F88828983E0A8
:102E23006A7003A3E06B70E488828983A3A3E06CD8
:102E330070DA9016CD1258DD806BECF9121E3185D5
:102E43000882850983E06401704FE5082418122E77
:102E5300ED120FA01261C7120DD0E5082412122E35
:102E6300ED120FA0E508123D36120F9CE508240B66
:102E73001261CB120DD4E5082417123CD3E50824C4
:102E830002FCE43509FDE5082419FAE43509FB12CF
:102E9300264D740A120F79800CE064027007AA08A9
:102EA300AB09121F0FAA08AB091216CFEEFAEF6493
:102EB30080802DEA5402600C9016E47401F0EA64F9
:102EC30002FA8023EA5408601A121E2BEA4B700B95
:102ED3009014771260A27A08122EFAEE6408FAEFC1
:102EE300FB80047A007B00026851F582E43509F522
:102EF30083E0F50A780A22FB90145AE0F91217E3EB
:102F030022A3A3E0F50CA3E0F50D227B0090145A55
:102F1300E0F91217D774042274F4120B938A088B06
:102F2300098A828B83A3A3A3124937123CDE38F5A7
:102F330083E02409FA1267E97003022FDE8A828B89
:102F43008374021249AC850882850983122FEBE84A
:102F5300F0A3E91264638A828B83A3A3A3A3A3A32D
:102F6300A3A3F0E5082403F8E43509122FE0123C8B
:102F7300DE3AF583E08E828B83A3A3A3A3F0EE2432
:102F830009FAE43FFB8E828F83A3A3125B8FF58341
:102F93008882E0A2E58E828F83A3A3A3A3A3500418
:102FA30074018001E4F0E5082403F5828983124B60
:102FB3003FEA1250C03BF5831267B0120F98123CE0
:102FC300DD3B125C818E828F83A3A312795F120F84
:102FD30079EEFAEFFB90145A1268368016F988825C
:102FE300F583E0FAA3E0CA22124CDCA3A322740205
:102FF300120F797F04020D4B74F2120B938A088B24
:1030030009ECFAEDFB740E121282E0FC1225C98A58
:103013000C8B0DAE0CAF0DEA4F6030AC08AD09124E
:103023002605E96026AC08AD09EEFAEFFB1225E7A9
:10303300E970148E828F83123E72FAEFFB122665BB
:10304300AA08AB091225B17900800279B4024C2B8E
:1030530074F0120B9374F6121012EAFEEBFF8C0855
:103063008D09750FB3852182852283E4F0750E00E7
:103073008002050E902CE4E493F8E50EC398400318
:1030830002317AAA0E7B0012250F8A0A8B0BEA4BB8
:1030930060E08A828B83A3A312318128F0F8C3EE08
:1030A30098EF940050CC7C157D007900AA08AB09F9
:1030B3001216B7850A82850B83A3A3A3A3126C5CA4
:1030C300E0F8EEC3982925E0F8E433F9E50A28F59A
:1030D30082E50B39F583A3A3A3A3A3A3123CE8A31F
:1030E3001257048A0C8B0DAC0CAD0DAA08AB091258
:1030F3001813850A82850B83A3E06401700A1261A9
:10310300C77401123CFA80447401120FF2850A82DB
:10311300850B83124B3D1225ABE9603D74091212F6
:1031230082E0C0E01261C7D0E0F07409121282E0BD
:10313300640370137401120FF2E508240BFAE435EB
:1031430009FB12181380127401121282123E85E5D4
:10315300081256EA3509126C1D850A82850B831203
:1031630061D3123CFAA3A3E0C0E0E5082414126182
:10317300CBD0E0F0750F00A90F740A02684EA3A329
:10318300A3E0F8852182852283E02274F7120B9352
:10319300E9FE8A828B83A3A3A3A3A3A3E0540860BD
:1031A300338A828B83A3A3A3A3A3A3E05402602146
:1031B3008A828B83A3A3A3A3A3A3A3A3A3E06406ED
:1031C300600F74E96E600A74CD6E600574F06E7002
:1031D30003121E1302452A74F0120B9374EF12109C
:1031E30012740F121282125F867408121282E9F0AF
:1031F300ECFEEDFF74051212821242F2124516A381
:10320300E0F91225BD7406121282125F867406124B
:1032130012821251517003023495123D22E0FA7466
:1032230006121282E0F9121D531234F5F8A3E0F9E5
:10323300E8497003023495EE2403F50AE43FF50BE5
:10324300EE2406F508E43FF5097C00850882F58342
:10325300124B3F850A82850B83E0F91225B774036D
:10326300121282125F86850A82850B83E0C0E08595
:1032730021828522831234EED0E0125266F9852131
:1032830082852283123B8A124DB8123184FAA3E05D
:10329300CA2407F582E43AF583E8F0A3E4125F91C8
:1032A3002406F582E438F583E4126C2912492B12C3
:1032B3000F98EE123CDE3F125C81740312128212ED
:1032C30049372409127959120F797429121282127B
:1032D3006C56122FE51252793A126C1D742B12128E
:1032E30082E0C0E0852182852283125118D0E0F06C
:1032F3007402121282E4F0742512128278081212F8
:103303001C0233EC7403121282125C498882F58327
:103313001234DDA3A3A312570FFB1225A5850E823A
:10332300850F83A3EAF0A3EBF07403121282123425
:10333300EEA31234DD12591EA2E6500F850E8285CC
:103343000F83A3A3A3A3A3E0D2E1F0740512128217
:10335300E0706B850E82850F83A3123E859014B5B2
:10336300E0687003A3E0697055850E82850F83A31F
:10337300A3A3123CBD750C00780C120FA0780812A1
:103383000F947429121282E0F50C780C120FA074BA
:1033930027121282120DD49014C2120DD479007424
:1033A30019121282124B0F121F57740A120F7985CA
:1033B3000E82850F83A3A3A3A3A3E04405F07402A5
:1033C300121282E004FC8E828F83124B398E828F1D
:1033D30083A3A3A3E0F91225B77403121282125F29
:1033E300867402121282E004F074031212821251E4
:1033F3005160677402121282E0FA7406121282128A
:103403003E85C3EA98E4995051740212128212372E
:10341300C7852182852283E028F8A3E039F9E824CF
:103423000FF50EE439F50F850E82F583E4F074038E
:103433001212821234E86401600302330774051226
:103443001282740112683CF07403121282125A1031
:103453001237EAE8F0A3E902332B85218285228320
:10346300124B3F121D59852182852283120DD4747C
:1034730026121282E0FD7425121282E0FC740A12F5
:103483001282E0F9EEFAEFFB121E0D7402120F79AD
:1034930080438E828F83A3A3A3E0C0E0740C121237
:1034A30082D0E0F01266A5E0C0E0740D121282D063
:1034B300E0F074061212821251517009740E121246
:1034C3008274B98007740E1212827410F074091298
:1034D3000FEA121F51741102684EE0850E82850FA8
:1034E30083A3A3A322E012523EE022E012523EA3A2
:1034F300A322852182852283EAF0A3EB12515A226B
:1035030074F0120B9374E11210127404121282E914
:10351300F07403121282ECF07402121282EDF08A3C
:103523000E8B0F742F121282122F06AA0CFB121D80
:10353300477401121282E9F0AA0CAB0D121D4D74EF
:1035430001121282E070030237C285218285228331
:10355300E480158E828F83A3A3A3A3A3E0D2E3F019
:10356300852182852283E004126794F88521828570
:103573002283E0C39840030237B97401121282E038
:1035830070030237B98521828522831237C7E50C80
:1035930028F8E50D39F9E8240FFEE439FF8E82F5AA
:1035A30083A3A3A3A3A3E0A2E040B5750800750A13
:1035B30008750B007402121282E060037508207C08
:1035C300087D0079007405120FEA1216B78E828FF8
:1035D30083E0603E901505E06401701AE508D2E3CC
:1035E300F508750B101237D7121282E8F0A3E9120F
:1035F300560274FF807643080C750A0C8E828F8303
:10360300A31237E2126C1F740512128274FFF0A327
:10361300805A7404121282E06009E508D2E6F508C4
:10362300750A0A8E828F83A3E064FE7003A3E0F41D
:103633007030741212128274041261F1F8741D1244
:103643001282E81249AC7412120FEA121C757D0043
:103653007C0079007415121282AA82AB83121A833A
:10366300800B1237D7121282E8F0A3E9F074071225
:103673001282E508F0123D19C0E07409121282D0DB
:10368300E0F0740A1212827401F07405120FEA1248
:103693001F157411121282E06003023797740D1222
:1036A30012821252618E828F83A3A3A3A3F0740D9F
:1036B30012128212497AE50AF0A3E50BF0740312A1
:1036C3001282E0C0E012490BD0E012591E60119043
:1036D3001505E0C0E0740D121282124955D0E0F0D6
:1036E300740D121282123E85850C82850D83A3A36D
:1036F300A3A3A31237D0241C125F80126C39123794
:10370300D21258D0391266C4C0E01248F2D0E01287
:103713006789C0E0740D121282124438D0E012643B
:103723008AC0E0740D12128212442ED0E0F0740DA0
:103733001212821237E21237D0242A125F80850ECA
:1037430082850F83A3A3A3A3A3A3A3A3E0125F79FB
:10375300123D08C0E012441AD0E0F0740D12128238
:10376300124B3F850E82850F8312679F2428F582B3
:10377300E43B126C1D123D111267B0120F98125CDC
:103783007AEA125F123B12795D120F797405120FF8
:10379300EA121F1B8E828F83A3A3A3A3A3E0D2E00D
:1037A300F07411121282E060030235567401121292
:1037B30082E0140235627900AA0CAB0D121E197453
:1037C3001F02684EE075F007A4F8A9F022A3A31224
:1037D3004B43E8228E828F83A3123E89740522E035
:1037E3001237EAA3A3A322F8A3E0F9850E82850F7B
:1037F30083A32274F0120B9374E8121012E985214B
:1038030082852283F08A0E8B0F8A828B83A3A3A3E4
:10381300A3A3A3A3A3E0F9121D718A088B09EA4BA2
:1038230070030238D3E50E1250D4123D31123CC856
:10383300852182852283E060030238D67C04850ECD
:1038430082850F83A3A3A3A3A3A3A3A3E0F9121DBC
:1038530077EE4F607B8E828F83A3A3A3A3123E8553
:1038630074071212821260B7123E85740912128213
:103873001249DCC0E07411121282D0E0126468A312
:10388300A3A3A3A3A3A3123E85740F121282126CE7
:103893001F7412121282E4126844C8241FF582E4D2
:1038A30038F583125C45C413135403FC70027C0483
:1038B3008E828F83E0F97808120F9C742059FD746F
:1038C3004059F97403120FEA121E0D7402120F7994
:1038D30002684C7C08850E82850F83A3A3A3A3A350
:1038E300A3A3A3E0F9121D778B0BEA4B70030238F5
:1038F30054EE4F60DB852182852283E0F50C780C42
:10390300120FA0850882850983A3A3A3A3A3A3A35E
:10391300E0F50C780C120FA08A828B83A3A3A3E09B
:10392300FB8A82850B8312747C8A82850B83E0FA7F
:103933008E828F83A3A3E0F91226537402120F79A8
:1039430002385874F7120B9374FA121012E9FE78C6
:103953000179017F00800379000F124CBBE0FCEF7B
:10396300C39C5026EF75F007A4FC85F008AD08EA68
:103973002CFCEB3DFD1242AAE0A2E050DA540C60AD
:10398300D6E0A2E250D3780080CF8A828B83A3A3B0
:10399300A3A3A3A3E0703DE9A2E0400574016E7008
:1039A300338A828B83A3A3A3A3A3A37401123C9A98
:1039B300E0C0E07403121282D0E0124309E0C0E0D9
:1039C3007404121282D0E0F07405121282E8125BC2
:1039D300E4121F517406024527C082C08379011285
:1039E3001E19025A2074F4120B93EA4B9016E460EA
:1039F30019E4F08A088B09F50AF50B7808120F947D
:103A03007A02122F0E120F79800A7401F07A027B68
:103A130000122EFB022FF674F0120B9374F31210A4
:103A2300127403121282E4F0A3F0901475123CC8CE
:103A33007401121282E4F0A31249B104F09014AF9E
:103A4300E0A2E35003023B0D123C8E740912128272
:103A53001212537409121282780812121C901477EE
:103A63007808120FFA7405121282780812122B12B8
:103A73003B91740512128278081211CF50077A0114
:103A83007B00023B7E7405121282780C12121C908A
:103A930016CCE0F509780C7908120B24A80CA90DB3
:103AA3009016CDE0C398E4995003E08001E88521A6
:103AB30082852283F07409121282780812121CC0C4
:103AC30008C009C00AC00B7405121282780C1212C6
:103AD3001C123B91780C7908120B24E4F50AF50BC0
:103AE300D00FD00ED00DD00C780C79081210E190C5
:103AF3001477780C12122B8011123B83126C1FEE79
:103B0300FAEFFB121759AE08AF09EE4F60658E82CC
:103B13008F83123181C398502DEE2403F8E43FF9CB
:103B2300E0FA88828983E0C39AF060237403121257
:103B330082123FEB7401121282EEF0A3EF1260D2F5
:103B4300FEA3E0FF80C48E828F83A3A3A3E4F08E41
:103B5300828F8312791674011212821251518E824E
:103B63008F83A3A3A3A360911260AB121282123BB3
:103B73008A80897403121282124B3F740D02684EBD
:103B8300123E8990147522125C70A3A3A32290168F
:103B9300CB12791EE4F50AF50B2274F0120B938A0B
:103BA300088B09890A78007900901475123CC8FBC8
:103BB300EE4B601E088E828F83A3A3A3A3124B092F
:103BC300601008E87001098E828F83123CC4EA4FAB
:103BD30070E39016CE124B3FC3E89AE99B40030271
:103BE3003C817A06123C84A80CA90DEA49700302B1
:103BF3003C818A828B83E508F0A3E509123CA3E5A7
:103C03000AF09016CD124CC3123C9AA3E4F0A3F031
:103C1300901475124B09600D8E828F83A3A3A3A307
:103C2300126C1F8017901475126C1F9014AFE0A2D2
:103C3300E34009123C8E9014771212539014AFE0B4
:103C4300A2E3503A7A087B0090145AE0F91217E97C
:103C5300EA4B4C4D70289016CBE0F508A3E085089D
:103C63000CF50DE4F50EF50F780C120F947A087B22
:103C73000090145AE0F91217DD7404120F790268E8
:103C8300517B001217538A0C8B0D221217FBEAF893
:103C9300EBF9ECFAEDFB22123C9E22123CA3A32289
:103CA300F08A828B83A3A322E508F002452AF08ED3
:103CB300828F83A3A3A3A3A3A3221255BBA3A3F021
:103CC30022A3A3A3A3E0FEA3E0FF227F05020D4BE3
:103CD300F582E43509F583E0F922EA123CE2222475
:103CE30010F582E422123CF0A3A3A3A322123E8D7B
:103CF30085088285098322123CFE22F0850A82858B
:103D03000B83A3A322E50E2411123D2EE022E50E20
:103D1300240E123D2E22E50E2410123D2EE0221217
:103D23003D2622EE123CE23FF58322F582E4350F75
:103D3300F58322240FF50AE43509F50B780A22E00E
:103D4300F91216DB8A088B09EA4B2274F2120B93E1
:103D5300890B8A088B098A828B83124B3F121E3D83
:103D6300EA4B600479B8806A121E49E9F8902CD5B1
:103D7300E493F9E8C399400479B280567A15123C6A
:103D830084AE0CAF0DEA4F7004791080458A828BA4
:103D930083E4F0A3123CA3E50BF0750A0078081244
:103DA3000F987C127D00EA240312675B120F79904F
:103DB300147B125151700890147B800C123E85883D
:103DC300828983123DD870F4EEF0A3EFF0121E5BEC
:103DD3007900024C2B124B43EA4B8882898322C021
:103DE30082C08390147B80048C828D8312747DEC5B
:103DF3004D60288C828D83A3A3E069600574FF69FD
:103E030070E68C828D83A3A3A3E06A7003A3E06BA7
:103E130070D6EC2403FAE43DFB80047A007B0002B5
:103E23005A2074F7120B93E9FD74FE6D70047C0144
:103E330080027C0090147B80096D70027C01888273
:103E43008983125151601F88828983A3A3A3E06AE7
:103E53007003A3E06B70E7ECA2E088828983A3A3DD
:103E6300E050D6F9800279FE02452AEEF9800CA3D0
:103E7300A312791EEE227402120F797F02020D4BF8
:103E8300F583123E8922123E8D22E0F8A3E0F92247
:103E9300123E8D8E828F8322120F797F03020D4B88
:103EA300C082C083790090147B800109E0FAA3E00B
:103EB3008A82F583E582458370F1025A2074F612F3
:103EC3000B93E4F508F5097808120F9C902CD5E4C0
:103ED3009375F013A4A9F0123FE0126C7D120F79D1
:103EE300E9FE74096E7003121E55023E6E74F612DB
:103EF3000B9374FE121012852182852283E4F0A3B2
:103F0300F0A821A922880889097808120F9C75084E
:103F1300027509007808120F9C1268EE120F7902DD
:103F23003E7974F5120B9374EB121012852182857E
:103F33002283E4F0A3F090147B80748E828F83A39A
:103F4300A3E0C0E07402121282D0E0125602A982EA
:103F5300AA8389088A09750A007808120F987C12C7
:103F63007D007406121282126C42120F79740212CF
:103F73000FE2880889097808120F9C7508137509E0
:103F8300007808120F9C74041212821250F475F018
:103F930013A4F8AAF075F013E9123FDC1268F612C5
:103FA3000F79852182852283123FEB8E828F8312C4
:103FB3003CC8EE4F7085A821A92288088909780892
:103FC300120F9C7508027509007808120F9C12687D
:103FD300EE120F797415023E9BA42AF9E82402FC21
:103FE300E439FD7A427B0022E02401F0A3E03400AF
:103FF300F02274F4120B9374EB1210127E007F0004
:10400300A821A922880889097808120F9C7508023B
:104013008E097808120F9C7C007D007A42126C890D
:10402300120F79E9706C8E0880567402120FE288C1
:104033000A890B780A120F9C750A13750B00780A0C
:10404300120F9CE50875F013A4F8AAF075F013E5B8
:1040530009123FDC126C8B120F79E9701B74031287
:104063001282AA82AB837402121282E0F9121E3703
:10407300E970050EEE70010F0508E50870020509E9
:10408300852182852283123E85C3E50898E5099937
:104093004098EEFAEFFB7415022FF374F6120B93AC
:1040A3008C828D83A3A31242F7F0EA125F183BF5CB
:1040B30083E0C0E01242B4D0E0F0EA241DF582E4CC
:1040C3003B123E831242981242F2F0A3F0EA241FFD
:1040D300F582E43BF583123CC8EC12428B3DF58339
:1040E300EEF0A3EFF01242913BF5831242C2A3A379
:1040F300A3A3A3A3EEF0A3EF125B73FE8C828D83C5
:1041030012430174035EFEC39403400302427EEE36
:10411300600874026E60030241A38C828D83E054B5
:104123000CFE740C6E70030241E2E0A2E4400D88C1
:10413300828983E08C828D83A312431774086E6097
:10414300030241E21242A27401F08A828B83A3A389
:10415300A3A3A31255C870148C828D83E0440C1260
:104163004309A3A31242C2EEF0A3EFF08C828D8326
:10417300E0A2E4402B88821242D01242E5500109AA
:10418300F5821242D0A3A3A3A3A3A3F0A3EF1243E8
:10419300118C828D83A3A3A3F0E82403F8500109B3
:1041A30088828983E0C0E0EC2411F582E43DF58345
:1041B300D0E01243018C828D83E0A2E750758882A0
:1041C3008983E0FE8C828D8312431774FC5E700C2E
:1041D3008C828D83A3E054036403701E02427E121B
:1041E30042A2E4F0740C6E600302414D88821242D5
:1041F300D61242E550010902416F8C828D83A3E000
:104203005403603288828983E0C0E0EC1242BC3DF3
:10421300F583D0E01243188C828D83E0540364024B
:10422300701488828983E0C0E01242AAD0E012436E
:10423300188003A3E4F0EC1250C03D126C1DEC2473
:1042430010FEE43DFFEA241DF582E43BF583E0F52F
:10425300088E828F83E0C3982508F508F0EA2417B7
:10426300F8E43BF98882F583E0C39508C0E0124285
:1042730098D0E0125B73C39508500A124298E4F099
:104283001242B4E4F0023E7E2415F582E422EA24CD
:104293000DF582E422EC240DF582E43DF58322EC56
:1042A3001252793DF58322EC2414F582E43DF58323
:1042B30022EC123CE23DF583222413F582E422E052
:1042C300FEA3E0FF8C828D83A3A3A3A3221242D675
:1042D300A3A3228983E0F508A3E0FFE5088C828D80
:1042E3008322A3A3A3A3F0A3EFF0E82402F82212EE
:1042F30042F7A322E4F08C828D83A3A3A32212436B
:104303001FA882A98322123C9EA3A3A3A322124324
:104313001FA3E022A312431F08A98322125B7CA3DD
:104323002274F4120B9374F31210128A0A8B0BEC9F
:10433300FEEDFF8C82F583E0540CF508E0A2E75014
:1043430006E508D2E7F508E508D2E1F5081255C8F5
:104353007006E508D2E4F508E0A2E55006E508D2C8
:10436300E5F5087C087D007900AA21AB221216B777
:104373007402121282E508126C23C0E07403121255
:1043830082D0E01249B1E50AF0A3E50BF0740512FF
:10439300128212648F121282E070777408121282F2
:1043A300124937125B65381264AAC0E0740812120E
:1043B30082124438D0E012648AC0E0740812128278
:1043C30012442ED0E0F07408121282124424E01238
:1043D300495F1249E0125F79EE2411125594C0E04F
:1043E30012441AD0E0F0EE2414125594C0E074087D
:1043F3001212821249372435F582E438F583D0E06E
:10440300124984C0E0740812128212493BD0E012B0
:1044130061E3740D022FF3E82432F582E439F58366
:1044230022123E93A3A3A3A3A3A32212494B126672
:104433008938F5832212494B2426F582E438F58323
:104443002274F7120B937E008A828B83A3A3A3A308
:10445300A3A3A3A3A3E0640460030245061252715D
:10446300E060030245061250D33B12514F70030222
:10447300450688828983E054036003024506E812F7
:10448300527939F583E0FA8C828D83A3A3E0FBA3F1
:10449300E0CB2411F582E43BF583E06A7065888202
:1044A3008983A3A3A3A3A3A3A3A3A312450AE06A97
:1044B3007003A3E06B704C88828983A3A312451613
:1044C300E0FFA3E0CF24061255946A7003A3E06BC8
:1044D300703188828983A3A3E0F88C828D83A3A3A0
:1044E300E0F9A3E0F5838982A3A3E06860138C82DB
:1044F3008D83A3A3A3E0F5838982E0540C64047045
:10450300027E01EEF9802012450E22124B478C8267
:104513008D8322A3A312450EA3A322740C1212822D
:10452300E0F9740D120F797F01020D4B74F6120B33
:104533009374FC121012EAFEEBFFECFAEDFB8C8293
:10454300F583A3E05403601690147112515160591E
:104553007900EEFCEFFD125D70122679804B852108
:1045630082852283EEF0A3EFF074021212821249C5
:10457300A6AC21AD227A737B1E12209B8A088B097D
:10458300A808A909EA4960218A828B83A3A3A3A36C
:10459300A3A3A3A3A37406F07A0088828B83124992
:1045A30037125F39E0F9121FF97404023E7B74F28B
:1045B300120B9374F3121012EAFEEBFF8A82F58357
:1045C300A3A3A3A3A3A3A3A3A3A3E0F50A9016E421
:1045D300E0700579BA0248EF750801750900750C9A
:1045E30000750D007C087D007900AA21AB2212160C
:1045F300B7740512128274011249B954046012741B
:1046030002121282E0D2E61249B954087003750807
:1046130003E05410600674404508F508E054086050
:10462300227402121282E044C01249B95420600A73
:104633007403121282E0D2E080087403121282E043
:10464300D2E1F0EE241512559412491F7003740140
:1046530069700674084508F5088E828F83A3A3A3A7
:10466300A3A3A3A3A3E070161220F58521828522BC
:1046730083125F867402121282E0D2E28030640FEA
:10468300701074021212821249C174044508F508AD
:10469300807F8E828F83A3A3A3A3A3A3A3A3E0649A
:1046A300028E828F83700A126C56E8F0A3E9F080C1
:1046B30060A3A3A3A3A3A3A3A3E06403700DAC21EE
:1046C300AD22EEFAEFFB121EA980468E828F83A3E2
:1046D300A3A3A3A3A3A3A3E064017035901505E0EE
:1046E300601074021212821249C1750910750AFF13
:1046F30080187402121282E0440C1249B174FDF066
:10470300A374FFF074044508F5088E828F83122F7B
:1047130006EE2415125594A2E0503F740212128241
:10472300E0540C701B8E828F83124B3F121B19E9CE
:10473300700579BB0248EF7402121282E0D2E5F0F1
:10474300EE2415125594A2E050107402121282E066
:10475300540C64047004E0D2E5F0EE241112559475
:10476300C0E07404121282D0E0126491121282E04B
:1047730060030248E8740812128212497AE508F0CD
:10478300A3E509F0124915E0C0E012490BD0E0F0AF
:104793001248FCE0C0E07408121282124937124238
:1047A300BC38F583D0E01249E0640170119015051F
:1047B300E0C0E07408121282124955D0E0F0740888
:1047C300121282124975124906FAE8241CF582E492
:1047D30039F583EA1249ACEE2415FAE43FFB8A82E9
:1047E300F58312747DE81258D039F5831249A6EE89
:1047F300241C125594C0E01248F2D0E0125A16124B
:10480300491F7003740169701374081212821252E3
:1048130061FAEE241D125594F9121D7D8E828F8349
:10482300A3A3A3A3A3A3A3A3A3E0C0E074081212AA
:1048330082124438D0E0F0740812128212442EE53A
:104843000AF074081212821250F42428F582E43913
:10485300F583E50CF0A3E50D12498C12495F12565E
:104863000D125F79EE124906C0E0E82433F582E4C5
:1048730039F583D0E0F0EE241B125594C0E07408A0
:1048830012128212493BD0E0F0EE241A125594C062
:10489300E074081212821249372432F582E438F5A3
:1048A30083D0E012498412492B120F9812668F129B
:1048B300747D740B121282124937242F1279591204
:1048C3000F79EE24151255945440601290149112EE
:1048D3005151600AAA21AB22125D70122679AA21D6
:1048E300AB22121F1B740C121282E0F9024C26E851
:1048F3002420F582E439F58322EE2419F582E43F7E
:10490300F5832212669EE022E82412F582E439F54B
:104913008322EE2418F582E43FF583225480F8A322
:10492300E05401F974806822F508A3E0F509750ADB
:104933000078082212494B2212494B2434F582E4B1
:1049430038F58322A3A3A3A312494F22E0F8A3E0DF
:10495300C82212494B12428B38F58322FAA3E0FB9B
:10496300E8242AF582E439F583EAF0A3EB22A3A332
:10497300A3A3123E89EE221250F81250D839F583C0
:1049830022F0EE241312561522F0EE240D125615C2
:1049930022E0FC8A828B83E02CFCA3E03400FD8AB6
:1049A300828B83ECF0A3EDF022F0A3E4F022F085F8
:1049B300218285228322F0EE241512561522E0D29D
:1049C300E3F01249C9228E828F83123E8D852182A4
:1049D300852283E8F0A3E9F022E8F0A3E91260CC92
:1049E300E02274F7120B938A828B83A3E064017035
:1049F300047E6380027E648A828B83E0600879058B
:104A0300124A1924F3FE9014ADE06007F9124A1913
:104A130024F2FE024506121FC3E9F8EEC39822747E
:104A2300F6120B9374FE12101285218285228312D3
:104A33005F86E9FEECFAEDFB9005341251516032CA
:104A4300A821A922880889097808120F9C7D01747E
:104A53000E121282E0FCEEF9900534125F5A122610
:104A6300797402120F79EA4B60047900800679B2F7
:104A7300800279B6023E7974F7120B93E9FE901423
:104A830067125151601F7409121282E0F508780809
:104A9300120FA0EEF9901467125F5A12267974016F
:104AA300120F79800279B602452A74F7120B9389A3
:104AB30008ECFEEDFF79B5E508245E60201460067E
:104AC30024F86034803D900536124B096035126C32
:104AD3009A1226798E828F83125F868024901469BE
:104AE30012747DEC4D601CEEFCEFFD901469125FB7
:104AF3005A122679E9F9800B901465124B0F12189C
:104B030013790002452A124B43EA4B22127481EEB9
:104B1300FAEFFB2274F7120B93E9FE79B574AB6ECF
:104B2300700B901465124B3F121813790002452A3B
:104B33008E828F83A3A3A3A3A3A3A3A3124B432276
:104B4300124B4722E0FAA3E0FB2274F1120B93EA23
:104B5300FEEBFF8C0A8D0B7508019014B5E06E70A7
:104B630003A3E06F700C124C1AAA0AAB0B121813B2
:104B7300805E1220FBEE6A7002EF6B7009AA0AAB2B
:104B83000B122101804AAC0AAD0BEEFAEFFB121CAB
:104B930051E9F5089016D3E0703612259FE970307D
:104BA300E508702C901485E06E7003A3E06F70200D
:104BB300EE4F601C750C7D750D14750E00780C128C
:104BC3000F987C087D00AA0AAB0B126C46120F7972
:104BD300A90802757974F2120B93EAFEEBFF8C08B5
:104BE3008D09750A01124C1AEEFAEFFB12180DE942
:104BF300640170119014B5123E858508828509837E
:104C0300126C1F800EAC08AD09EEFAEFFB121C57B5
:104C1300E9F50AA90A80111220EF8A0C8B0DAC0C5E
:104C2300AD0D22740D120F797F06020D4B74F6122F
:104C33000B93EAFEEBFF7A0D7B00121753EA4B60EE
:104C430062EE2424126923F0EE2425126923A312B1
:104C53004CE8126929A3A31266BC124CC3F0EE12EE
:104C63004CA9124CD8E8F0A3E9124CFF124CD01215
:104C73006C1FEE124CB212677FA3A3A3A3F0EE2422
:104C830033125594C0E0124CBBD0E01264AE124C08
:104C9300D0A3A3A3E8F0A3E9124CF7C0E01252712A
:104CA300D0E0F0023E7E242AF582E43FF5832224FD
:104CB3002EF582E43FF58322EA1256EA3BF583227E
:104CC300124CC722E08A828B83A3A3A3221267DE3E
:104CD300A3A3A3A322124CDC22123E8D8A828B83D0
:104CE300A3A3A3A322F0124CED22EE2426F582E423
:104CF3003FF58322F0EE243212561522F0EE242CD7
:104D03001256152274F4120B9374FE121012ECFE59
:104D1300EDFFEC241612559464057010EC2406FC88
:104D2300E43FFD121EA3E97003024DB3AC21AD2293
:104D33001269D8121B1F852182852283125151606B
:104D43006B8E828F83E064017058E875F009A4F8D4
:104D5300AAF075F009E9A42AF974DE28F874013978
:104D6300F9E8FAE9FB8882F583780812121CEE123F
:104D73004E551211CF402785218285228312497512
:104D83001255A2124DB8780812121C90861A780890
:104D93001210F58A828B83780812122B800A79A26B
:104DA3008010EE240F126C197900800679A180021D
:104DB30079C8022FF11249D6EE1266AA2274F212B2
:104DC3000B938A0C8B0DECFEEDFFEC1255A2E4F075
:104DD300A3F0908626780812121CEC124E5512107E
:104DE3003E6067EC240E12559B703478B39014AC7C
:104DF300E070289014DEE064017020EC2411125559
:104E030094F9121FAB8B09A909EE1250D43F125F1C
:104E130084EA4960047800800278A18808802EE043
:104E230060046402700A121EB5E9F5087007801D5C
:104E3300E064037010EEFCEFFDAA0CAB0D121B43F4
:104E4300E9F50880087508A180037508A3A908027D
:104E53004C2B1266AA78082274F0120B9374F51285
:104E63001012EAFEEBFFEA240AFCE43F8C82F5838E
:104E730012791A1250DE7403120FF28A828B831294
:104E83005D7AE97003024F447401120FF274031246
:104E93000FEA121B1F740112128212515170030286
:104EA3004F44E875F009A4F8AAF075F009E9A42ABB
:104EB300F974DA28FC740139FDE508240E1261CB7C
:104EC300E4F004121282123E85E5081250D435092B
:104ED300126C1D8C828D8312125FE50824121261FD
:104EE300CB12125390861A780812121C8C828D836F
:104EF30078081211678C828D83780C12121C9086AD
:104F03002A780812121C780C7908120B24E508453C
:104F130009450A450B702A74011212821250F47566
:104F2300F009A4F8AAF075F009E9A42AF974E228B3
:104F3300F582740139F5837401F07A007B0812510C
:104F4300018E828F83A3A3A3A3A3A3A3A3A3A3E0FD
:104F53002406FCA3E03400FD8E828F83125D7A1257
:104F6300649C603EEE240A1250C612497A74681299
:104F730049ACE81250C039F5837402F090149712CB
:104F8300125F8C828D83125F73125B653CF5831213
:104F9300125390861A780812121C901497780812EC
:104FA300116712513C705D9014651250ECA3A3A3DA
:104FB300A3A3A3A3A3A3A3125B9B12180DE97010D1
:104FC300125B59901465125B6B700512649C60341C
:104FD3008E828F83A3A3A3A3A3A3A3A3A3A31250EC
:104FE300EC124B3F121B49E960118E828F83A3A3FE
:104FF300A3A3A3A3125128E4F0A3F08E828F8312FC
:10500300510EE4F012513C60030250BB8E828F8339
:10501300A3A3A3A3A3A31279169014ACE060030285
:1050230050B09014DEE0640160030250B0750A3A98
:10503300750B00780A120F9C7402120FE2880A891A
:105043000B780A120F9C126F15120F79E9705BE54A
:1050530008240E1261CB7401125156C0E0E50824F6
:10506300111261CBD0E0F0E508240F1261CB743A42
:105073001249AC90149312125FE50824121261CB0B
:1050830012125390861A780812121C9014937808FF
:1050930012116790861A780812121C9014937808DC
:1050A30012103E70081250FD80031250DE12513C64
:1050B3007006125A5C74A1F0740B02684E240EF54C
:1050C30082E422F8E43FF9E8FCE9FD8882F58322D3
:1050D300EA1250D822240FF582E422E5081250D8B0
:1050E3003509F583E4F0A3F0221274818E828F8355
:1050F300221250F822123E8DE8227A007B0290138E
:105103003EE0F91216FF228A828B83A3A3A3A3A3F3
:10511300A3A3A3A3A312511C2212494F240EF58269
:10512300E438F58322A3A3A3A31251302212494FDB
:10513300240FF582E438F583228E828F83A3A3A301
:10514300A3A3A3124947240FF582E438F583125031
:10515300F8492212515A22F0852182852283E022C6
:1051630074F6120B93EAFEEBFF7A237B00121753BC
:10517300EE240AF508E43FF509850882125F847C72
:10518300237D0079001216B78508828509831251A1
:10519300517003025224EEFAEFFB121EC112513C6E
:1051A30060748E828F8312525764018E828F83A321
:1051B300A3A3A3A3A3700712524D740E802112510F
:1051C30051701012649C700B8E828F83A3A3E0A294
:1051D300E05007125243740D8005125243740512B6
:1051E30064AE54036401700712522B7405800B9054
:1051F30014ADE0C0E012522BD0E0125266F5838862
:10520300821255C1850882850983124937125F18B6
:1052130038F583E9800E850882850983125FFD8056
:1052230003125F40F0023E7E8E828F83A3A3A3A36B
:10523300A3A3A3A3A3A312523D22E0125F5FA32261
:105243008E828F83A3A3A3A3A3A3124947125F1E36
:1052530038F58322A3A3A3A3A3A3A3A3A3A31251B8
:105263001CE02212526A221269EDF8A3E022EA122C
:1052730052793BF58322240CF582E42274F1120B5C
:105283009374E41210128A0C8B0D8C088D097A2307
:105293007B001217538A0A8B0BAE0AAF0BEA4F70CF
:1052A3000302557C125F24E50824151255AD68707E
:1052B30003A3E0698E828F837004740280027401F9
:1052C300F0E508240DF8E43509F98882F583E0FA5E
:1052D300C3E49AFA95E0FB1255A92AFAA3E03BFB33
:1052E3008E828F83A3A3A3A3125B828E828F83A359
:1052F300A3F0EE2420F582E43FF583E4F0EE2421CD
:10530300F582E43FF583E4F0EEFAEFFB121F7585B7
:1053130008828509831255C870098E828F83A3740E
:105323000580069014AD1255B6F0EE2417F50AE485
:105333003FF50B8E828F831255C1E9850A82850B57
:1053430083F0EE2416F8E43FF9E508240EFAE43579
:1053530009FB88828983124994E5082410FAE4350D
:1053630009FB850A82850B83E0FC88828983E0F848
:105373008A828B83E0C398C39CF8125602F0EEFC3A
:10538300EFFDAA0CAB0D121EBBE9F50B8E828F83CA
:10539300E064027006125B59125586E50B60030246
:1053A3005573750C00750D009016D3E0640160050C
:1053B300E06402703F1255986008EE242112559B59
:1053C30070328E828F83A3A3A3125F461255CEEE53
:1053D30024161255941255F7FAE439FB123C86EA67
:1053E3004B60111267A8120F981255DCAA0C126CAD
:1053F30046120F79EEFAEFFB121F81E9F50B9016B7
:10540300D3E064016008E064026003025566E9705A
:1054130003025566E50C450D700302557380038541
:105423000E0B125598600BEE242112559B6003025C
:10543300556C850B0E850C08850D09750A007808D7
:10544300120F981255DC8E828F83A3A3A3A3127924
:105453005F120F79EE2420125594600D1255A1743A
:10546300681249ACEE24208015EE24211255946075
:10547300151255A17403F0A37401F0EE2421F582F3
:10548300E43FF583E4F0EEFAEFFB121F81E9F50B3D
:1054930070907C137D0079007409120FEA1216B71D
:1054A300741A121282740112560D64687002A3E01A
:1054B300704F8E828F83125128E06405600302547B
:1054C300227C0879FF8E828F83A3A3A3A3E0242ADF
:1054D300125B9E121735E970030254227C087D008B
:1054E30079FF7401120FEA1216B77401120FF27AE0
:1054F300007B0079AB121E9D741912128274FC801A
:10550300151255A1E064037004A3E06401700874EC
:105513001912128274FFF0E4F508F5097808120FE6
:105523009C7402120FF27413121282AA82AB8312BA
:105533006083120F79852182852283E0602B7409B1
:10554300120FE2880889097808120F9C75081375F1
:1055530009007808120F9C7C007D001268F6120F78
:10556300798006E50C450D6007AA0CAB0D1217599F
:10557300EEFAEFFB1217598003750B10A90B741C7D
:10558300027576EE2406FAE43FFB12181322EE248A
:105593000C12561522EE2420125615640122EE1227
:1055A30050D83FF58322E508240EF582E43509F54A
:1055B30083E0221255BBA322E08E828F8322A3E0D5
:1055C300F9121FC322E054036401221255D222E0D0
:1055D300FAE82AF8E43400F9228E828F83A3A3A386
:1055E300125F4A1255D2EE24161256151255F7FCC5
:1055F300E439FD22FAE82AF8E439F9E8240422120E
:105603005606221264BDA3A3A322F012561222EE61
:10561300240FF582E43FF583E0227901020F297418
:10562300F4120B93EAFEEBFF8A82F583A3A3A3A3F1
:10563300A3A3A3A31249372424F582E438F58312E4
:1056430055C8702E8A828B8312525770251256F0DA
:10565300E06405701D1256F0A3E0F874016860055C
:10566300740668700712510A7402800512510A7495
:1056730003F0EA240A125FF1125F5AE4F0EA240805
:10568300F8E43F122FE02431F582E43AF583E0C0D9
:10569300E0126C91A3A3D0E012570FCA242EF58217
:1056A300E43AF583E0C0E0126C91A3A3A3D0E01227
:1056B3005C35C81256EA38123E83126C91125704B5
:1056C3008A0A8B0BAC0AAD0B850882850983125BB2
:1056D3009B121813850882850983124B3F121F8181
:1056E300125FECF0022FF6240BF582E4228A828B00
:1056F30083A3A3A3A3A3A3A3A3126483F583888291
:1057030022A3A3A3A31249D61220EF22125B77FA96
:10571300A3E02202561DC082C08390148774C7F091
:10572300A3741EF090148974D3F0A3741EF0901424
:105733008B74D9F0A3741EF090148D74CDF0A37400
:105743001EF0025A2074F4120B93EA2408FEE43B81
:10575300FF8E82F5831250F4125F30E0F508740374
:105763005508F509125B96F8A3E08882F583E508EE
:10577300F0A3A882A983E50960097402650960039F
:10578300025835740C5508FC600A74086C60057483
:10579300046C7026740265097006E508A2E4401AD9
:1057A3008A828B83A3A3A3A3A3A3A3A312593B120C
:1057B30066893D1258D6A308A983740C6C701C1219
:1057C300593724281259232428F582E43DF583A36D
:1057D3001262B7F0E82402F85001097402650970F7
:1057E30006E508A2E4404B125937242A1259232410
:1057F3002AF582E43DF583A31258E512594112625A
:10580300B7125941A31258DDE82404F8500109ECFA
:10581300600F74086C600A740C6C600574046C701F
:1058230011125F672426F582E43C1258D6A3A8829E
:10583300A9838A828B83A3A3A3A3A3A3A3A312599C
:105843000554037014E508A2E1400E125F67125875
:10585300D03CF583E0548060081258EB1258D8808E
:105863001990145BE0C0E01258EBD0E0125918888D
:1058730082898312591804125B7CA3A882A983E549
:1058830008A2E750458E828F831259058882898347
:1058930012591E12590A54036030125F672434F5FB
:1058A30082E43C1262B5F0E508A2E1501D8A828BC6
:1058B30083A3A3A3A3A3A3A3A3122FE52435F58254
:1058C300E43A1262B5A3F0E82403022FF6241EF58E
:1058D30082E422F5831258E5F0221258E5A3A3A32C
:1058E300F022E088828983228A828B83A3A3A3A3E5
:1058F300A3A3A3A3E0FCA3E0CC2432F582E43CF50C
:105903008322E012590A22FCA3E0CC2425F582E489
:105913003CF583E022F090145BE0221264B9E022AC
:10592300F582E43DF5831258E5125930221264BD25
:1059330012593B228E828F83E0FDA3E0CD22A31276
:105943005930242CF582E43DF58322C082C0838A3A
:10595300828B83125A10FC74035CF98A828B83A3B3
:10596300A37401F0E960057402697061740C5CF85A
:10597300600A7408686005740468701374026970BF
:1059830005ECA2E440098A828B83A3A37402F0741A
:105993000C68700A8A828B83A3A3E02402F074024A
:1059A300697005ECA2E440258A828B83A3A3E024DB
:1059B30004F0E8600F740868600A740C686005748A
:1059C300046870098A828B83A3A3E004F0ECA2E746
:1059D300502A8A828B83A3A3E004125A161234EF4F
:1059E300E0540360178A828B83A3A3E004F0ECA244
:1059F300E150098A828B83A3A3E004F08A828B831C
:105A0300A3A3E004F0801685218285228312523DF0
:105A1300A3E022F08A828B83E022120F79D083D015
:105A230082020F29C082C0838A828B83A3A3A3A38C
:105A3300A3A3A3A3A3A312515160098A828B83A3B7
:105A4300A3125A4980D7A3A3A3A3A3A3A3A3125A20
:105A53005522124B4712175922125A6022EE240C78
:105A6300F582E43FF5832274F6120B9374F412105B
:105A730012125BA5FCA3E0F5838C82A3E0C0E07463
:105A830002121282D0E0125C53125C3C74041212B4
:105A930082126C1F7402121282E064047014125B8F
:105AA300BB2412125B9E7406121282125B82241AAA
:105AB3008035E064016005E064067039EA2402F889
:105AC300E43B122FE0125B653AF583E0C0E0740318
:105AD300121282D0E0125B732413125B9E740612BF
:105AE3001282125B82241B125C3C7408121282E83D
:105AF300F0A3E9802B7406121282E4F0A3125BB6C2
:105B03002412125B9E7408121282125B8FC8241A2D
:105B1300F582E438F583E0C0E0740A121282D0E023
:105B2300F07406121282125151601F74061212820F
:105B3300124B3F121C45E96401700F125B59740646
