:020000040000FA
:0600000002119C0207C280
:03002B00020F10B1
:03003300020DFDBE
:030053000206F1B1
:10008300020753010100F0FF0700080000FFFF0013
:10009300000504000000030001FFFFFFFF0005301F
:1000A3007500000020FD000206FFFF1E050A002860
:1000B300005D1A00000000000000000000000000C6
:1000C30000210016004B0023001E00000000000169
:1000D3000000AFFF0104010C0002011A87041F8610
:1000E300010400003D13000000E8030000FFFF8E41
:1000F300130188130000E803000064006400B801E2
:10010300A0BB0D00A0BB0D00020202070401051EE7
:1001130002051E020A0A010108080103B80B028046
:100123003E0102FEFFE8030A050001FFFF020A0188
:100133001401E002000000050301010F03000300A6
:100143000300030003000300030003000300050092
:100153000A00140028004F009E000000BB2C000082
:1001630000008F2B00000000FF000000FF001211B1
:10017300E8601D1211CA7005191919801A1210743A
:10018300701F121088C37003E667331919194007EB
:100193001818182208080874FFF618F618F618F647
:1001A300221210886017121268702192F0121256F0
:1001B3007019501720F014080808090909E7F61800
:1001C30019E7F61819E7F61819E7F622121256601E
:1001D300E6E869701F0808E62480F608E436F61896
:1001E300547FB47F0CE654806007F6E418F618F6E3
:1001F30022181822E9C6CC08C6CD08C6CE08C6CF39
:10020300C0E0E8C0E0EAC0E0EBC0E009E9F809E7D4
:10021300FA09E7FBE6F918E6F8C3EC98ED99EE9ACC
:10022300EBC2E7F5F0EFC2E795F0500E600CEBCFB1
:10023300FBEACEFAE9CDF9E8CCF8EAA2E7D2E7FA8D
:10024300EB33FB13F5F0EEA2E7D2E7FEEF33FFC586
:10025300F013A2E730E601B313C5F0C3C0E0C0F06A
:100263007F00C39BFB605E9418600F401D14601AEF
:10027300D0E023F9D0E0F80203528AF0E9486003A2
:10028300D2F0E4AFF0FAF9F8803BEB30E40D89F0FB
:10029300EA6003D2F0E4AFF0F9CAF8EB30E30D887B
:1002A300F0EF6002D2F0AFF0E4CAC9F8EB54076094
:1002B30014FBC3EA13FAE913F9E813F8EF13500236
:1002C300D2E0FFDBEDD0E0C0E030E739C3E49FFFCD
:1002D300F5F0EC98FC42F0ED99FD42F0EE9AFE4207
:1002E300F0D0E0F9D0E0F8E5F0607AE923F9EE2008
:1002F300E742D8028067C3EF33FFEC33FCED33FDF5
:10030300EE33FE80EAEC28FCED39FDEE3AFED0E058
:1003130023F9D0E0F84002801BC3EE13FEED13FD7A
:10032300EC13FCEF135002D2E0FF08B800067F7F06
:1003330074FF802EEF3350178CF020F00260100C06
:10034300BC000C0DBD00080EBE000408E860DFE928
:1003530033E813FFEE2313FE4F4D4C8008E954801E
:10036300FFE4FEFDFCEE33EF33F47004FCFD7E800E
:10037300D0E0FBD0E0FAD0E0F8D0E0CFC618CEC68C
:1003830018CDC618CCC6F9221211E8700418181833
:10039300221211CA700D74FFF61819F61819F618FF
:1003A30019F622E7548066F6121256700F1212687D
:1003B30070F014F608F608F608F680D11212687089
:1003C3000CF608F608768008E6447F80EC12108B62
:1003D300700C12107760BFE65480F6E480BB1210F5
:1003E30077700519191980A5E869700C763F18769E
:1003F3008018F618F6E8F922E6CDC0E018ECC0E064
:10040300E633CD33CDD313F6E719FCE7191933CC13
:1004130033C3947F400ECD9D502408E65480F6E408
:1004230018F6800FF4043D14501408E6447FF618C0
:100433007680E418F618F6D0E0FCD0E0FD22CCD3A9
:1004430013CCFD18E4C6CBC0E018E4C6CAC0E0086C
:1004530008ED08C633E613F618E433C675F003C394
:10046300CA97CA09CB97CB199C40047D08802EBD3F
:10047300000302053416B6FF050606081618C3CA9C
:1004830033CACB33CB33CA27CA09CB37CB193CC3C7
:100493007D08803E187D0820E75CC633C6CA33CA90
:1004A300CB33CB33DDF1D5F0EB30E77BCA97CA0909
:1004B300CB974ACB199C406F4B7025E620E02180F7
:1004C30066187D08C3CA97CA09CB97CB199CD3C6B4
:1004D30033C6CA33CACB33CB3350C9DDE7D5F0E1DA
:1004E300D3E4C636C608C636C608C636C608C636F8
:1004F300C61818188031C3CA97CA09CB97CB199C61
:10050300B34097C633C6CA33CACB33CB33DD34D5F6
:10051300F02EC6A2E0C640C8CA27CA09CB37194A7B
:1005230070BECB3CB480B90808E63308E633601FDD
:10053300181818D0E0FAD0E0FBD0E0FCD0E0FD22A0
:10054300187D08CA27CA09CB37CB193CD38080133F
:10055300F618E4B67F11F618B6FF0EF618C6047047
:10056300D20808768080CAF618F618F680C50012FD
:1005730011E8604F1211CA6012E7548066F6121038
:10058300747011121268703B090909F4F618F61811
:10059300F618F62212108870151212560808086011
:1005A300EAE6447FF618768018E4F618F62212126B
:1005B3005660161212687012E4F608F608F608E69A
:1005C3005480F609090918181822EAC0E0EBC0E0C4
:1005D300ECC0E0EDC0E0E687F0A4FBACF008E687F2
:1005E300F0A42CFCE435F0FA1809E687F0A42C4BB0
:1005F30060027401CA35F0FCE433FB09E687F0D2EC
:10060300F7A42CCB35F0FC1908E687F0A42BCC35E6
:10061300F0FBE433FD0819E687F0D2E7A42C4ACBBC
:1006230035F0CD3400FC09E687F0D2E7A42DCC35B4
:10063300F0FDE433FA0918E687F0D2F7A42CCD35A0
:10064300F0CA3400FC08E687F0D2E7D2F7A42ACC3C
:1006530035F07A7E20E70B0ACB33CBCD33CDCC33C9
:10066300CC33CB3350147004ED30E00ED2F1E4CD33
:100673003DCDCC3CCC3B5005DA05C2F1EB547FC6F3
:100683003308E63392F0FBE73309E733C39A502D7F
:100693002B70190C0D4C4D70151806E608C33370FA
:1006A3000D20F10AA2F013F6E418800B4024E4F6BF
:1006B30030F002768018F618F618F68024D33B142F
:1006C300501074FFA2F013F6187680E418F618F6AB
:1006D300800FA2F013F618E63303F618ECF618EDC4
:1006E300F6D0E0FDD0E0FCD0E0FBD0E0FA22C0E0A1
:1006F30074F1120B53A2AFE433F509D2AF85A70807
:10070300AFA1EF5508FE74105E60061214CF75A1F9
:10071300EF74085E60081214D575A1F78024EFA268
:10072300E092F0E508A2E082F05017906198E0F8BB
:100733009005A6E0C398A2D265D0335002E8F075C5
:10074300A1FE752300E509A2E092AF7F02020BB27E
:10075300C0E074F2120B53A2AFE433FED2AF906148
:10076300A4E0F8759B00E59158540860087591F76B
:100773001215238023E59158541060087591EF12E8
:1007830015298014E591A2E092F0E8A2E082F050EE
:1007930007E0C2E0F012167F9061A3E0F8E5E958A4
:1007A3005404600E12165575E9FB906193E0A2E6BE
:1007B30040F2752300EEA2E092AF7F01020BB2C0BC
:1007C300E074F2120B53A2AFE433FED2AF9061A5F3
:1007D300E0F8E5BF585404600675BFFB1216978016
:1007E300D112082F30F039120874803412082F20E8
:1007F300F01430E72B74FFFCFBFA747F8022E4FCD7
:10080300FBFA7480801AB48008BC00F2BB00EF804E
:100813000F50EBF9E4C39AFAE49BFBE49CFCE499E4
:10082300C6CC18C6CB18C6CA18C6F922E4C9C6086E
:10083300CAC608CBC6D3330308CCC63392F0C394DD
:100843007F402E94184019C9B90704CACBCC225053
:1008530025C309CA33CACB33CBCC33CC33D9F42227
:10086300F4600DC9CCC313CB13CBCA13CAD9F6CCCE
:1008730022E4FCFBFA2214FCFBFA22C3E498F8E41A
:1008830099F91208BF8026C3E49AFAE49BFBE92096
:10089300E7E91208BFE498F8E499F922C3E498F869
:1008A300E499F91208BFE498F8E499F9C3E49AFAD1
:1008B300E49BFB22EB20E7CFE920E7E0B90010BB84
:1008C3000008E88AF084F8AAF022E4FBC8FA22EBD5
:1008D30070227B10C833C8C933C9335007C39AC3C6
:1008E300DBF280069A50012ADBEAC833F4C8C93325
:1008F300F4C9FA2275F008E4C833C8C933C933C947
:100903009AC99B5004C92AC93BD5F0ECFBC833F400
:10091300C8E4C9FA22080808EAC0E0EBC0E086F0A0
:10092300E7A4FA180986F0E7A42AFA180986F0E77B
:10093300A42AFA180986F0E7A42AFA1986F0E7A48C
:10094300FBE5F02AFA190886F0E7A42BFBE5F03A59
:10095300FA190886F0E7A42BFBE5F03AFA18180910
:1009630086F0E7A4C5F02BFBE43AFA1908E7C5F0D3
:10097300C6A426F6E5F03BFBE43AFA1886F0E7A4B2
:10098300F6E5F00826F6E43B08F6E43A08F6D0E08C
:10099300FBD0E0FA22080808E630E71112104C12E7
:1009A30009B0080808C64480C61818182218181871
:1009B300E9799EC608CAC608CBC608CCC6C3702050
:1009C3007996CACBCC7019798ECBCC70137986CC3F
:1009D300700EF9802ACA33CACB33CBCC33CC33194C
:1009E30030E7F2CCCBCA3350147004EA30E00DE4A4
:1009F300CA3ACACB3BCBCC3CCC500209C3E913C6A1
:100A0300CC182313C6CB18C6CA18C6F922E4CFC024
:100A1300E0E4CEC0E0E4CDC0E0E4CCC0E075F0207B
:100A2300E626F608E633F608E633F608E633F61864
:100A33001818EC33FCED33FDEE33FEEF33FFC3EC5C
:100A43009709ED9709EE9709EF97191919400FFFC9
:100A5300EC97FC09ED97FD09EE97FE191906D5F001
:100A6300BFECF709EDF709EEF709EFF7191919D0FC
:100A7300E0FCD0E0FDD0E0FED0E0FF222521C582DE
:100A8300C0E0E52234FFC583C0E0E521C39582249D
:100A9300F810AF088583228582218008858322850B
:100AA3008221D2AFCEF0A3E520F0A37808E608F0C8
:100AB300A3DEFAEFF0A3E58124FAF8E608F0A3E653
:100AC30008F0A3E608F0A30808E608F0A3E608F098
:100AD300A315811581D0E0FED0E0F81581158115AD
:100AE30081E8C0E0EEC0E022121241B90003020B1C
:100AF3003DE4900501782979128002F0A3D8FCD94E
:100B0300FA78239000867A01BA00028007E493A35F
:100B1300F608DAF97A297B1690008778EB79018059
:100B230015E493A3AD82AE838A828B83F0A3AA825A
:100B3300AB838D828E83D8E9D9E77582A47583CB85
:100B43007404120EF27582A97583287400120EF2D2
:100B5300C0D02521C582C0E0E52234FFC583C0E0B3
:100B6300E521C3958224F310AF0885832285822172
:100B73008008858322858221D2AFC8F0A3E9F0A340
:100B8300EAF0A3EBF0A37908E709F0A3D8FAECF0B5
:100B9300A3EDF0A3EEF0A3EFF0A3D0E0F0A3D0E039
:100BA300F0A3D0E0F0A3E520F0A3E5F0F0A32285C5
:100BB3002283852182E0C0E0A3E0F9A3E0FAA3E069
:100BC300FBA37808E0F608A3DFFAE0FCA3E0FDA3AB
:100BD300E0FEA3E0FFA3E0C0E0A3E0C0E0A3E0F5F4
:100BE300D0A3E0F520A3E0A3F5F010AF088583229E
:100BF3008582218008858322858221D2AFD082D04D
:100C030083D0E0F8D0E032E47375F0108E248F25A2
:100C1300858229858328852182852283E0CEA3E0EE
:100C2300CF852982852883EBC9EAC8EDCBECCAC3FB
:100C3300E833C8E933C9EA33CAEB33CBC3EA9EF5D9
:100C430027EB9FF526B35004AB26AA27EC33CCED54
:100C530033CDD5F0DAAE24AF2522D083D082ECC0D9
:100C6300E0EDC0E0E493A3FCE493A3FDED4C600D41
:100C7300120D35EC24FFFCED34FFFD80EFE493A36C
:100C8300FCE493A3FDED4C600D120DD2EC24FFFCAC
:100C9300ED34FFFD80EFD0E0FDD0E0FCE493A3C092
:100CA300E0E493C0E022852283852182E0A3FEE075
:100CB300A3F5207808E0A3F608DFFAE0A3FFE0A39A
:100CC300C0E0E0A3C0E0E0A3C0E0E0A3C0E0E0A395
:100CD300C0E010AF088582218583228008858221A8
:100CE300858322D2AFD083D082020EF8D083D08204
:100CF300E9C0E0E493A3C386F0C5F095F0F908E4F6
:100D030093A386F0C5F095F0700BE493A3C39940C9
:100D130005E9048002A3E475F002A42582F582E5C7
:100D2300F03583F583D0E0F9E493A3C0E0E493C006
:100D3300E022C0E0C3E49396087401939618400F31
:100D4300E49366700808740193661870007019A321
:100D5300A3C3E49396087401939618A3A3400DD0FC
:100D6300E0D0E0D0E0020C99A3A3A3A3A3A3D0E017
:100D7300227404800474028000CCC0E0EDC0E0E57E
:100D830021C39CCCAD2250011D10AF068C218D22B6
:100D930080068C218D22D2AF120E74D0E0FDD0E0FC
:100DA300FC2274028000CCC0E0EDC0E0E521C39CCE
:100DB300CCAD2250011D10AF068C218D2280068CF4
:100DC300218D22D2AF120E52D0E0FDD0E0FC22C022
:100DD300E0C0F088F0E49366700808740193661825
:100DE3007000A8F0A3A3700BD0F0D0E0D0E0D0E067
:100DF300020C99A3A3D0F0D0E022C0E074F2120B4E
:100E030053A2AFE433FED2AFE58BA2E050057904E1
:100E13001213FD758B00C2E8752300EEA2E092AFBA
:100E23007F01020BB2D083D082CCC0E0E493A360F5
:100E330006120ED31470FAE493A36006120FF7148C
:100E430070FAD0E0FCE493A3C0E0E493C0E022CACC
:100E5300C0E0E493A3C582CCC582C583CDC583F02E
:100E6300A3C582CCC582C583CDC583DAE5D0E0CAEC
:100E730022CAC0E0E0A3C582CCC582C583CDC583A9
:100E8300F0A3C582CCC582C583CDC583DAE6D0E0A5
:100E9300CA227009080808226016181818C6C33336
:100EA300C608C633C608C633C608C633C6D5E0EA85
:100EB30022C008C3E096F50808A3E096420808A3F9
:100EC300E096420808A3E09645087001D3D00822B3
:100ED300C0E0E493A3D39C5010E493A3C39C400AC3
:100EE300D0E0D0E0D0E0020E45A3A3A3D0E022C01F
:100EF3009FF59FE473D09F22D083D082C09FE49359
:100F0300C0E0740193C0E0740293F59F22C0E0C077
:100F1300D0E8C0E0A8A8D2AFC2C7752300E8A2E713
:100F230092AFD0E0F8D0D0D0E0327404800A7403DA
:100F33008006740280027401C0E0F404120F48D0EA
:100F4300E0121204222521F58210AF08F521400C8E
:100F530015228008F52140021522D2AF8522832273
:100F630000C0D0252110AF08F521500C05228008C0
:100F7300F52150020522D2AFD0D022BB0102E722D5
:100F8300C082C08389828A83BB0003E08002E4932A
:100F9300D083D082226016080808C6C313C618C6B9
:100FA30013C618C613C618C613C6D5E0EA222521F0
:100FB300F8E43522F9222521FAE43522FB22252102
:100FC300FCE43522FD22C3E0C696F608A3E0C696EC
:100FD300F608A3E0C696F608A3E0C696F6222521F6
:100FE30010AF08F521400C15228008F521400215A9
:100FF30022D2AF22C0E0E493A36C7009D0E0D0E02A
:10100300D0E0020E45A3A3D0E022E76670100809E2
:10101300E766700A0809E76670040809E76622C3F1
:10102300E09608A3E09608A3E09608A3E096A2D270
:1010330065D03322E066701008A3E066700A08A347
:10104300E066700408A3E06622181818E4C396F655
:1010530008E496F608E496F608E496F622C3E096CA
:10106300F008A3E096F008A3E096F008A3E096F05A
:1010730022181818E60846087009E626087005E6DF
:1010830033F4220822191919E70947097009E727D8
:10109300097005E733F4220922C3E697F60809E647
:1010A30097F60809E697F60809E697F622C3E4934C
:1010B30096087401939608740293960874039396A2
:1010C30022E627F60809E637F60809E637F608099F
:1010D300E637F622700422600D18C6C333C608C66D
:1010E30033C6D5E0F41822E657F60809E657F608A2
:1010F30009E657F60809E657F622E056F608A3E094
:1011030056F608A3E056F608A3E056F622E026F6C4
:1011130008A3E036F608A3E036F608A3E036F62285
:10112300E026F008A3E036F008A3E036F008A3E0D9
:1011330036F022E647F60809E647F60809E647F6D9
:101143000809E647F622E056F008A3E056F008A3A4
:10115300E056F008A3E056F022600D08C6A2E7139C
:10116300C618C613C6D5E0F322C6F4C608C6F4C62D
:1011730008C6F4C608C6F4C622C3E7960809E7966C
:101183000809E7960809E79622C3E09608A3E096C4
:1011930008A3E09608A3E0962275D00075813F75F9
:1011A300210175220500020AEB600C08C6C313C6B1
:1011B30018C613C6D5E0F422E6F008A3E6F008A3A8
:1011C300E6F008A3E6F022E7094709C3134709330A
:1011D3006002E733F422E0F608A3E0F608A3E0F6A2
:1011E30008A3E0F622E6084608C313460833600264
:1011F300E633F422800100E9F874FF28F90470F65D
:1012030022CAC0E0E6F0A308DAFAD0E0FA22E0F856
:10121300A3E0F9A3E0FAA3E0FB22E8F0A3E9F0A33B
:10122300EAF0A3EBF022EAF0A3EBF0A3ECF0A3EDDA
:10123300F022E0FAA3E0FBA3E0FCA3E0FD22E5C774
:1012430054F84401F5C77901222521F582E43522BA
:10125300F58322E62618461846184622C2AF75D6ED
:101263009F02000022E72719471947194722120E48
:10127300FBB3F101120EFBE1F101120EFB1FF201B0
:10128300120EFB46F401120EFB62F401120EFBA7D1
:10129300F401120EFB2CF501120EFB78F501120E70
:1012A300FB0AF601120EFBE3F601120EFB3FF701F8
:1012B300120EFB9DF701120EFB10F801120EFB54E8
:1012C300F801120EFBACF801120EFBCEF801120E60
:1012D300FB5EF901120EFBEFF901120EFB3BFA0163
:1012E300120EFB67FA01120EFBA8FA01120EFB475E
:1012F300FC01120EFB29FD01120EFBFEFD01120E75
:10130300FBA8A704120EFBD4A704120EFBF4A70438
:10131300120EFB1BA804120EFB62A904120EFB950E
:10132300A904120EFB6BAA04120EFB05AB04120EEA
:10133300FBF4DA04120EFBF9DA04120EFB2CDB04C5
:10134300120EFB79C004120EFB40C104120EFB52B5
:10135300C104120EFBC2C104120EFBACD604120E62
:10136300FBBDD604120EFB5BD704120EFB66D7043B
:10137300120EFB80D704120EFBEC7F00120EFBE86B
:10138300FF02120EFB8FD704120EFB9FD704120E1F
:10139300FBB4D704120EFB68D804120EFBC3D304AC
:1013A300120EFB47D404120EFBAFD404120EFB78CB
:1013B300C704120EFB8CC704120EFB02C804120EE4
:1013C300FB51C804120EFB86C804120EFBABC80403
:1013D300120EFBCEC804120EFB09C904120EFB3613
:1013E300C904120EFB7DC904120EFBD8FE01120EB6
:1013F300FB5FFF01120EFB68FF01120EFB8FFF0163
:10140300120EFBD7FF01120EFBEEFF01120EFBD9EA
:101413007B00120EFBE77B00120EFB607C00120EBA
:10142300FB397D00120EFBFC7E00120EFB417F0098
:10143300120EFB627F00120EFBF87F00120EFB9769
:10144300C904120EFBCFC904120EFB1DCB04120EEE
:10145300FBA1CB04120EFBC8D504120EFBF1D5047D
:10146300120EFB749004120EFBA09004120EFB0AE2
:101473009304120EFB4A9304120EFB869304120E7E
:10148300FB9A9304120EFBB39304120EFBA5940470
:10149300120EFB589504120EFB6C9504120EFB8B77
:1014A300CD04120EFBAFCD04120EFBC8CD04120EF9
:1014B300FB06CE04120EFB36CE04120EFB63CE04E3
:1014C300120EFB6DCE04120EFBD3CE04120EFBD60E
:1014D300CE04120EFBE0CE04120EFBEDCE04120E70
:1014E300FB39BB04120EFB59BB04120EFB98BB0461
:1014F300120EFBB6BB04120EFBD1BB04120EFB375C
:10150300BC04120EFB43BC04120EFBA0BC04120E5F
:10151300FBAFBC04120EFBD3BC04120EFB94BD0440
:10152300120EFBA1BD04120EFBB2BD04120EFB751D
:101533007F00120EFBBD7F00120EFBE97F00120E2F
:10154300FBC29504120EFB1E9704120EFB2C97048C
:10155300120EFB3F9704120EFB549704120EFB6905
:101563009704120EFB7C9704120EFBF89704120EDD
:10157300FB5D9804120EFBE59804120EFB5D9904C3
:10158300120EFB369A04120EFB469A04120EFB55FA
:101593009A04120EFB66FF03120EFB8AFF03120E60
:1015A300FBB2FF03120EFBDAFF03120EFBE5C204CC
:1015B300120EFB0CC304120EFB2AC304120EFB997A
:1015C300C304120EFB66B804120EFB7FB804120E9E
:1015D300FB8BB804120EFB9FB804120EFBBDB804BC
:1015E300120EFBC7B804120EFBD1B804120EFBE4B3
:1015F300B804120EFB6AB904120EFBDFB904120E13
:10160300FB0EBA04120EFB5CBA04120EFBABBA0457
:10161300120EFBC6BA04120EFBD0BA04120EFBE183
:10162300BA04120EFB24BB04120EFB8ED904120E55
:10163300FBD9D904120EFB008004120EFB2C80048C
:10164300120EFB498004120EFB5C8004120EFB7722
:101653008004120EFBD18004120EFBFF8004120ED5
:10166300FB0F8504120EFB6D8604120EFB9F86048E
:10167300120EFB028704120EFB6E8804120EFB96F9
:101683008804120EFBAB8804120EFBBB8804120EF7
:10169300FBFB8804120EFB3D8904120EFB4D8904EB
:1016A300120EFB8DD104120EFBA7D104120EFBCF39
:1016B300D104120EFBE8D104120EFB0CD204120E5D
:1016C300FB2AD204120EFB41D204120EFB6FD2048A
:1016D300120EFB8AD204120EFB34FF02120EFB7AA7
:1016E300FF02120EFBC6AE04120EFBD6AE04120EA0
:1016F300FBDBAF04120EFB0DB004120EFB3DB00476
:10170300120EFB60B004120EFB77B004120EFBB195
:10171300B004120EFB16B104120EFB58B104120EE4
:10172300FB9FB104120EFBCCB104120EFBF7B10404
:10173300120EFBF7CE04120EFB09CF04120EFB1D93
:10174300D004120EFB20D004120EFBBDD204120EE5
:10175300FBF3D204120EFB0BD304120EFB4DD30486
:10176300120EFB5DD304120EFBA1D304120EFBABCE
:10177300D304120EFB7D8904120EFBC08904120EE2
:10178300FB258A04120EFB448A04120EFBE68A042C
:10179300120EFBEF8A04120EFB408B04120EFB6940
:1017A3008B04120EFB768B04120EFBE88B04120ED5
:1017B300FB768C04120EFBBB8C04120EFBF48C0420
:1017C300120EFB598D04120EFB828D04120EFBF9CF
:1017D3008D04120EFB488E04120EFB858E04120E2E
:1017E300FBBA8E04120EFBCC8E04120EFBDE8E04AB
:1017F300120EFBFD8E04120EFB068F04120EFBC7A6
:101803008F04120EFB0A9004120EFB489004120E72
:10181300FBE5D904120EFB4DD004120EFB3AC504AE
:10182300120EFB70C504120EFBB8C504120EFB1199
:10183300C704120EFBDEAD03120EFB04AF03120E40
:10184300FB40AF03120EFBFEB003120EFB2CB103E1
:10185300120EFB96B303120EFBD6B303120EFB78E4
:10186300B503120EFB0EB603120EFB68B603120E7F
:10187300FBF8B603120EFB3CB703120EFB7EB70355
:10188300120EFBE3B803120EFB63BA03120EFBA4A2
:10189300BC03120EFBD2BC03120EFBFEBC03120EE2
:1018A300FB07BD03120EFB64BD03120EFBFDBD035C
:1018B300120EFB14C103120EFB9AC103120EFB6E30
:1018C300D804120EFB86D804120EFB90D804120E15
:1018D300FBE6D804120EFB009F04120EFB169F04B6
:1018E300120EFBB79F04120EFBF69F04120EFB139E
:1018F300A004120EFB44A004120EFB91A004120ECE
:10190300FBC5A004120EFB00A104120EFBFDA204F2
:10191300120EFB63A304120EFBC8D404120EFB27A2
:10192300D504120EFB65D504120EFBA6D504120EC8
:10193300FB3DDA04120EFB008002120EFB0C800248
:10194300120EFB6E8002120EFB788002120EFB0752
:101953008102120EFB438102120EFB028202120E5F
:10196300FB5F8202120EFBF18202120EFB44830222
:10197300120EFBC28302120EFB7E8502120EFB8344
:101983008702120EFBB88802120EFBFB8902120EAD
:10199300FBA08A02120EFB4E8F02120EFB43900233
:1019A300120EFBD99002120EFBFE9002120EFB9B4D
:1019B3009102120EFBB89102120EFBD89102120E85
:1019C300FB469202120EFB639202120EFB919202ED
:1019D300120EFB2F9402120EFB509402120EFBF612
:1019E3009402120EFB3E9502120EFB9C9502120E00
:1019F300FB3F9602120EFBA49602120EFB03970204
:101A0300120EFBB19702120EFB2E9802120EFB6A06
:101A13009802120EFBDE9802120EFB239A02120E9C
:101A2300FBAF9B02120EFB4E9C02120EFB8E9E021C
:101A3300120EFBF09E02120EFB1E9F02120EFB33D0
:101A4300A102120EFBD3A302120EFBECA402120E90
:101A5300FB62D203120EFB87D303120EFB0ED703D6
:101A6300120EFB1CD703120EFB3BD703120EFB64B3
:101A7300D703120EFBCCD803120EFBC2D903120EEE
:101A8300FBE0D903120EFB2DDB03120EFBA0DC03DC
:101A9300120EFB03DD03120EFB7FDD03120EFB4F61
:101AA300DE03120EFB37AB04120EFBF2AB04120E75
:101AB300FB58AC04120EFB79AC04120EFB54AD04BC
:101AC300120EFB03EA02120EFB32EA02120EFBAA0B
:101AD300EA02120EFBB9EB02120EFB15EC02120E18
:101AE300FB82ED02120EFB9EED02120EFBF0ED02E5
:101AF300120EFB33EE02120EFB46EE02120EFB9E9B
:101B0300EE02120EFB60EF02120EFBDCEF02120E6E
:101B1300FB13F002120EFB4BF002120EFBDDF1027F
:101B2300120EFBBCF202120EFB0AF402120EFBEDC4
:101B3300F402120EFB79F502120EFBB9F502120E36
:101B4300FBD8F502120EFB23F602120EFB43F6023C
:101B5300120EFBDCF602120EFB62F702120EFBBD45
:101B6300F702120EFBFDF702120EFB93FA02120E9E
:101B7300FBACFB02120EFBF2FB02120EFBE7FC02B4
:101B8300120EFB0FFD02120EFB12FD02120EFB1CC6
:101B9300FD02120EFB38FD02120EFBB2FD02120E05
:101BA300FBEBFD02120EFB17FE02120EFB3EFE02C2
:101BB300120EFB62FE02120EFBD3FE02120EFBE6B6
:101BC300FE02120EFB15FF02120EFB11D904120EB8
:101BD300FB1DD904120EFB51D904120EFBEF7F003B
:101BE300120EFBAF9703120EFBD29703120EFB1FCD
:101BF3009903120EFB689903120EFBD49903120E7C
:101C0300FB329A03120EFB359A03120EFB869A03DC
:101C1300120EFBFB9A03120EFB809B03120EFB8337
:101C23009B03120EFB049C03120EFB459C03120E36
:101C3300FB31A003120EFBDBA103120EFB2BA2034D
:101C4300120EFBB2A503120EFBE5A603120EFB5FF9
:101C5300A803120EFBFCA803120EFBE7A903120E46
:101C6300FB3CAC03120EFBF9C103120EFBA3C20330
:101C7300120EFB0EC303120EFB29C303120EFBAE9F
:101C8300C303120EFB08C403120EFB4FC403120E50
:101C9300FBB6C403120EFB35C603120EFB64C70367
:101CA300120EFBECC703120EFBF5C903120EFB89E0
:101CB300FA03120EFB46CB03120EFB17CC03120ED4
:101CC300FBD2CD03120EFB6ACF03120EFB80F10190
:101CD300120EFB23D103120EFBD0CE02120EFB33E6
:101CE300CF02120EFB7BCF02120EFBBFCF02120EEE
:101CF300FB1AD002120EFB77D002120EFBB2D002F7
:101D0300120EFB34D102120EFB8ED102120EFB0C0B
:101D1300D302120EFB8CD302120EFBE7D302120E78
:101D2300FB01D402120EFB67BE04120EFB7CD4022D
:101D3300120EFBF8D602120EFB17D702120EFB0788
:101D4300D802120EFB3AD902120EFBB9D902120EB7
:101D5300FBF5D902120EFB64DA02120EFB19DB0249
:101D6300120EFBF1DC02120EFBF8DD02120EFB7009
:101D7300DF02120EFB66E102120EFBDCE302120E1F
:101D8300FBB6E502120EFB77E602120EFBEFE6024C
:101D9300120EFB06E702120EFBFDE702120EFBF129
:101DA300E802120EFB60E902120EFB74B504120E78
:101DB300FBCBB604120EFB8AB704120EFBF2B70478
:101DC300120EFB4FB204120EFB6AB204120EFBAEEC
:101DD300B204120EFBD4B204120EFBFBB204120EB9
:101DE300FB13B304120EFBB5B304120EFBCAB30408
:101DF300120EFBEDB404120EFBF6B404120EFBFF3D
:101E0300B404120EFB08B504120EFB12B504120E35
:101E1300FB869A04120EFB929E04120EFB979E04FD
:101E2300120EFB999E04120EFB18CC04120EFB66D5
:101E3300DB04120EFB3ADB04120EFB95DA04120EDE
:101E4300FBA5DA04120EFB70A304120EFB17A90202
:101E5300120EFB4AA902120EFBB6A902120EFB5187
:101E6300AA02120EFBEEAA02120EFB33AB02120EF3
:101E7300FB55AB02120EFB6EAB02120EFB94AB02D0
:101E8300120EFBB6AB02120EFBF4AB02120EFB38C2
:101E9300AC02120EFB5AAC02120EFBBCAC02120EC9
:101EA300FB83AD02120EFB3AAE02120EFBACAE0286
:101EB300120EFB77AF02120EFBCAAF02120EFB30FB
:101EC300B002120EFB6AB002120EFBBCB002120E7D
:101ED300FB2AB102120EFB95B102120EFB98B1025E
:101EE300120EFB19B202120EFBB0B202120EFB303D
:101EF300B302120EFB4FB302120EFBB3B402120E67
:101F0300FBC0B402120EFBCCB502120EFBD9B50214
:101F1300120EFBE2B502120EFBBAB702120EFBD48D
:101F2300B802120EFB4DB902120EFBBFB902120E1C
:101F3300FBE1B902120EFB75BA02120EFB49BC0299
:101F4300120EFB20C002120EFB34C002120EFB4421
:101F5300C002120EFB4EC002120EFB57C002120E3D
:101F6300FB60C002120EFB6AC002120EFB97C00296
:101F7300120EFBC0C002120EFBCBC002120EFBEF0F
:101F8300C002120EFB13C102120EFB7DC102120E20
:101F9300FBC3C102120EFBE0C102120EFB5DC202C3
:101FA300120EFB94C202120EFBD3C202120EFB20CE
:101FB300C302120EFBA6C302120EFB74C502120E5D
:101FC300FBF7C502120EFBDBC602120EFB42C9026F
:101FD300120EFB9BC902120EFBE5C902120EFB4057
:101FE300CB02120EFB75CB02120EFBC7CB02120EF5
:101FF300FB7CCC02120EFB2BCD02120EFB68CD0232
:10200300120EFBFDCD02120EFB69CE02120EFB1C5B
:102013002F00120EFB4E2F00120EFB7C2F00120E10
:10202300FB523100120EFB323200120EFB8A3200D9
:10203300120EFBC53300120EFB113400120EFB3AD5
:102043003700120EFB2D3A00120EFB7D3B00120EE1
:10205300FB133C00120EFB1F3C00120EFB513C0015
:10206300120EFBD43D00120EFB853F00120EFB192E
:102073004000120EFB5C4000120EFBDA4000120E11
:10208300FBF74000120EFB274100120EFB5C4100E0
:10209300120EFB2C4200120EFBD54200120EFB5B0C
:1020A3004500120EFB7B4600120EFB664700120E24
:1020B300FBE84700120EFB1C4C00120EFB594C00B0
:1020C300120EFBB14C00120EFBE44C00120EFB4E41
:1020D3004D00120EFB844D00120EFB0F4E00120E2C
:1020E300FB674E00120EFB3E4F00120EFBF74F0034
:1020F300120EFB925000120EFB9A5300120EFBB607
:102103005400120EFB595800120EFB4D5900120ECB
:10211300FB505900120EFB7F5900120EFB855B002A
:10212300120EFB5E5C00120EFBA15C00120EFBF7AD
:102133005D00120EFB365E00120EFBBF5E00120E38
:10214300FBF35E00120EFBB85F00120EFBD06100C2
:10215300120EFB416200120EFB816200120EFB0F96
:102163006300120EFB316400120EFBF36400120EC7
:10217300FBFA6600120EFB126700120EFB266700C5
:10218300120EFB5E6700120EFB8C6700120EFB0B38
:102193006900120EFB306A00120EFB8D6A00120EEC
:1021A300FB3F6B00120EFB666B00120EFB2D6C00E7
:1021B300120EFBC56C00120EFBEB6E00120EFB2021
:1021C3006F00120EFB836F00120EFBB27000120E33
:1021D300FB5A7100120EFB8B7100120EFBA37100F0
:1021E300120EFB327200120EFBE67400120EFBBEDF
:1021F3007600120EFBDA7600120EFBF67600120E54
:10220300FBC47700120EFBB77B00120EFB22870183
:10221300120EFB548701120EFB438B01120EFB8F30
:102223008B01120EFBD58B01120EFB778C01120E64
:10223300FBD38C01120EFB188D01120EFB5F8E0176
:10224300120EFB738F01120EFB629301120EFBE65B
:102253009301120EFBF39401120EFB4F9501120E24
:10226300FB3F9701120EFBB49701120EFBBE9701C1
:10227300120EFBCB9701120EFBF69701120EFBDD3C
:102283009801120EFB879901120EFB059A01120E9B
:10229300FB259A01120EFB4E9A01120EFB709A0156
:1022A300120EFBD09C01120EFB969D01120EFBDB5E
:1022B3009D01120EFB589E01120EFB099F01120E87
:1022C300FB3B9F01120EFB819F01120EFBBD9F0181
:1022D300120EFB0DA001120EFB61A001120EFBB743
:1022E300A001120EFB03A101120EFB70A101120E3D
:1022F300FBEBA101120EFBB6A301120EFBB6A40168
:10230300120EFBDBA501120EFB1AA901120EFB2D07
:10231300AC01120EFBEAAC01120EFB2EAD01120E44
:10232300FBDEAE01120EFBF2AE01120EFBFCAE01A0
:10233300120EFB06AF01120EFB12AF01120EFB2EA3
:10234300AF01120EFBD9AF01120EFB18B001120E32
:10235300FB22B001120EFB2CB001120EFB9CB0014C
:10236300120EFBE7B001120EFBFCB101120EFB587B
:10237300B201120EFBD9B201120EFB98B301120E79
:10238300FBA1B401120EFBD5B501120EFBC3B601BE
:10239300120EFBDBB601120EFB36B701120EFB5415
:1023A300B701120EFB9CB701120EFBC3B701120E4D
:1023B300FB5EB801120EFB24B901120EFBB6B90184
:1023C300120EFB30BA01120EFB4ABB01120EFBF7D1
:1023D300BB01120EFB1FBD01120EFB6FBD01120EDE
:1023E300FBD3BD01120EFB35BE01120EFB63BE0112
:1023F300120EFB87BE01120EFBBCBE01120EFBEDDB
:10240300BE01120EFB20BF01120EFB40BF01120ED4
:10241300FBA8BF01120EFB9CC001120EFBF7C0010B
:10242300120EFB20C101120EFBA8C101120EFB2BE1
:10243300C201120EFB56C201120EFB3BC301120E68
:10244300FB33DF03120EFB6BDF03120EFB8CDF0388
:10245300120EFBCEDF03120EFB30E003120EFB3A2B
:10246300E003120EFB4AE003120EFB85E003120E9B
:10247300FB65E403120EFB52E603120EFB38E8037E
:10248300120EFBCFE803120EFB71E903120EFB3DA4
:10249300C501120EFBBBC501120EFB17C601120EBE
:1024A300FB62C601120EFB7DC601120EFBA8C6011C
:1024B300120EFBC5C601120EFBD1C601120EFB683C
:1024C300C801120EFB81C801120EFB06C901120ED0
:1024D300FB19C901120EFB38C901120EFBDCC9013D
:1024E300120EFB5DCB01120EFB10CD01120EFBA6EB
:1024F300CD01120EFBA9CD01120EFB19CE01120E56
:10250300FB37CE01120EFBCECE01120EFB16CF010E
:10251300120EFB19CF01120EFBDFCF01120EFB4C83
:10252300D001120EFB72D001120EFBFDD001120E70
:10253300FB1BD101120EFB61D101120EFB15D2015F
:10254300120EFB5FD201120EFB8ED201120EFBEBB9
:10255300D201120EFB20D301120EFB4CD301120E3B
:10256300FB5AD301120EFBA7D301120EFB17D401A2
:10257300120EFB60D401120EFBACD401120EFBD879
:10258300D401120EFBE3D401120EFB01D501120E8E
:10259300FBECD501120EFBF6D501120EFB31D60171
:1025A300120EFB41D601120EFB4AD601120EFB9E00
:1025B300D601120EFBB2D601120EFBE1D701120EA9
:1025C300FBF8D701120EFB0DD801120EFB9BD801AD
:1025D300120EFBE0D801120EFB6CD901120EFB7731
:1025E300D901120EFBB9DA01120EFBD4DA01120E75
:1025F300FB20DB01120EFB8FDB01120EFBC8DB019C
:10260300120EFBE2DB01120EFB24DC01120EFBF4C3
:10261300DE01120EFBA1DF01120EFB0EE001120E12
:10262300FB4EE201120EFB66E201120EFB69E201B0
:10263300120EFB75E201120EFB89E201120EFB91F1
:10264300E201120EFBC4E201120EFBC6E301120EFD
:10265300FB4DE401120EFBBDE401120EFB3FE5014D
:10266300120EFB00E601120EFB1FE601120EFBC069
:10267300E601120EFB1DE701120EFB20E701120E0D
:10268300FB4DE701120EFB62E701120EFBD6E701D9
:10269300120EFB25E901120EFB2BEA01120EFBB60B
:1026A300EA01120EFBD1EB01120EFB99EC01120EA3
:1026B300FBCAEC01120EFBEDEC01120EFBF6EC0172
:1026C300120EFB25ED01120EFBB5ED01120EFB6B95
:1026D300EE01120EFBE0EE01120EFB87EF01120E6C
:1026E300FBFCEF01120EFB33F001120EFB71F00144
:1026F300120EFBA7F001120EFB04F101120EFB896F
:10270300F903120EFBA2F803120EFB92F603120E4C
:10271300FBA0F503120EFB3EF503120EFB9B970382
:10272300120EFB919703120EFB269703120EFB5713
:102733009503120EFB159503120EFB73BF04120EC5
:10274300FBFDCF03120EFB199403120EFBED930353
:10275300120EFB14BE04120EFBE0BD04120EFBA40A
:102763009303120EFBE59203120EFBD38F03120E9B
:10277300FB948D03120EFB618D03120EFB088D0378
:10278300120EFB9B8C03120EFB5A8C03120EFB934F
:102793008B03120EFB2D8B03120EFBCC8A03120E3E
:1027A300FB6C8A03120EFB438903120EFBD78803CB
:1027B300120EFB2F8803120EFB2A8803120EFB1E38
:1027C3008803120EFB518403120EFB2B8403120E9B
:1027D300FB19FF03120EFBE5FE03120EFB8EFE0335
:1027E300120EFBFCFC03120EFB4EFC03120EFBB19C
:1027F300FB03120EFBA7FB03120EFBC98303120E8E
:10280300FB6A8303120EFB2B8303120EFB18830355
:10281300120EFB40FB03120EFB0D8303120EFBDCB7
:102823008203120EFBF88003120EFB6B8003120E61
:10283300FB09BF04120EFB278003120EFB22D402F6
:10284300120EFB008003120EFBCEF403120EFBA14B
:10285300F403120EFB6EF403120EFB46F403120E86
:10286300FBE7F303120EFBC7F303120EFB92F30312
:10287300120EFB3EF003120EFB26EE03120EFB10AC
:10288300EC03120EFB90EB03120EFB3CEB03120E58
:10289300FBF0EA03120EFB48EA03120EFB2CFB03C8
:1028A300120EFBA2CA0300000080FB0000228F006F
:1028B3000100D41687000100D216350004009B16D0
:1028C300250002009F1626000200A1162700020021
:1028D300A31628000100AD1629000100AE168400DE
:1028E300040019148600010037162A000100AF16F0
:1028F3002B000100B0162C000100B4162D000800B7
:1029030025142E000100B5162F000100B616300065
:102913000100B71631000100B816320001002D1472
:10292300330001002E1434000100B91636000100F3
:102933002F1438000100BA1639000100B3168300C2
:102943000200D016630001003B1464000100B116BD
:1029530065000100B2166D0001003C14710008000F
:102963001D1466000100CF1643000100C016440089
:102973000200C11645000100C31646000200C4163A
:1029830047000800331448000100C6164B0001003D
:10299300C71604000100D316A1000100D7163700A3
:1029A3000100D61688000100D5163C000100301442
:1029B3003D000100BB1649000200C8166700010074
:1029C3003D144D000200CA164E000100CC164F0004
:1029D3000200CD163E000100BF1651000100311464
:1029E30052000100BD1653000100BE165400010041
:1029F30032140000000000000000000020012087C6
:102A030000000100200121870000020020011C8733
:102A13000000030020011D870000040042010C8612
:102A2300000005004201BD850000060042018A85C1
:102A33000000070030011E870000004042018A8524
:102A43000000FDFF210118870100200020013F162F
:102A5300010021002001401601000002210141165E
:102A630001003E001B012F050100010221236E1608
:102A730001000502102374160204000029010D133E
:102A83000204100229237516020420021023701673
:102A9300020421022923661602042202292368164E
:102AA30002042502102371160504000021010F13EF
:102AB3000504100229237716050420021023721639
:102AC3000504210221236A160504220221236C1620
:102AD3000504250210237316000136360101000197
:102AE30002010001030100010401060605020000C2
:102AF300070100340801000F090401010D0100FF63
:102B03000E08000017020000190100FF1A0100015E
:102B13001B0100FE1C0100081D0200001F01000133
:102B230020010001210200002301000F2402000004
:102B33002601000127010008280200FF2A010007DF
:102B43002B0102402C0100002D0100012E01000188
:102B53002F0100FF30010B1D310800003A0100086E
:102B63003B01000F3C0100013D0100FF3E0400005A
:102B730042040000460400004A0400004E04000022
:102B830052040000560400005A04000001037103BC
:102B930001030103010301030103220302030103F0
:102BA30010030003000300030003000300030003FA
:102BB3004203000324030603000300030403120378
:102BC3002503230325032303040304030003000352
:102BD30000034403000300032303000365032100F0
:102BE300350381030003050300030003000300030F
:102BF30025032303030271023001600211027002F4
:102C03000102020202028002100261023A00410044
:102C1300630273027202620243020002130238006B
:102C2300000200020402120200020002000200027B
:102C330004020402370037003C0244020002390058
:102C43000002000265020002350281020002050251
:102C530082028302000201017101010101011101DC
:102C630001013101010101018001100161013B00FA
:102C73001400630173017201620143010001130136
:102C830006013D01350004011201000100010001AC
:102C9300000104010401330133013C014401320109
:102CA30036000001000165010001350081010001CA
:102CB30005018201830100010300710030016000FE
:102CC30011007000310220035004800010006100E5
:102CD30000001400630073007200620043000000F0
:102CE30013000600000000000400120000000000B2
:102CF3000000000004000400370037003C024400D9
:102D030000000000000000006500000035008100A5
:102D130000000500000083000000360001000600EB
:102D230000000F0000000000000000000000000091
:102D330003FFFF00000403FFFF0000FFFF0FF40188
:102D43000005C4040320000100000B000000000084
:102D530000000003010F000000000000000000005D
:102D63000000000000000000000000000000000060
:102D730000000000000000000F1A391A151A551937
:102D83001B1A3F1A1B1A4B1A211A55191B1A3F1AE1
:102D9300271A5519000000002D1A551900000000CC
:102DA30000000000331A5519000000000000000065
:102DB3000000000000000000000000000000000010
:102DC3000000000000000000000000000000000000
:102DD300000000000000911C0100911C0200071C70
:102DE3000280011C03000D1C0400131C0480191C29
:102DF30005001F1C06002B1C31003D1C3300431C27
:102E03003400491CFFFF0000030003000400080016
:102E130010001F003E007B00F600EC01D703AF0754
:102E23005D0FB91E713D000007ECFDFDFDECDCDC20
:102E3300CCBCACAC9C9C8C7C7C6C6C5C5C5C4C4C6F
:102E43003C3C2C2C1C1C03EAF5E5D5D5C5B5A59552
:102E5300958585757565655555454535352525151F
:102E630015050A8522024F22055B220755220C37DE
:102E7300220D4322FF000000160F00000B150B026A
:102E83000002220F3300000E0F5A69674265654145
:102E93006C6C69616E63653039D0D1D2D3D4D5D629
:102EA300D7D8D9DADBDCDDDEDF3030161819202382
:102EB3001A1C1E3000034D4C4651181A25050200FA
:102EC3000119161816161823030030301718192184
:102ED300301B1D1F30003C40423A3F3F392F4730E3
:102EE3000C0E020B040B0A0708000F020402010177
:102EF30001010902E803000000BE040A01000E00FC
:102F03000300E803FF04091C031004030A0C041E56
:102F13000828020C0508151E04C082C0831226F976
:102F23009014667427F0A37420F0901468742DF045
:102F3300A37420F090146A7433F0A37420F09014F7
:102F43006C7439F0A37420F0025C5774F7120A7F93
:102F530090145AE4F0E9901459F07C337D147A5BB1
:102F63007B1412192B9016C6E0901463F09014642E
:102F7300741DF0A37414023EE474F0120A7FEAFE97
:102F8300EBFF548070030230ED901459123F7970B7
:102F9300030230E6EA241B1257E4707CEA241F1272
:102FA30057E464137002A3E0706E8A828B8312313C
:102FB3003B901474124D76750A00750B00800D1248
:102FC3003DBA126E5612182FAA0EAB0FEA4B604889
:102FD3008A828B83E0650C7004A3E0650D702C8AF4
:102FE300828B83A3A3A3A3E0F50EA3E0F50FE50A69
:102FF300450B8A828B83A3A3A3A360C31240BC8522
:103003000A82850B83A3A3A3A380B78A0A8B0B8AA7
:10301300828B83124D7280B4E508242A1257E4FC94
:10302300E5082402F8E43509F9E8FAE9FB90147499
:10303300123222A3A3E06402703C8A828B83124D76
:1030430076800B88828983A3A3A3A31240BCE8499B
:10305300601F88828983E06A7003A3E06B70E48851
:10306300828983A3A3E06C70DA9016CC125B148080
:103073006BECF9122063850882850983E064017093
:103083004FE5082418123124120F391263FE120D72
:1030930074E5082412123124120F39E508123F6D2A
:1030A300120F35E508240B126402120D78E508248B
:1030B30017123F0AE5082402FCE43509FDE508245C
:1030C30019FAE43509FB12287F740A120F63800C86
:1030D300E064027007AA08AB09122141AA08AB09F0
:1030E300121799EEFAEF6480802DEA5402600C9077
:1030F30016DF7401F0EA6402FA8023EA5408601AC6
:1031030012205DEA4B700B9014761262D97A081282
:103113003131EE6408FAEFFB80047A007B00026A27
:1031230088F582E43509F583E0F50A780A22FB90F5
:103133001459E0F91218FB22A3A3E0F50CA3E0F560
:103143000D227B00901459E0F91218EF74042274D5
:10315300F4120A7F8A088B098A828B83A3A3A312A2
:103163004B6E123F1538F583E02409FA126A20707A
:10317300030232158A828B837402124BE385088221
:10318300850983123222E8F0A3E912669A8A828BB8
:1031930083A3A3A3A3A3A3A3A3F0E5082403F8E4B1
:1031A3003509123217123F153AF583E08E828B836D
:1031B300A3A3A3A3F0EE2409FAE43FFB8E828F833B
:1031C300A3A3125DC6F5838882E0A2E58E828F8376
:1031D300A3A3A3A3A3500474018001E4F0E508248E
:1031E30003F5828983124D76EA1252F73BF5831277
:1031F30069E7120F31123F143B125EB88E828F8340
:10320300A3A3127B96120F63EEFAEFFB90145912ED
:103213006A6D8016F98882F583E0FAA3E0CA221268
:103223004F13A3A3227402120F637F04020CA97429
:10323300F2120A7F8A088B09ECFAEDFB740E121264
:103243004CE0FC12129B8A0C8B0DAE0CAF0DEA4FB7
:103253006030AC08AD09121289E96026AC08AD09EB
:10326300EEFAEFFB12128FE970148E828F831240F5
:10327300A9FAEFFB121283AA08AB091212B3790061
:10328300800279B4024E6274F0120A7F74F6120F50
:10329300E1EAFEEBFF8C088D09750FB3852182856A
:1032A3002283E4F0750E008002050E902F1BE49339
:1032B300F8E50EC39840030233B1AA0E7B00121245
:1032C300D78A0A8B0BEA4B60E08A828B83A3A31213
:1032D30033B828F0F8C3EE98EF940050CC7C157DFA
:1032E300007900AA08AB09121781850A82850B832E
:1032F300A3A3A3A3126E93E0F8EEC3982925E0F8E5
:10330300E433F9E50A28F582E50B39F583A3A3A392
:10331300A3A3A3123F1FA312593B8A0C8B0DAC0C22
:10332300AD0DAA08AB0912192B850A82850B83A35D
:10333300E06401700A1263FE7401123F3180447429
:1033430001120FC1850A82850B83124D741212BFBD
:10335300E9603D740912124CE0C0E01263FED0E054
:10336300F0740912124CE0640370137401120FC15C
:10337300E508240BFAE43509FB12192B80127401BA
:1033830012124C1240BCE5081259213509126E5431
:10339300850A82850B8312640A123F31A3A3E0C01E
:1033A300E0E5082414126402D0E0F0750F00A90FC1
:1033B300740A026A85A3A3A3E0F885218285228388
:1033C300E02274F7120A7FE9FE8A828B83A3A3A308
:1033D300A3A3A3E0540860338A828B83A3A3A3A38C
:1033E300A3A3E0540260218A828B83A3A3A3A3A394
:1033F300A3A3A3A3E06406600F74E96E600A74CD0F
:103403006E600574F06E700312204502476174F01C
:10341300120A7F74EF120FE1740F12124C1261BD86
:10342300740812124CE9F0ECFEEDFF740512124C15
:1034330012452912474DA3E0F91212A7740612127E
:103443004C1261BD740612124C125388700302367B
:10345300CC123F59E0FA740612124CE0F9121F85A0
:1034630012372CF8A3E0F9E84970030236CCEE24B6
:1034730003F50AE43FF50BEE2406F508E43FF509EE
:103483007C00850882F583124D76850A82850B833D
:10349300E0F91212AD740312124C1261BD850A8257
:1034A300850B83E0C0E0852182852283123725D0F6
:1034B300E012549DF9852182852283123DC1124F6A
:1034C300EF1233BBFAA3E0CA2407F582E43AF5838B
:1034D300E8F0A3E41261C82406F582E438F583E436
:1034E300126E60124B62120F31EE123F153F125EE5
:1034F300B8740312124C124B6E2409127B90120FF4
:1035030063742912124C126E8D12321C1254B03A8B
:10351300126E54742B12124CE0C0E0852182852276
:103523008312534FD0E0F0740212124CE4F074256E
:1035330012124C78081211D9023623740312124C5A
:10354300125E808882F583123714A3A3A31259460F
:10355300FB1212C5850E82850F83A3EAF0A3EBF05D
:10356300740312124C123725A3123714125B55A29F
:10357300E6500F850E82850F83A3A3A3A3A3E0D2F6
:10358300E1F0740512124CE0706B850E82850F8397
:10359300A31240BC9014B4E0687003A3E0697055B3
:1035A300850E82850F83A3A3A3123EF4750C0078C6
:1035B3000C120F397808120F2D742912124CE0F5F2
:1035C3000C780C120F39742712124C120D789014C8
:1035D300C1120D787900741912124C124D46122142
:1035E30089740A120F63850E82850F83A3A3A3A395
:1035F300A3E04405F0740212124CE004FC8E828FA7
:1036030083124D708E828F83A3A3A3E0F91212ADB0
:10361300740312124C1261BD740212124CE004F0D6
:10362300740312124C1253886067740212124CE036
:10363300FA740612124C1240BCC3EA98E499505132
:10364300740212124C1239FE852182852283E028EE
:10365300F8A3E039F9E8240FF50EE439F50F850EE8
:1036630082F583E4F0740312124C12371F64016075
:103673000302353E740512124C7401126A73F0741E
:103683000312124C125C47123A21E8F0A3E9023507
:1036930062852182852283124D76121F8B852182BA
:1036A300852283120D78742612124CE0FD742512C4
:1036B300124CE0FC740A12124CE0F9EEFAEFFB1222
:1036C300203F7402120F6380438E828F83A3A3A3D0
:1036D300E0C0E0740C12124CD0E0F01268DCE0C0E1
:1036E300E0740D12124CD0E0F0740612124C125317
:1036F300887009740E12124C74B98007740E12127A
:103703004C7410F07409120FB91221837411026AF8
:1037130085E0850E82850F83A3A3A322E01254754F
:10372300E022E0125475A3A322852182852283EA35
:10373300F0A3EB1253912274F0120A7F74E1120F7B
:10374300E1740412124CE9F0740312124CECF0749D
:103753000212124CEDF08A0E8B0F742F12124C12C0
:10376300313DAA0CFB121F79740112124CE9F0AA25
:103773000CAB0D121F7F740112124CE0700302395F
:10378300F9852182852283E480158E828F83A3A30A
:10379300A3A3A3E0D2E3F0852182852283E0041270
:1037A30069CBF8852182852283E0C39840030239DF
:1037B300F0740112124CE070030239F08521828506
:1037C30022831239FEE50C28F8E50D39F9E8240FB8
:1037D300FEE439FF8E82F583A3A3A3A3A3E0A2E0B3
:1037E30040B5750800750A08750B00740212124C77
:1037F300E060037508207C087D0079007405120FD2
:10380300B91217818E828F83E0603E901504E064C5
:1038130001701AE508D2E3F508750B10123A0E127F
:10382300124CE8F0A3E912583974FF807643080C70
:10383300750A0C8E828F83A3123A19126E56740581
:1038430012124C74FFF0A3805A740412124CE060FD
:1038530009E508D2E6F508750A0A8E828F83A3E08C
:1038630064FE7003A3E0F47030741212124C7404FB
:10387300126428F8741D12124CE8124BE3741212EE
:103883000FB9121EA77D007C007900741512124C2B
:10389300AA82AB83121C79800B123A0E12124CE8E7
:1038A300F0A3E9F0740712124CE508F0123F50C080
:1038B300E0740912124CD0E0F0740A12124C740135
:1038C300F07405120FB9122147741112124CE06003
:1038D300030239CE740D12124C1254988E828F83C8
:1038E300A3A3A3A3F0740D12124C124BB1E50AF07B
:1038F300A3E50BF0740312124CE0C0E0124B42D06C
:10390300E0125B556011901504E0C0E0740D1212D3
:103913004C124B8CD0E0F0740D12124C1240BC854B
:103923000C82850D83A3A3A3A3A3123A07241C121D
:1039330061B7126E70123A09125B07391268FBC045
:10394300E0124B29D0E01269C0C0E0740D12124C92
:1039530012466FD0E01266C1C0E0740D12124C1211
:103963004665D0E0F0740D12124C123A19123A0760
:10397300242A1261B7850E82850F83A3A3A3A3A371
:10398300A3A3A3E01261B0123F3FC0E0124651D09F
:10399300E0F0740D12124C124D76850E82850F8362
:1039A3001269D62428F582E43B126E54123F481262
:1039B30069E7120F31125EB1EA1261493B127B943F
:1039C300120F637405120FB912214D8E828F83A3D8
:1039D300A3A3A3A3E0D2E0F0741112124CE060039E
:1039E30002378D740112124CE0140237997900AA40
:1039F3000CAB0D12204B741F026A85E075F007A40F
:103A0300F8A9F022A3A3124D7AE8228E828F83A312
:103A13001240C0740522E0123A21A3A3A322F8A303
:103A2300E0F9850E82850F83A32274F0120A7F7456
:103A3300E8120FE1E9852182852283F08A0E8B0F3C
:103A43008A828B83A3A3A3A3A3A3A3A3E0F9121F37
:103A5300A38A088B09EA4B7003023B0AE50E125353
:103A63000B123F68123EFF852182852283E06003AB
:103A7300023B0D7C04850E82850F83A3A3A3A3A31E
:103A8300A3A3A3E0F9121FA9EE4F607B8E828F835D
:103A9300A3A3A3A31240BC740712124C1262EE122A
:103AA30040BC740912124C124C13C0E07411121270
:103AB3004CD0E012669FA3A3A3A3A3A3A31240BC6D
:103AC300740F12124C126E56741212124CE4126AD4
:103AD3007BC8241FF582E438F583125E7CC413137C
:103AE3005403FC70027C048E828F83E0F978081201
:103AF3000F35742059FD744059F97403120FB9122C
:103B0300203F7402120F63026A837C08850E82854C
:103B13000F83A3A3A3A3A3A3A3A3E0F9121FA98BBA
:103B23000BEA4B7003023A8BEE4F60DB85218285F3
:103B33002283E0F50C780C120F39850882850983FE
:103B4300A3A3A3A3A3A3A3E0F50C780C120F398AB4
:103B5300828B83A3A3A3E0FB8A82850B831276B3B4
:103B63008A82850B83E0FA8E828F83A3A3E0F91206
:103B730028857402120F63023A8F74F7120A7F7456
:103B8300FA120FE1E9FE780179017F0080037900E1
:103B93000F124EF2E0FCEFC39C5026EF75F007A422
:103BA300FC85F008AD08EA2CFCEB3DFD1244E1E096
:103BB300A2E050DA540C60D6E0A2E250D378008041
:103BC300CF8A828B83A3A3A3A3A3A3E0703DE9A21F
:103BD300E0400574016E70338A828B83A3A3A3A391
:103BE300A3A37401123ED1E0C0E0740312124CD0BF
:103BF300E0124540E0C0E0740412124CD0E0F074CF
:103C03000512124CE8125E1B122183740602475EF2
:103C1300C082C083790112204B025C5774F4120AEC
:103C23007FEA4B9016DF6019E4F08A088B09F50AE6
:103C3300F50B7808120F2D7A02123145120F6380AB
:103C43000A7401F07A027B0012313202322D74F0D1
:103C5300120A7F74F3120FE1740312124CE4F0A3FF
:103C6300F0901474123EFF740112124CE4F0A3128C
:103C73004BE804F09014AEE0A2E35003023D44127B
:103C83003EC5740912124C12121D740912124C789B
:103C9300081211D99014767808120FC974051212FC
:103CA3004C78081211BB123DC8740512124C7808E7
:103CB30012118C50077A017B00023DB57405121274
:103CC3004C780C1211D99016CBE0F509780C7908D1
:103CD300120A10A80CA90D9016CCE0C398E49950D1
:103CE30003E08001E8852182852283F074091212A2
:103CF3004C78081211D9C008C009C00AC00B74055A
:103D030012124C780C1211D9123DC8780C79081292
:103D13000A10E4F50AF50BD00FD00ED00DD00C78B5
:103D23000C790812109C901476780C1211BB801138
:103D3300123DBA126E56EEFAEFFB12182FAE08AF11
:103D430009EE4F60658E828F831233B8C398502D6E
:103D5300EE2403F8E43FF9E0FA88828983E0C39A0A
:103D6300F06023740312124C124222740112124C9B
:103D7300EEF0A3EF126309FEA3E0FF80C48E828FEF
:103D830083A3A3A3E4F08E828F83127B4D7401126D
:103D9300124C1253888E828F83A3A3A3A360911224
:103DA30062E212124C123DC18089740312124C124A
:103DB3004D76740D026A851240C090147422125E0F
:103DC300A7A3A3A3229016CA127B55E4F50AF50B09
:103DD3002274F0120A7F8A088B09890A7800790015
:103DE300901474123EFFFBEE4B601E088E828F838D
:103DF300A3A3A3A3124D40601008E87001098E82AB
:103E03008F83123EFBEA4F70E39016CD124D76C3BB
:103E1300E89AE99B4003023EB87A06123EBBA80C1F
:103E2300A90DEA497003023EB88A828B83E508F044
:103E3300A3E509123EDAE50AF09016CC124EFA1207
:103E43003ED1A3E4F0A3F0901474124D40600D8EA4
:103E5300828F83A3A3A3A3126E56801790147412A8
:103E63006E569014AEE0A2E34009123EC59014765C
:103E730012121D9014AEE0A2E3503A7A087B009030
:103E83001459E0F9121901EA4B4C4D70289016CAE7
:103E9300E0F508A3E085080CF50DE4F50EF50F78C1
:103EA3000C120F2D7A087B00901459E0F91218F5C3
:103EB3007404120F63026A887B001218298A0C8B20
:103EC3000D22121913EAF8EBF9ECFAEDFB22123E7C
:103ED300D522123EDAA322F08A828B83A3A322E5A2
:103EE30008F0024761F08E828F83A3A3A3A3A3A349
:103EF300221257F2A3A3F022A3A3A3A3E0FEA3E0FD
:103F0300FF227F05020CA9F582E43509F583E0F968
:103F130022EA123F19222410F582E422123F27A33A
:103F2300A3A3A3221240C485088285098322123FDA
:103F33003522F0850A82850B83A3A322E50E241183
:103F4300123F65E022E50E240E123F6522E50E24A2
:103F530010123F65E022123F5D22EE123F193FF53A
:103F63008322F582E4350FF58322240FF50AE43525
:103F730009F50B780A22E0F91217AB8A088B09EAD4
:103F83004B2274F2120A7F890B8A088B098A828B6F
:103F930083124D7612206FEA4B600479B8806A125F
:103FA300207BE9F8902F0CE493F9E8C39940047956
:103FB300B280567A15123EBBAE0CAF0DEA4F7004B9
:103FC300791080458A828B83E4F0A3123EDAE50BF5
:103FD300F0750A007808120F317C127D00EA240381
:103FE300126992120F6390147A1253887008901416
:103FF3007A800C1240BC8882898312400F70F4EEE1
:10400300F0A3EFF012208D7900024E62124D7AEA8E
:104013004B8882898322C082C08390147A80048C67
:10402300828D831276B4EC4D60288C828D83A3A39A
:10403300E069600574FF6970E68C828D83A3A3A396
:10404300E06A7003A3E06B70D6EC2403FAE43DFB53
:1040530080047A007B00025C5774F7120A7FE9FD43
:1040630074FE6D70047C0180027C0090147A8009D8
:104073006D70027C0188828983125388601F888255
:104083008983A3A3A3E06A7003A3E06B70E7ECA2A8
:10409300E088828983A3A3E050D6F9800279FE02E7
:1040A3004761EEF9800CA3A3127B55EE2274021232
:1040B3000F637F02020CA9F5831240C0221240C491
:1040C30022E0F8A3E0F9221240C48E828F832212E9
:1040D3000F637F03020CA9C082C083790090147A16
:1040E300800109E0FAA3E08A82F583E582458370C3
:1040F300F1025C5774F6120A7FE4F508F5097808B3
:10410300120F35902F0CE49375F013A4A9F012420B
:1041130017126EB4120F63E9FE74096E7003122056
:10412300870240A574F6120A7F74FE120FE18521FF
:1041330082852283E4F0A3F0A821A92288088909B3
:104143007808120F357508027509007808120F35C3
:10415300126B25120F630240B074F5120A7F74EBE1
:10416300120FE1852182852283E4F0A3F090147A73
:1041730080748E828F83A3A3E0C0E0740212124C7A
:10418300D0E0125839A982AA8389088A09750A00DE
:104193007808120F317C127D00740612124C126ED5
:1041A30079120F637402120FB18808890978081213
:1041B3000F357508137509007808120F357404124A
:1041C300124C12532B75F013A4F8AAF075F013E9EF
:1041D300124213126B2D120F6385218285228312E3
:1041E30042228E828F83123EFFEE4F7085A821A953
:1041F30022880889097808120F35750802750900A5
:104203007808120F35126B25120F6374150240D212
:10421300A42AF9E82402FCE439FD7A427B0022E077
:104223002401F0A3E03400F02274F4120A7F74EB4B
:10423300120FE17E007F00A821A92288088909784E
:1042430008120F357508028E097808120F357C00A5
:104253007D007A42126EC0120F63E9706C8E088083
:10426300567402120FB1880A890B780A120F35753A
:104273000A13750B00780A120F35E50875F013A4BD
:10428300F8AAF075F013E509124213126EC2120F69
:1042930063E9701B740312124CAA82AB837402127B
:1042A300124CE0F9122069E970050EEE70010F055A
:1042B30008E508700205098521828522831240BC26
:1042C300C3E50898E509994098EEFAEFFB741502E7
:1042D300322A74F6120A7F8C828D83A3A312452E91
:1042E300F0EA12614F3BF583E0C0E01244EBD0E00B
:1042F300F0EA241DF582E43B1240BA1244CF124582
:1043030029F0A3F0EA241FF582E43BF583123EFF74
:10431300EC1244C23DF583EEF0A3EFF01244C83B28
:10432300F5831244F9A3A3A3A3A3A3EEF0A3EF126F
:104333005DAAFE8C828D8312453874035EFEC3949E
:104343000340030244B5EE600874026E6003024347
:10435300DA8C828D83E0540CFE740C6E700302447D
:1043630019E0A2E4400D88828983E08C828D83A3C7
:1043730012454E74086E60030244191244D9740145
:10438300F08A828B83A3A3A3A3A31257FF70148C79
:10439300828D83E0440C124540A3A31244F9EEF04E
:1043A300A3EFF08C828D83E0A2E4402B8882124538
:1043B3000712451C500109F582124507A3A3A3A3C5
:1043C300A3A3F0A3EF1245488C828D83A3A3A3F08C
:1043D300E82403F850010988828983E0C0E0EC24D3
:1043E30011F582E43DF583D0E01245388C828D834C
:1043F300E0A2E7507588828983E0FE8C828D831268
:10440300454E74FC5E700C8C828D83A3E054036470
:1044130003701E0244B51244D9E4F0740C6E6003B9
:10442300024384888212450D12451C500109024340
:10443300A68C828D83A3E05403603288828983E053
:10444300C0E0EC1244F33DF583D0E012454F8C827B
:104453008D83E054036402701488828983E0C0E092
:104463001244E1D0E012454F8003A3E4F0EC125272
:10447300F73D126E54EC2410FEE43DFFEA241DF5D3
:1044830082E43BF583E0F5088E828F83E0C39825B1
:1044930008F508F0EA2417F8E43BF98882F583E08D
:1044A300C39508C0E01244CFD0E0125DAAC39508BB
:1044B300500A1244CFE4F01244EBE4F00240B52476
:1044C30015F582E422EA240DF582E422EC240DF5AD
:1044D30082E43DF58322EC1254B03DF58322EC24B3
:1044E30014F582E43DF58322EC123F193DF5832256
:1044F3002413F582E422E0FEA3E0FF8C828D83A3E4
:10450300A3A3A32212450DA3A3228983E0F508A345
:10451300E0FFE5088C828D8322A3A3A3A3F0A3EF7E
:10452300F0E82402F82212452EA322E4F08C828DB7
:1045330083A3A3A322124556A882A98322123ED5A0
:10454300A3A3A3A322124556A3E022A31245560810
:10455300A98322125DB3A32274F4120A7F74F312A7
:104563000FE18A0A8B0BECFEEDFF8C82F583E0549E
:104573000CF508E0A2E75006E508D2E7F508E508E0
:10458300D2E1F5081257FF7006E508D2E4F508E01A
:10459300A2E55006E508D2E5F5087C087D00790020
:1045A300AA21AB22121781740212124CE508126E73
:1045B3005AC0E0740312124CD0E0124BE8E50AF043
:1045C300A3E50BF0740512124C1266C612124CE0EE
:1045D3007077740812124C124B6E125D9C3812667F
:1045E300E1C0E0740812124C12466FD0E01266C1AB
:1045F300C0E0740812124C124665D0E0F074081241
:10460300124C12465BE0124B96124C171261B0EE3D
:1046130024111257CBC0E0124651D0E0F0EE24141F
:104623001257CBC0E0740812124C124B6E2435F5AE
:1046330082E438F583D0E0124BBBC0E07408121259
:104643004C124B72D0E012641A740D02322AE82421
:1046530032F582E439F583221240CAA3A3A3A3A3AC
:10466300A322124B821268C038F58322124B822494
:1046730026F582E438F5832274F7120A7F7E008AD6
:10468300828B83A3A3A3A3A3A3A3A3A3E064046034
:104693000302473D1254A8E0600302473D12530A48
:1046A3003B125386700302473D88828983E054039B
:1046B300600302473DE81254B039F583E0FA8C8277
:1046C3008D83A3A3E0FBA3E0CB2411F582E43BF5A8
:1046D30083E06A706588828983A3A3A3A3A3A3A3AA
:1046E300A3A3124741E06A7003A3E06B704C888276
:1046F3008983A3A312474DE0FFA3E0CF24061257FB
:10470300CB6A7003A3E06B703188828983A3A3E033
:10471300F88C828D83A3A3E0F9A3E0F5838982A3B8
:10472300A3E06860138C828D83A3A3A3E0F5838940
:1047330082E0540C640470027E01EEF9802012477B
:104743004522124D7E8C828D8322A3A3124745A35B
:10475300A322740C12124CE0F9740D120F637F0143
:10476300020CA974F6120A7F74FC120FE1EAFEEB45
:10477300FFECFAEDFB8C82F583A3E0540360169003
:10478300147012538860597900EEFCEFFD125FA795
:10479300120C0A804B852182852283EEF0A3EFF071
:1047A300740212124C124BDDAC21AD227AA57B2090
:1047B3001222CD8A088B09A808A909EA4960218A2F
:1047C300828B83A3A3A3A3A3A3A3A3A37406F07AB7
:1047D3000088828B83124B6E126170E0F912222BD8
:1047E30074040240B274F2120A7F74F3120FE1EA06
:1047F300FEEBFF8A82F583A3A3A3A3A3A3A3A3A38F
:10480300A3E0F50A9016DFE0700579BA024B26752E
:104813000801750900750C00750D007C087D007991
:1048230000AA21AB22121781740512124C740112D3
:104833004BF054046012740212124CE0D2E6124B95
:10484300F054087003750803E05410600674404583
:1048530008F508E054086022740212124CE044C0C8
:10486300124BF05420600A740312124CE0D2E08021
:1048730008740312124CE0D2E1F0EE24151257CB68
:10488300124B567003740169700674084508F508E5
:104893008E828F83A3A3A3A3A3A3A3A3E070161263
:1048A30023278521828522831261BD740212124C53
:1048B300E0D2E28030640F7010740212124C124B7B
:1048C300F874044508F508807F8E828F83A3A3A321
:1048D300A3A3A3A3A3E064028E828F83700A126E44
:1048E3008DE8F0A3E9F08060A3A3A3A3A3A3A3A3EC
:1048F300E06403700DAC21AD22EEFAEFFB1220DB76
:1049030080468E828F83A3A3A3A3A3A3A3A3E06460
:10491300017035901504E06010740212124C124BB2
:10492300F8750910750AFF8018740212124CE044DE
:104933000C124BE874FDF0A374FFF074044508F502
:10494300088E828F8312313DEE24151257CBA2E0DD
:10495300503F740212124CE0540C701B8E828F83F2
:10496300124D76121D45E9700579BB024B26740280
:1049730012124CE0D2E5F0EE24151257CBA2E05010
:1049830010740212124CE0540C64047004E0D2E57B
:10499300F0EE24111257CBC0E0740412124CD0E095
:1049A3001266C812124CE06003024B1F7408121205
:1049B3004C124BB1E508F0A3E509F0124B4CE0C0F3
:1049C300E0124B42D0E0F0124B33E0C0E074081227
:1049D300124C124B6E1244F338F583D0E0124C178D
:1049E30064017011901504E0C0E0740812124C12B7
:1049F3004B8CD0E0F0740812124C124BAC124B3DAE
:104A0300FAE8241CF582E439F583EA124BE3EE2439
:104A130015FAE43FFB8A82F5831276B4E8125B074A
:104A230039F583124BDDEE241C1257CBC0E0124B39
:104A330029D0E0125C4D124B567003740169701358
:104A4300740812124C125498FAEE241D1257CBF923
:104A5300121FAF8E828F83A3A3A3A3A3A3A3A3A396
:104A6300E0C0E0740812124C12466FD0E0F07408F4
:104A730012124C124665E50AF0740812124C1253D6
:104A83002B2428F582E439F583E50CF0A3E50D1218
:104A93004BC3124B961258441261B0EE124B3DC0F9
:104AA300E0E82433F582E439F583D0E0F0EE241B0B
:104AB3001257CBC0E0740812124C124B72D0E0F0C4
:104AC300EE241A1257CBC0E0740812124C124B6E2C
:104AD3002432F582E438F583D0E0124BBB124B62EB
:104AE300120F311268C61276B4740B12124C124BA9
:104AF3006E242F127B90120F63EE24151257CB54A2
:104B0300406012901490125388600AAA21AB2212BB
:104B13005FA7120C0AAA21AB2212214D740C1212A8
:104B23004CE0F9024E5DE82420F582E439F5832256
:104B3300EE2419F582E43FF583221268D5E022E8DA
:104B43002412F582E439F58322EE2418F582E43F3A
:104B5300F583225480F8A3E05401F974806822F5A8
:104B630008A3E0F509750A00780822124B82221285
:104B73004B822434F582E438F58322A3A3A3A31242
:104B83004B8622E0F8A3E0C822124B821244C238BB
:104B9300F58322FAA3E0FBE8242AF582E439F583BE
:104BA300EAF0A3EB22A3A3A3A31240C0EE22125365
:104BB3002F12530F39F58322F0EE241312584C228F
:104BC300F0EE240D12584C22E0FC8A828B83E02CF9
:104BD300FCA3E03400FD8A828B83ECF0A3EDF0228A
:104BE300F0A3E4F022F085218285228322F0EE24D3
:104BF3001512584C22E0D2E3F0124C00228E828F21
:104C0300831240C4852182852283E8F0A3E9F02240
:104C1300E8F0A3E9126303E02274F7120A7F8A82A1
:104C23008B83A3E0640170047E6380027E648A82C6
:104C33008B83E060087905124C5024F3FE9014AC8A
:104C4300E06007F9124C5024F2FE02473D1221F5B1
:104C5300E9F8EEC3982274F6120A7F74FE120FE18C
:104C63008521828522831261BDE9FEECFAEDFB907A
:104C730005341253886032A821A92288088909784B
:104C830008120F357D01740E12124CE0FCEEF99000
:104C93000534126191120C0A7402120F63EA4B601D
:104CA300047900800679B2800279B60240B074F7C5
:104CB300120A7FE9FE901466125388601F7409126A
:104CC300124CE0F5087808120F39EEF990146612C9
:104CD3006191120C0A7401120F63800279B60247C4
:104CE3006174F7120A7F8908ECFEEDFF79B5E508D8
:104CF300245E602014600624F86034803D900536FD
:104D0300124D406035126ED1120C0A8E828F8312BF
:104D130061BD80249014681276B4EC4D601CEEFCE7
:104D2300EFFD901468126191120C0AE9F9800B905F
:104D33001464124D4612192B7900024761124D7A01
:104D4300EA4B221276B8EEFAEFFB2274F7120A7FCF
:104D5300E9FE79B574AB6E700B901464124D761244
:104D6300192B79000247618E828F83A3A3A3A3A388
:104D7300A3A3A3124D7A22124D7E22E0FAA3E0FBF5
:104D83002274F1120A7FEAFEEBFF8C0A8D0B750881
:104D9300019014B4E06E7003A3E06F700C124E51D7
:104DA300AA0AAB0B12192B805E12232DEE6A700236
:104DB300EF6B7009AA0AAB0B122333804AAC0AAD1E
:104DC3000BEEFAEFFB121E83E9F5089016D2E070A2
:104DD300361227B9E97030E508702C901484E06E20
:104DE3007003A3E06F7020EE4F601C750C7C750D93
:104DF30014750E00780C120F317C087D00AA0AABE3
:104E03000B126E7D120F63A9080277B074F2120AB7
:104E13007FEAFEEBFF8C088D09750A01124E51EEF5
:104E2300FAEFFB121925E9640170119014B41240D2
:104E3300BC850882850983126E56800EAC08AD09C5
:104E4300EEFAEFFB121E89E9F50AA90A8011122373
:104E5300218A0C8B0DAC0CAD0D22740D120F637FE8
:104E630006020CA974F6120A7FEAFEEBFF7A0D7BA9
:104E730000121829EA4B6062EE2424126B5AF0EEFA
:104E83002425126B5AA3124F1F126B60A3A312683F
:104E9300F3124EFAF0EE124EE0124F0FE8F0A3E9D0
:104EA300124F36124F07126E56EE124EE91269B6C2
:104EB300A3A3A3A3F0EE24331257CBC0E0124EF208
:104EC300D0E01266E5124F07A3A3A3E8F0A3E9120B
:104ED3004F2EC0E01254A8D0E0F00240B5242AF5CA
:104EE30082E43FF58322242EF582E43FF58322EA10
:104EF3001259213BF58322124EFE22E08A828B83D4
:104F0300A3A3A322126A15A3A3A3A322124F1322BE
:104F13001240C48A828B83A3A3A3A322F0124F243B
:104F230022EE2426F582E43FF58322F0EE243212AA
:104F3300584C22F0EE242C12584C2274F4120A7F9F
:104F430074FE120FE1ECFEEDFFEC24161257CB6456
:104F5300057010EC2406FCE43FFD1220D5E9700334
:104F6300024FEAAC21AD22126C0F121D4B85218238
:104F7300852283125388606B8E828F83E064017075
:104F830058E875F009A4F8AAF075F009E9A42AF91C
:104F930074DD28F8740139F9E8FAE9FB8882F583AE
:104FA30078081211D9EE12508C12118C40278521EA
:104FB30082852283124BAC1257D9124FEF78081215
:104FC30011D99086A478081211108A828B837808ED
:104FD3001211BB800A79A28010EE240F126E507951
:104FE30000800679A1800279C8023228124C0DEEA6
:104FF3001268E12274F2120A7F8A0C8B0DECFEED2B
:10500300FFEC1257D9E4F0A3F090865878081211F8
:10501300D9EC12508C1210376067EC240E1257D261
:10502300703478B39014ABE070289014DDE0640121
:105033007020EC24111257CBF91221DD8B09A90939
:10504300EE12530B3F1261BBEA4960047800800201
:1050530078A18808802EE060046402700A1220E7B9
:10506300E9F5087007801DE064037010EEFCEFFDA6
:10507300AA0CAB0D121D6FE9F50880087508A18015
:10508300037508A3A908024E621268E17808227426
:10509300F0120A7F74F5120FE1EAFEEBFFEA240A2D
:1050A300FCE43F8C82F583127B5112531574031277
:1050B3000FC18A828B83125FB1E9700302517B7443
:1050C30001120FC17403120FB9121D4B7401121296
:1050D3004C125388700302517BE875F009A4F8AAB7
:1050E300F075F009E9A42AF974D928FC740139FD93
:1050F300E508240E126402E4F00412124C1240BCC0
:10510300E50812530B3509126E548C828D831212EB
:1051130011E508241212640212121D9086A4780865
:105123001211D98C828D8378081211238C828D837E
:10513300780C1211D990871078081211D9780C794C
:1051430008120A10E5084509450A450B702A74013F
:1051530012124C12532B75F009A4F8AAF075F0093A
:10516300E9A42AF974E128F582740139F5837401FD
:10517300F07A007B081253388E828F83A3A3A3A3F4
:10518300A3A3A3A3A3A3E02406FCA3E03400FD8E02
:10519300828F83125FB11266D3603EEE240A1252ED
:1051A300FD124BB17468124BE3E81252F739F583E1
:1051B3007402F09014961212118C828D831261AADC
:1051C300125D9C3CF58312121D9086A4780812117F
:1051D300D99014967808121123125373705D9014AA
:1051E30064125323A3A3A3A3A3A3A3A3A3A3125D03
:1051F300D2121925E97010125D90901464125DA209
:1052030070051266D360348E828F83A3A3A3A3A3F6
:10521300A3A3A3A3A3125323124D76121D75E96012
:10522300118E828F83A3A3A3A3A3A312535FE4F0DE
:10523300A3F08E828F83125345E4F01253736003FD
:105243000252F28E828F83A3A3A3A3A3A3127B4D47
:105253009014ABE060030252E79014DDE064016058
:10526300030252E7750A3A750B00780A120F357478
:1052730002120FB1880A890B780A120F3512714C8A
:10528300120F63E9705BE508240E126402740112C5
:10529300538DC0E0E5082411126402D0E0F0E50864
:1052A300240F126402743A124BE3901492121211F7
:1052B300E508241212640212121D9086A4780812C3
:1052C30011D990149278081211239086A4780812A9
:1052D30011D9901492780812103770081253348041
:1052E300031253151253737006125C9374A1F07476
:1052F3000B026A85240EF582E422F8E43FF9E8FC08
:10530300E9FD8882F58322EA12530F22240FF582E6
:10531300E422E50812530F3509F583E4F0A3F022E4
:105323001276B88E828F832212532F221240C4E842
:10533300227A007B0290133DE0F91217D5228A826C
:105343008B83A3A3A3A3A3A3A3A3A3A31253532214
:10535300124B86240EF582E438F58322A3A3A3A37C
:1053630012536722124B86240FF582E438F5832209
:105373008E828F83A3A3A3A3A3A3124B7E240FF533
:1053830082E438F58312532F492212539122F08578
:105393002182852283E02274F6120A7FEAFEEBFF64
:1053A3007A237B00121829EE240AF508E43FF50955
:1053B3008508821261BB7C237D00790012178185E9
:1053C3000882850983125388700302545BEEFAEF57
:1053D300FB1220F312537360748E828F8312548EE8
:1053E30064018E828F83A3A3A3A3A3A37007125484
:1053F30084740E802112538870101266D3700B8E42
:10540300828F83A3A3E0A2E0500712547A740D8025
:105413000512547A74051266E55403640170071289
:1054230054627405800B9014ACE0C0E0125462D057
:10543300E012549DF58388821257F8850882850906
:1054430083124B6E12614F38F583E9800E85088213
:105453008509831262348003126177F00240B58EAE
:10546300828F83A3A3A3A3A3A3A3A3A3A31254746D
:1054730022E0126196A3228E828F83A3A3A3A3A308
:10548300A3124B7E12615538F58322A3A3A3A3A3D2
:10549300A3A3A3A3A3125353E0221254A122126C79
:1054A30024F8A3E022EA1254B03BF58322240CF53E
:1054B30082E42274F1120A7F74E4120FE18A0C8BE6
:1054C3000D8C088D097A237B001218298A0A8B0B0D
:1054D300AE0AAF0BEA4F70030257B312615BE508E4
:1054E30024151257E4687003A3E0698E828F8370DA
:1054F30004740280027401F0E508240DF8E4350910
:10550300F98882F583E0FAC3E49AFA95E0FB12572F
:10551300E02AFAA3E03BFB8E828F83A3A3A3A3120B
:105523005DB98E828F83A3A3F0EE2420F582E43F3E
:10553300F583E4F0EE2421F582E43FF583E4F0EE15
:10554300FAEFFB1221A78508828509831257FF70A2
:10555300098E828F83A3740580069014AC1257EDD5
:10556300F0EE2417F50AE43FF50B8E828F83125772
:10557300F8E9850A82850B83F0EE2416F8E43FF9F7
:10558300E508240EFAE43509FB88828983124BCBA4
:10559300E5082410FAE43509FB850A82850B83E0CC
:1055A300FC88828983E0F88A828B83E0C398C39C5A
:1055B300F8125839F0EEFCEFFDAA0CAB0D1220EDFA
:1055C300E9F50B8E828F83E064027006125D901200
:1055D30057BDE50B60030257AA750C00750D0090CB
:1055E30016D2E064016005E06402703F1257CF6099
:1055F30008EE24211257D270328E828F83A3A3A385
:1056030012617D125805EE24161257CB12582EFA4A
:10561300E439FB123EBDEA4B60111269DF120F3110
:10562300125813AA0C126E7D120F63EEFAEFFB12DF
:1056330021B3E9F50B9016D2E064016008E064023F
:10564300600302579DE9700302579DE50C450D70F9
:10565300030257AA8003850E0B1257CF600BEE246B
:10566300211257D260030257A3850B0E850C0885C0
:105673000D09750A007808120F311258138E828FA4
:1056830083A3A3A3A3127B96120F63EE24201257C6
:10569300CB600D1257D87468124BE3EE24208015AB
:1056A300EE24211257CB60151257D87403F0A3745C
:1056B30001F0EE2421F582E43FF583E4F0EEFAEF06
:1056C300FB1221B3E9F50B70907C137D0079007414
:1056D30009120FB9121781741A12124C740112585D
:1056E3004464687002A3E0704F8E828F8312535F0D
:1056F300E0640560030256597C0879FF8E828F832C
:10570300A3A3A3A3E0242A125DD512180BE9700307
:105713000256597C087D0079FF7401120FB91217E4
:10572300817401120FC17A007B0079AB1220CF7410
:105733001912124C74FC80151257D8E064037004DC
:10574300A3E064017008741912124C74FFF0E4F5BD
:1057530008F5097808120F357402120FC174131279
:10576300124CAA82AB831262BA120F63852182851F
:105773002283E0602B7409120FB188088909780825
:10578300120F357508137509007808120F357C0060
:105793007D00126B2D120F638006E50C450D60072B
:1057A300AA0CAB0D12182FEEFAEFFB12182F800381
:1057B300750B10A90B741C0277ADEE2406FAE43FB7
:1057C300FB12192B22EE240C12584C22EE24201229
:1057D300584C640122EE12530F3FF58322E508244F
:1057E3000EF582E43509F583E0221257F2A322E095
:1057F3008E828F8322A3E0F91221F522E054036401
:10580300012212580922E0FAE82AF8E43400F922C6
:105813008E828F83A3A3A3126181125809EE2416EB
:1058230012584C12582EFCE439FD22FAE82AF8E407
:1058330039F9E824042212583D221266F4A3A3A3E3
:1058430022F012584922EE240FF582E43FF583E05B
:10585300227901020EF874F4120A7FEAFEEBFF8A42
:1058630082F583A3A3A3A3A3A3A3A3124B6E242410
:10587300F582E438F5831257FF702E8A828B8312E8
:10588300548E7025125927E06405701D125927A301
:10589300E0F8740168600574066870071253417478
:1058A3000280051253417403F0EA240A126228129B
:1058B3006191E4F0EA2408F8E43F1232172431F549
:1058C30082E43AF583E0C0E0126EC8A3A3D0E012ED
:1058D3005946CA242EF582E43AF583E0C0E0126EFD
:1058E300C8A3A3A3D0E0125E6CC81259213812409A
:1058F300BA126EC812593B8A0A8B0BAC0AAD0B85E0
:105903000882850983125DD212192B8508828509C5
:1059130083124D761221B3126223F002322D240B2F
:10592300F582E4228A828B83A3A3A3A3A3A3A3A3C5
:105933001266BAF583888222A3A3A3A3124C0D1285
:10594300232122125DAEFAA3E022025854C082C082
:105953008390148674F9F0A37420F090148874056E
:10596300F0A37421F090148A740BF0A37421F090C7
:10597300148C74FFF0A37420F0025C5774F4120AC1
:105983007FEA2408FEE43BFF8E82F58312532B1239
:105993006167E0F50874035508F509125DCDF8A3B6
:1059A300E08882F583E508F0A3A882A983E509606E
:1059B30009740265096003025A6C740C5508FC6093
:1059C3000A74086C600574046C70267402650970AF
:1059D30006E508A2E4401A8A828B83A3A3A3A3A3A8
:1059E300A3A3A3125B721268C03D125B0DA308A9A7
:1059F30083740C6C701C125B6E2428125B5A24286F
:105A0300F582E43DF583A31264EEF0E82402F85036
:105A13000109740265097006E508A2E4404B125BB4
:105A23006E242A125B5A242AF582E43DF583A312DD
:105A33005B1C125B781264EE125B78A3125B14E8B2
:105A43002404F8500109EC600F74086C600A740CAC
:105A53006C600574046C701112619E2426F582E457
:105A63003C125B0DA3A882A9838A828B83A3A3A381
:105A7300A3A3A3A3A3125B3C54037014E508A2E100
:105A8300400E12619E125B073CF583E05480600870
:105A9300125B22125B0F801990145AE0C0E0125B74
:105AA30022D0E0125B4F88828983125B4F04125D20
:105AB300B3A3A882A983E508A2E750458E828F830A
:105AC300125B3C88828983125B55125B41540360ED
:105AD3003012619E2434F582E43C1264ECF0E50854
:105AE300A2E1501D8A828B83A3A3A3A3A3A3A3A391
:105AF30012321C2435F582E43A1264ECA3F0E82454
:105B03000302322D241EF582E422F583125B1CF07E
:105B130022125B1CA3A3A3F022E088828983228A3A
:105B2300828B83A3A3A3A3A3A3A3A3E0FCA3E0CC9F
:105B33002432F582E43CF58322E0125B4122FCA38C
