:020000040000FA
:060000000210190205FBCD
:03002B00020D7B48
:03003300020C6854
:0300530002052A79
:1000830002058C01010000000000F8FF07FFFF00DC
:10009300000504000000030001FFFFFFFF0005301F
:1000A3007500000020FD000206FFFF1E0A00190074
:1000B300B219000000000000000000000000000072
:1000C3000000000000000000000000000500010423
:1000D300010C0002045585038285010400004114CC
:1000E300000000E8030000FFFF92140188130000E2
:1000F300E80300002C012C01BC02A0BB0D00A0BB37
:100103000D00020202070401051E02051E020A0A6F
:10011300010108080103B80B02803E0102FEFFE85B
:10012300030A050001FFFF020A011401E0020000B7
:1001330000050301010F0300030003000300030094
:10014300030003000300030005000A001400280055
:100153004F009E000000DC2B00000000B02A0000CE
:100163000000FF000000FF001210476046121065F8
:10017300603DE9687008F618F618F618F6227480E0
:1001830067F712019F090909748067F72212106546
:10019300601D1210477005191919801A120F087083
:1001A3001F120ECCC37003E66733191919400718E1
:1001B30018182208080874FFF618F618F618F6221D
:1001C300120ECC60171210E5702192F01210D3704A
:1001D30019501720F014080808090909E7F6181937
:1001E300E7F61819E7F61819E7F6221210D360E6B6
:1001F300E869701F0808E62480F608E436F6185408
:100203007FB47F0CE654806007F6E418F618F622F4
:10021300181822E9C6CC08C6CD08C6CE08C6CFC07A
:10022300E0E8C0E0EAC0E0EBC0E009E9F809E7FA7A
:1002330009E7FBE6F918E6F8C3EC98ED99EE9AEBBB
:10024300C2E7F5F0EFC2E795F0500E600CEBCFFB81
:10025300EACEFAE9CDF9E8CCF8EAA2E7D2E7FAEB7D
:1002630033FB13F5F0EEA2E7D2E7FEEF33FFC5F061
:1002730013A2E730E601B313C5F0C3C0E0C0F07FBB
:1002830000C39BFB605E9418600F401D14601AD07E
:10029300E023F9D0E0F80203718AF0E9486003D261
:1002A300F0E4AFF0FAF9F8803BEB30E40D89F0EAC3
:1002B3006003D2F0E4AFF0F9CAF8EB30E30D88F055
:1002C300EF6002D2F0AFF0E4CAC9F8EB5407601450
:1002D300FBC3EA13FAE913F9E813F8EF135002D258
:1002E300E0FFDBEDD0E0C0E030E739C3E49FFFF58A
:1002F300F0EC98FC42F0ED99FD42F0EE9AFE42F0EC
:10030300D0E0F9D0E0F8E5F0607AE923F9EE20E7F0
:1003130042D8028067C3EF33FFEC33FCED33FDEECD
:1003230033FE80EAEC28FCED39FDEE3AFED0E02303
:10033300F9D0E0F84002801BC3EE13FEED13FDEC91
:1003430013FCEF135002D2E0FF08B800067F7F745E
:10035300FF802EEF3350178CF020F00260100CBC9E
:10036300000C0DBD00080EBE000408E860DFE93391
:10037300E813FFEE2313FE4F4D4C8008E95480FF32
:10038300E4FEFDFCEE33EF33F47004FCFD7E80D01D
:10039300E0FBD0E0FAD0E0F8D0E0CFC618CEC61824
:1003A300CDC618CCC6F92200121065604F12104753
:1003B3006012E7548066F6120F0870111210E57090
:1003C3003B090909F4F618F618F618F622120ECCB2
:1003D30070151210D308080860EAE6447FF6187611
:1003E3008018E4F618F6221210D360161210E57086
:1003F30012E4F608F608F608E65480F60909091827
:10040300181822EAC0E0EBC0E0ECC0E0EDC0E0E683
:1004130087F0A4FBACF008E687F0A42CFCE435F0ED
:10042300FA1809E687F0A42C4B60027401CA35F070
:10043300FCE433FB09E687F0D2F7A42CCB35F0FCC0
:100443001908E687F0A42BCC35F0FBE433FD08193B
:10045300E687F0D2E7A42C4ACB35F0CD3400FC0973
:10046300E687F0D2E7A42DCC35F0FDE433FA091882
:10047300E687F0D2F7A42CCD35F0CA3400FC08E6A9
:1004830087F0D2E7D2F7A42ACC35F07A7E20E70BA7
:100493000ACB33CBCD33CDCC33CC33CB33501470E9
:1004A30004ED30E00ED2F1E4CD3DCDCC3CCC3B505D
:1004B30005DA05C2F1EB547FC63308E63392F0FB4D
:1004C300E73309E733C39A502D2B70190C0D4C4DAC
:1004D30070151806E608C333700D20F10AA2F01355
:1004E300F6E418800B4024E4F630F002768018F628
:1004F30018F618F68024D33B14501074FFA2F0139F
:10050300F6187680E418F618F6800FA2F013F618A2
:10051300E63303F618ECF618EDF6D0E0FDD0E0FC78
:10052300D0E0FBD0E0FA22C0E074F1120914A2AFCC
:10053300E433F509D2AF85A708AFA1EF5508FE74E0
:10054300105E600612141875A1EF74085E6008123D
:10055300141E75A1F78024EFA2E092F0E508A2E053
:1005630082F05017906198E0F8900634E0C398A2A7
:10057300D265D0335002E8F075A1FE752300E5097A
:10058300A2E092AF7F020209D0C0E074F212091414
:10059300A2AFE433FED2AF9061A4E0F8759B00E50F
:1005A3009158540860087591F712146C8023E591F3
:1005B30058541060087591EF1214728014E591A2DB
:1005C300E092F0E8A2E082F05007E0C2E0F01215FA
:1005D300C89061A3E0F8E5E9585404600E12159E33
:1005E30075E9FB906193E0A2E640F2752300EEA269
:1005F300E092AF7F010209D0C0E074F2120914A2A5
:10060300AFE433FED2AF9061A5E0F8E5BF585404E0
:10061300600675BFFB1215E080D1C3E498F8E49936
:10062300F912065E8026C3E49AFAE49BFBE920E70D
:10063300E912065EE498F8E499F922C3E498F8E431
:1006430099F912065EE498F8E499F9C3E49AFAE496
:100653009BFB22EB20E7CFE920E7E0B90010BB00CA
:1006630008E88AF084F8AAF022E4FBC8FA22EB70C7
:10067300227B10C833C8C933C9335007C39AC3DBBD
:10068300F280069A50012ADBEAC833F4C8C933F46E
:10069300C9FA2275F008E4C833C8C933C933C99A03
:1006A300C99B5004C92AC93BD5F0ECFBC833F4C835
:1006B300E4C9FA2212070230F039120747803412D4
:1006C300070220F01430E72B74FFFCFBFA747F80E1
:1006D30022E4FCFBFA7480801AB48008BC00F2BBED
:1006E30000EF800F50EBF9E4C39AFAE49BFBE49C20
:1006F300FCE499C6CC18C6CB18C6CA18C6F922E4BE
:10070300C9C608CAC608CBC6D3330308CCC63392BE
:10071300F0C3947F402E94184019C9B90704CACB7B
:10072300CC225025C309CA33CACB33CBCC33CC3309
:10073300D9F422F4600DC9CCC313CB13CBCA13CAAB
:10074300D9F6CC22E4FCFBFA2214FCFBFA220808BB
:1007530008EAC0E0EBC0E086F0E7A4FA180986F0E7
:10076300E7A42AFA180986F0E7A42AFA180986F0FA
:10077300E7A42AFA1986F0E7A4FBE5F02AFA190898
:1007830086F0E7A42BFBE5F03AFA190886F0E7A414
:100793002BFBE5F03AFA18180986F0E7A4C5F02B0D
:1007A300FBE43AFA1908E7C5F0C6A426F6E5F03BE0
:1007B300FBE43AFA1886F0E7A4F6E5F00826F6E437
:1007C3003B08F6E43A08F6D0E0FBD0E0FA22E4CFA7
:1007D300C0E0E4CEC0E0E4CDC0E0E4CCC0E075F01E
:1007E30020E626F608E633F608E633F608E633F69F
:1007F300181818EC33FCED33FDEE33FEEF33FFC373
:10080300EC9709ED9709EE9709EF97191919400F1E
:10081300FFEC97FC09ED97FD09EE97FE191906D534
:10082300F0BFECF709EDF709EEF709EFF71919191E
:10083300D0E0FCD0E0FDD0E0FED0E0FF222521C5D2
:1008430082C0E0E52234FFC583C0E0E521C3958281
:1008530024F810AF088583228582218008858322AE
:10086300858221D2AFCEF0A3E520F0A37808E60875
:10087300F0A3DEFAEFF0A3E58124FAF8E608F0A38B
:10088300E608F0A3E608F0A30808E608F0A3E608E4
:10089300F0A315811581D0E0FED0E0F81581158114
:1008A3001581E8C0E0EEC0E0221210BEB9000302D9
:1008B30008FEE4900501782D79138002F0A3D8FC9B
:1008C300D9FA78239000867A01BA00028007E4936C
:1008D300A3F608DAF97A2D7B1790008778E579017A
:1008E3008015E493A3AD82AE838A828B83F0A3AA9F
:1008F30082AB838D828E83D8E9D9E77582147583A1
:10090300E77404120D5D7582F87583277400120D68
:100913005DC0D02521C582C0E0E52234FFC583C078
:10092300E0E521C3958224F310AF088583228582F5
:10093300218008858322858221D2AFC8F0A3E9F004
:10094300A3EAF0A3EBF0A37908E709F0A3D8FAEC44
:10095300F0A3EDF0A3EEF0A3EFF0A3D0E0F0A3D06B
:10096300E0F0A3D0E0F0A3E520F0A3E5F0F0A322AC
:10097300E9799EC608CAC608CBC608CCC6C3702090
:100983007996CACBCC7019798ECBCC70137986CC7F
:10099300700EF9802ACA33CACB33CBCC33CC33198C
:1009A30030E7F2CCCBCA3350147004EA30E00DE4E4
:1009B300CA3ACACB3BCBCC3CCC500209C3E913C6E1
:1009C300CC182313C6CB18C6CA18C6F922852283AE
:1009D300852182E0C0E0A3E0F9A3E0FAA3E0FBA352
:1009E3007808E0F608A3DFFAE0FCA3E0FDA3E0FE4D
:1009F300A3E0FFA3E0C0E0A3E0C0E0A3E0F5D0A341
:100A0300E0F520A3E0A3F5F010AF088583228582EB
:100A1300218008858322858221D2AFD082D083D0E2
:100A2300E0F8D0E03275F0108E248F258582298579
:100A33008328852182852283E0CEA3E0CF85298286
:100A4300852883EBC9EAC8EDCBECCAC3E833C8E910
:100A530033C9EA33CAEB33CBC3EA9EF527EB9FF5E1
:100A630026B35004AB26AA27EC33CCED33CDD5F017
:100A7300DAAE24AF2522121065601C1210476017EE
:100A83001210D370071210E57001D322C0D01210D8
:100A9300E57006D0D0B322C32233D0D0501430E057
:100AA300F6C3E7960809E7960809E7960809E79663
:100AB300B32220E0D5E6970809E6970809E69708E8
:100AC30009E697B322D083D082ECC0E0EDC0E0E426
:100AD30093A3FCE493A3FDED4C600D120BA0EC2457
:100AE300FFFCED34FFFD80EFE493A3FCE493A3FD4F
:100AF300ED4C600D120C3DEC24FFFCED34FFFD804A
:100B0300EFD0E0FDD0E0FCE493A3C0E0E493C0E0C9
:100B130022D083D082E9C0E0E493A3C386F0C5F07A
:100B230095F0F908E493A386F0C5F095F0700BE413
:100B330093A3C3994005E9048002A3E475F002A4DA
:100B43002582F582E5F03583F583D0E0F9E493A3BC
:100B5300C0E0E493C0E022852283852182E0A3FEE6
:100B6300E0A3F5207808E0A3F608DFFAE0A3FFE0AE
:100B7300A3C0E0E0A3C0E0E0A3C0E0E0A3C0E0E0E6
:100B8300A3C0E010AF088582218583228008858277
:100B930021858322D2AFD083D082020D63C0E0C30C
:100BA300E49396087401939618400FE493667008D3
:100BB30008740193661870007019A3A3C3E4939695
:100BC300087401939618A3A3400DD0E0D0E0D0E0C1
:100BD300020B04A3A3A3A3A3A3D0E0227404800461
:100BE30074028000CCC0E0EDC0E0E521C39CCCAD35
:100BF3002250011D10AF068C218D2280068C218D81
:100C030022D2AF120CDFD0E0FDD0E0FC22740280D0
:100C130000CCC0E0EDC0E0E521C39CCCAD22500187
:100C23001D10AF068C218D2280068C218D22D2AF20
:100C3300120CBDD0E0FDD0E0FC22C0E0C0F088F093
:100C4300E4936670080874019366187000A8F0A313
:100C5300A3700BD0F0D0E0D0E0D0E0020B04A3A34C
:100C6300D0F0D0E022C0E074F2120914A2AFE43352
:100C7300FED2AFE58BA2E050057904121340758BC9
:100C830000C2E8752300EEA2E092AF7F010209D013
:100C9300D083D082CCC0E0E493A36006120D1F146E
:100CA30070FAE493A36006120E621470FAD0E0FCAB
:100CB300E493A3C0E0E493C0E022CAC0E0E493A3BA
:100CC300C582CCC582C583CDC583F0A3C582CCC5FF
:100CD30082C583CDC583DAE5D0E0CA22CAC0E0E08D
:100CE300A3C582CCC582C583CDC583F0A3C582CC01
:100CF300C582C583CDC583DAE6D0E0CA22C008C366
:100D0300E096F50808A3E096420808A3E096420897
:100D130008A3E09645087001D3D00822C0E0E4930D
:100D2300A3D39C5010E493A3C39C400AD0E0D0E02B
:100D3300D0E0020CB0A3A3A3D0E0227009080808F6
:100D4300226016181818C6C333C608C633C608C6A9
:100D530033C608C633C6D5E0EA22C09FF59FE473C5
:100D6300D09F22D083D082C09FE493C0E0740193CC
:100D7300C0E0740293F59F22C0E0C0D0E8C0E0A8B1
:100D8300A8D2AFC2C7752300E8A2E792AFD0E0F8BC
:100D9300D0D0D0E0327404800A74038006740280D9
:100DA300027401C0E0F404120DCED0E012108122CF
:100DB30000C0D0252110AF08F521500C0522800872
:100DC300F52150020522D2AFD0D0222521F5821081
:100DD300AF08F521400C15228008F52140021522A9
:100DE300D2AF85228322BB0102E722C082C083895E
:100DF300828A83BB0003E08002E493D083D0822203
:100E03006016080808C6C313C618C613C618C61347
:100E1300C618C613C6D5E0EA222521F8E43522F91F
:100E2300222521FAE43522FB222521FCE43522FD8B
:100E330022C3E0C696F608A3E0C696F608A3E0C66A
:100E430096F608A3E0C696F622252110AF08F521F1
:100E5300400C15228008F52140021522D2AF22C092
:100E6300E0E493A36C7009D0E0D0E0D0E0020CB0D2
:100E7300A3A3D0E022C3E09608A3E09608A3E096DC
:100E830008A3E096A2D265D03322E066701008A3CF
:100E9300E066700A08A3E066700408A3E06622C354
:100EA300E7960809E7960809E7960809E796A2D2A4
:100EB30065D03322E76670100809E766700A0809EF
:100EC300E76670040809E76622191919E709470953
:100ED3007009E727097005E733F4220922C3E09676
:100EE300F008A3E096F008A3E096F008A3E096F0DC
:100EF30022C3E697F60809E697F60809E697F60887
:100F030009E697F622181818E60846087009E62637
:100F1300087005E633F4220822C3E49396087401AB
:100F230093960874029396087403939622E026F628
:100F330008A3E036F608A3E036F608A3E036F62267
:100F4300E627F60809E637F60809E637F60809E65C
:100F530037F622700422600D18C6C333C608C633A1
:100F6300C6D5E0F41822E056F008A3E056F008A333
:100F7300E056F008A3E056F022E657F60809E657D4
:100F8300F60809E657F60809E657F622E026F008C0
:100F9300A3E036F008A3E036F008A3E036F022E041
:100FA30056F608A3E056F608A3E056F608A3E05663
:100FB300F622E647F60809E647F60809E647F60883
:100FC30009E647F622E4C396F608E496F608E496A3
:100FD300F608E496F622600D08C6A2E713C618C603
:100FE30013C6D5E0F322C6F4C608C6F4C608C6F491
:100FF300C608C6F4C622C3E09608A3E09608A3E099
:101003009608A3E09622C3E7960809E7960809E73E
:10101300960809E7962275D00075813F7521017501
:101023002205000208AC600C08C6C313C618C61319
:10103300C6D5E0F422E6F008A3E6F008A3E6F0083C
:10104300A3E6F022E7094709C3134709336002E720
:1010530033F422E0F608A3E0F608A3E0F608A3E0E1
:10106300F622E6084608C3134608336002E633F463
:1010730022800100E9F874FF28F90470F622CAC03F
:10108300E0E6F0A308DAFAD0E0FA22E0F8A3E0F908
:10109300A3E0FAA3E0FB22E8F0A3E9F0A3EAF0A3BC
:1010A300EBF022EAF0A3EBF0A3ECF0A3EDF022E0E7
:1010B300FAA3E0FBA3E0FCA3E0FD22E5C754F84458
:1010C30001F5C77901222521F582E43522F5832232
:1010D300E62618461846184622C2AF75D69F020068
:1010E3000022E72719471947194722120D66DDD752
:1010F30002120D6644DA02120D66F0DA02120D6670
:1011030020DB02120D6680DB02120D6614DC021274
:101113000D66C5DC02120D6616DD02120D665ADD80
:1011230002120D66F4DD02120D6664DE02120D6614
:1011330093DE02120D6699DF02120D66C3DF0212FF
:101143000D6617E002120D66EBE002120D6619E35D
:1011530002120D66C7E302120D6634E602120D6633
:10116300B9E602120D66BCE902120D66E9EB021242
:101173000D662DEC02120D6686ED02120D6699EDD9
:1011830002120D66D6ED02120D6693EF02120D6682
:10119300FBE804120D662FE904120D6682E90412BE
:1011A3000D6685EA04120D662EF001120D66AAF093
:1011B30001120D66DDF001120D660BF101120D66D1
:1011C30049F101120D6686F301120D66A5F30112B2
:1011D3000D66EAF301120D6680F401120D66CCF47C
:1011E30001120D6660F501120D6639F601120D66E6
:1011F30095F601120D66F3F601120D6666F70112FC
:101203000D66AAF701120D6602F801120D6624F8A5
:1012130001120D66B4F801120D6645F901120D664F
:1012230091F901120D66BDF901120D66FEF9011265
:101233000D6694FB01120D6680FC01120D665BFDC9
:1012430001120D664CCF04120D6678CF04120D66A1
:1012530098CF04120D66BFCF04120D6606D1041297
:101263000D6639D104120D66F8D104120D6692D2BF
:1012730004120D6646F904120D664BF904120D664D
:101283007EF904120D667FFD03120D6646FE0312FE
:101293000D6658FE03120D66C8FE03120D6609F4AF
:1012A30004120D661AF404120D66B8F404120D66E6
:1012B300C3F404120D66DDF404120D66EE7F001212
:1012C3000D66EBFF03120D66ECF404120D66FCF4DD
:1012D30004120D6611F504120D66C5F504120D66B0
:1012E30004F204120D6688F204120D66F0F2041281
:1012F3000D66E8E204120D66FCE204120D6672E369
:1013030004120D66C1E304120D66F6E304120D66C2
:101313001BE404120D663EE404120D6679E4041224
:101323000D66A6E404120D66EDE404120D66D6EF15
:1013330004120D665DF004120D6666F004120D666C
:101343008DF004120D66D5F004120D66ECF0041254
:101353000D665FFC02120D666DFC02120D66E6FC63
:1013630002120D66BFFD02120D6682FF02120D66A8
:10137300C7FF02120D66E8FF02120D66F87F001226
:101383000D6607E504120D663FE504120D668DE652
:1013930004120D6611E704120D6675ED04120D6655
:1013A300C2ED04120D66EBED04120D667AB504125C
:1013B3000D66A6B504120D6610B804120D6650B87A
:1013C30004120D668CB804120D66A0B804120D66E3
:1013D300B9B804120D66ABB904120D665EBA0412F5
:1013E3000D6672BA04120D6635FE01120D6659FEC2
:1013F30001120D6672FE01120D66B0FE01120D663A
:10140300E0FE01120D660DFF01120D6617FF0112BA
:101413000D667DFF01120D6680FF01120D668AFFC6
:1014230001120D6697FF01120D66AEDB04120D6605
:10143300CEDB04120D660DDC04120D662BDC0412E8
:101443000D6646DC04120D66ACDC04120D66B8DCD6
:1014530004120D6615DD04120D6624DD04120D66FB
:1014630048DD04120D6609DE04120D6616DE041251
:101473000D6627DE04120D66747F00120D66BC7FB5
:1014830000120D66E87F00120D66C8BA04120D66DD
:1014930024BC04120D6632BC04120D6645BC041252
:1014A3000D665ABC04120D666FBC04120D6682BC35
:1014B30004120D66FEBC04120D6663BD04120D66B4
:1014C300EBBD04120D6663BE04120D663CBF04122D
:1014D3000D664CBF04120D665BBF04120D6629F73F
:1014E30004120D664DF704120D6675F704120D66AE
:1014F3009DF704120D6655DE04120D667CDE0412A0
:101503000D669ADE04120D6609DF04120D66DBD840
:1015130004120D66F4D804120D6600D904120D6688
:1015230014D904120D6632D904120D663CD9041283
:101533000D6646D904120D6659D904120D66DFD91A
:1015430004120D6654DA04120D6683DA04120D6672
:10155300D1DA04120D6620DB04120D663BDB0412A4
:101563000D6645DB04120D6656DB04120D6699DB2E
:1015730004120D66A9FF01120D66F4FF01120D6638
:1015830006A504120D6632A504120D664FA50412BA
:101593000D6662A504120D667DA504120D66D7A51E
:1015A30004120D6605A604120D6615AA04120D6633
:1015B30073AB04120D66A5AB04120D6608AC0412DE
:1015C3000D6674AD04120D669CAD04120D66B1ADCB
:1015D30004120D66C1AD04120D6601AE04120D6650
:1015E30043AE04120D6653AE04120D66A6EE04124A
:1015F3000D66C0EE04120D66E8EE04120D6601EFEF
:1016030004120D6625EF04120D6643EF04120D66F6
:101613005AEF04120D6688EF04120D66A3EF04124D
:101623000D66CBF504120D6611F604120D66C3CBDD
:1016330004120D66D3CB04120D66D8CC04120D66CA
:101643000ACD04120D663ACD04120D665DCD041267
:101653000D6674CD04120D66AECD04120D6613CE65
:1016630004120D6655CE04120D669CCE04120D664F
:10167300C9CE04120D66F4CE04120D66DFEA04121D
:101683000D66F1EA04120D6605EC04120D6608EC12
:1016930004120D66FEF004120D6634F104120D6699
:1016A3004CF104120D668EF104120D669EF10412C4
:1016B3000D66E2F104120D66ECF104120D6683AEC1
:1016C30004120D66C6AE04120D662BAF04120D662E
:1016D3004AAF04120D66ECAF04120D66F5AF0412A7
:1016E3000D6646B004120D666FB004120D667CB031
:1016F30004120D66EEB004120D667CB104120D6681
:10170300C1B104120D66FAB104120D665FB2041280
:101713000D6688B204120D66FFB204120D664EB355
:1017230004120D668BB304120D66C0B304120D666A
:10173300D2B304120D66E4B304120D6603B40412AB
:101743000D660CB404120D66CDB404120D6610B50B
:1017530004120D664EB504120D668FF804120D6661
:1017630035EC04120D66AAE004120D66E0E00412E3
:101773000D6628E104120D6681E204120D6678DE1F
:1017830003120D669EDF03120D66DADF03120D6688
:1017930098E103120D66C6E103120D6630E40312ED
:1017A3000D6670E403120D6612E603120D66A8E6D9
:1017B30003120D6602E703120D6692E703120D662C
:1017C300D6E703120D6618E803120D667DE90312CE
:1017D3000D66FDEA03120D663EED03120D666CED18
:1017E30003120D6698ED03120D66A1ED03120D664B
:1017F300FEED03120D6697EE03120D66AEF10312B2
:101803000D6634F203120D667FF604120D6697F629
:1018130004120D66A1F604120D66F7F604120D66A6
:101823008CBF04120D66A2BF04120D6643C00412DE
:101833000D6682C004120D669FC004120D66D0C0EF
:1018430004120D661DC104120D6651C104120D660A
:101853008CC104120D6689C304120D66EFC3041212
:101863000D6609F304120D6668F304120D66A6F300
:1018730004120D66E7F304120D6637F804120D66C1
:10188300008002120D660C8002120D666E80021239
:101893000D66788002120D66078102120D66438180
:1018A30002120D663C8202120D66998202120D66C7
:1018B300278302120D66788302120D66F8830212E3
:1018C3000D66BA8502120D66BF8702120D66B988CE
:1018D30002120D66EB8902120D663D8C02120D6633
:1018E300808D02120D66258E02120D66D3920212AE
:1018F3000D66C99302120D665F9402120D668494FD
:1019030002120D66219502120D663E9502120D66B6
:101913005E9502120D66CC9502120D66E9950212D0
:101923000D66179602120D66AF9702120D66D097D9
:1019330002120D66769802120D66BE9802120D66AB
:101943001C9902120D66BF9902120D66249A0212A7
:101953000D66839A02120D66359B02120D66A49BD7
:1019630002120D66DF9B02120D66539C02120D6676
:101973009E9D02120D662E9F02120D66CD9F0212CE
:101983000D660DA202120D666FA202120D669DA2D4
:1019930002120D66C0A402120D666AA702120D663A
:1019A3007DA802120D66699004120D6671910412EE
:1019B3000D666C9304120D667D9304120D669C9361
:1019C30004120D66C59304120D66CC9704120D66BE
:1019D300EA9704120D666E9804120D662699041296
:1019E3000D66E49904120D66B8F904120D6634C845
:1019F30004120D66EFC804120D6655C904120D6674
:101A030076C904120D6651CA04120D6647C9031242
:101A13000D6676C903120D66EEC903120D66FDCA83
:101A230003120D6659CB03120D66C6CC03120D6665
:101A3300E2CC03120D6634CD03120D6677CD03128B
:101A43000D668ACD03120D66E2CD03120D66A4CE98
:101A530003120D6620CF03120D6657CF03120D66D6
:101A63008FCF03120D6621D103120D6600D203122C
:101A73000D664ED303120D6631D403120D66BDD429
:101A830003120D66FDD403120D661CD503120D66F9
:101A930067D503120D6687D503120D6620D6031290
:101AA3000D66A6D603120D6601D703120D6641D744
:101AB30003120D66D7D903120D66F0DA03120D6611
:101AC30036DB03120D662BDC03120D6653DC0312A7
:101AD3000D6656DC03120D6660DC03120D667CDCBA
:101AE30003120D66F6DC03120D662FDD03120D667D
:101AF3005BDD03120D6682DD03120D66A6DD0312A4
:101B03000D6617DE03120D662ADE03120D6659DE1B
:101B130003120D66C2F704120D66CEF704120D66AA
:101B230002F804120D66EB7F00120D6618B3031260
:101B33000D663BB303120D6688B403120D66D1B470
:101B430003120D663DB503120D669BB503120D66B8
:101B53009EB503120D66EFB503120D6664B603124C
:101B63000D66E9B603120D66ECB603120D666DB78A
:101B730003120D66AEB703120D669ABB03120D6610
:101B830044BD03120D6694BD03120D661BC10312FF
:101B93000D66D3A004120D66C8C303120D6665C497
:101BA30003120D6650C503120D66A5C703120D6619
:101BB300008004120D6694D402120D66158104127E
:101BC3000D66308104120D66B58104120D660F8215
:101BD30004120D66568204120D66BD8204120D6650
:101BE3003C8404120D666B8504120D66F3850412A2
:101BF3000D66FC8704120D66A98804120D664D89D3
:101C030004120D661E8A04120D66D98B04120D662A
:101C1300CAD202120D66048E04120D662A8F0412B4
:101C23000D66008003120D66638003120D66AB80A0
:101C330003120D66EF8003120D664A8103120D66CF
:101C4300A78103120D66E28103120D6664820312FB
:101C53000D66BE8203120D663C8403120D66BC84BE
:101C630003120D66178503120D66318503120D6687
:101C7300528503120D66AC8503120D662888031284
:101C83000D66478803120D66378903120D666A8A4B
:101C930003120D66E98A03120D66258B03120D6686
:101CA300948B03120D66498C03120D66218E031269
:101CB3000D66288F03120D66A09003120D6696928F
:101CC30003120D660C9503120D66E69603120D665C
:101CD300A79703120D661F9803120D663698031219
:101CE3000D662D9903120D66219A03120D66909AC3
:101CF30003120D66E9D504120D6640D704120D6672
:101D0300FFD704120D6667D804120D66C4D20412FD
:101D13000D66DFD204120D6623D304120D6649D378
:101D230004120D6670D304120D6688D304120D6677
:101D33002AD404120D663FD404120D6662D5041230
:101D43000D666BD504120D6674D504120D667DD530
:101D530004120D6687D504120D66FA7A00120D6619
:101D6300067F00120D660B7F00120D660D7F0012B9
:101D73000D6688E704120D66E0F904120D668CF90E
:101D830004120D66E7F804120D66F7F804120D66E7
:101D9300FCC304120D669EAC02120D66D1AC021296
:101DA3000D663DAD02120D66D8AD02120D6675AE1D
:101DB30002120D66BAAE02120D66DCAE02120D6699
:101DC300F5AE02120D661BAF02120D663DAF021295
:101DD3000D667BAF02120D66BFAF02120D66E1AF57
:101DE30002120D6643B002120D660AB102120D66AD
:101DF300C1B102120D6633B202120D66FEB20212B7
:101E03000D6651B302120D66B7B302120D66F1B33C
:101E130002120D6643B402120D66B1B402120D66CE
:101E23001CB502120D661FB502120D66A0B5021293
:101E33000D6637B602120D66B7B602120D66D6B638
:101E430002120D663AB802120D6647B802120D6609
:101E530053B902120D6660B902120D6669B9021216
:101E63000D6641BB02120D665BBC02120D66D4BC4B
:101E730002120D6646BD02120D6668BD02120D66A2
:101E8300FCBD02120D66D0BF02120D66A7C302127B
:101E93000D66BBC302120D66CBC302120D66D5C31A
:101EA30002120D66DEC302120D66E7C302120D664F
:101EB300F1C302120D661EC402120D6647C402125C
:101EC3000D6652C402120D6676C402120D669AC4E0
:101ED30002120D6604C502120D664AC502120D6692
:101EE30067C502120D66E4C502120D661BC6021217
:101EF3000D665AC602120D66A7C602120D662DC7DD
:101F030002120D66FBC802120D667EC902120D662F
:101F130062CA02120D66C9CC02120D6622CD0212EC
:101F23000D666CCD02120D66C7CE02120D66FCCE95
:101F330002120D664ECF02120D6603D002120D6619
:101F4300B2D002120D66EFD002120D6684D10212D6
:101F53000D66F0D102120D663D2E00120D666F2E36
:101F630000120D669D2E00120D66733000120D6671
:101F7300533100120D66AB3100120D66E6320012CA
:101F83000D66323300120D665B3600120D664E3954
:101F930000120D669E3A00120D66343B00120D6668
:101FA300403B00120D66723B00120D66F53C0012B9
:101FB3000D66A63E00120D663A3F00120D667D3F88
:101FC30000120D66FB3F00120D66184000120D66ED
:101FD300484000120D667D4000120D664D4100120F
:101FE3000D66F64100120D667C4400120D669C4599
:101FF30000120D66874600120D66094700120D6632
:102003003D4B00120D667A4B00120D66D24B001247
:102013000D66054C00120D666F4C00120D66A54C43
:1020230000120D66304D00120D66884D00120D66CC
:102033005F4E00120D66184F00120D66B34F00126B
:102043000D66BB5200120D66D75300120D667A5708
:1020530000120D666E5800120D66715800120D665F
:10206300A05800120D66A65A00120D667F5B00127F
:102073000D66C25B00120D66185D00120D66575D9A
:1020830000120D66E05D00120D66145E00120D660F
:10209300D95E00120D66F16000120D6662610012D6
:1020A3000D66A26100120D66306200120D66526366
:1020B30000120D66146400120D661B6600120D6695
:1020C300336600120D66476600120D667F660012C6
:1020D3000D66AD6600120D662C6800120D6651691F
:1020E30000120D66AE6900120D66606A00120D667D
:1020F300876A00120D664E6B00120D66E66B0012C6
:102103000D660C6E00120D66416E00120D66A46E14
:1021130000120D66D36F00120D667B7000120D6600
:10212300AC7000120D66C47000120D66537100127C
:102133000D66077400120D66DF7500120D66FB75E0
:1021430000120D66177600120D66E57600120D6615
:10215300D87A00120D664C8601120D667E86011236
:102163000D666D8A01120D66B98A01120D66FF8A2A
:1021730001120D66A18B01120D66FD8B01120D6616
:10218300428C01120D66898D01120D669D8E01121E
:102193000D668C9201120D66109301120D661D944B
:1021A30001120D66799401120D66699601120D668E
:1021B300DE9601120D66E89601120D66F596011280
:1021C3000D66209701120D66079801120D66B198EE
:1021D30001120D662F9901120D664F9901120D66BA
:1021E300789901120D669A9901120D66FA9B0112F4
:1021F3000D66C09C01120D66059D01120D66829D40
:1022030001120D66339E01120D66659E01120D6665
:10221300AB9E01120D66E79E01120D66379F0112F8
:102223000D668B9F01120D66E19F01120D662DA0B5
:1022330001120D669AA001120D6615A101120D6619
:10224300E0A201120D66E0A301120D6605A50112BD
:102253000D6644A801120D6657AB01120D6614AC4E
:1022630001120D6658AC01120D6608AE01120D661F
:102273001CAE01120D6626AE01120D6630AE0112C0
:102283000D663CAE01120D6658AE01120D6603AF2A
:1022930001120D6642AF01120D664CAF01120D66BD
:1022A30056AF01120D66C6AF01120D6611B00112D1
:1022B3000D6626B101120D6682B101120D6603B2DD
:1022C30001120D66C2B201120D66CBB301120D6687
:1022D300FFB401120D66EDB501120D6605B60112CC
:1022E3000D6660B601120D667EB601120D66C6B6A6
:1022F30001120D66EDB601120D6688B701120D6667
:102303004EB801120D66E0B801120D665AB90112FA
:102313000D6674BA01120D6621BB01120D6649BC2C
:1023230001120D6699BC01120D66FDBC01120D660A
:102333005FBD01120D668DBD01120D66B1BD0112A7
:102343000D66E6BD01120D6617BE01120D664ABE8B
:1023530001120D666ABE01120D66D2BE01120D6630
:10236300C6BF01120D6621C001120D664AC00112DB
:102373000D66D2C001120D6655C101120D6680C1F2
:1023830001120D6665C201120D664AF102120D6655
:1023930082F102120D66A3F102120D66E5F102123B
:1023A3000D6647F202120D6651F202120D6661F2DA
:1023B30002120D669CF202120D667CF602120D6685
:1023C30069F802120D664FFA02120D66E6FA02125E
:1023D3000D6688FB02120D6667C401120D66E5C423
:1023E30001120D6641C501120D668CC501120D6601
:1023F300A7C501120D66D2C501120D66EFC5011204
:102403000D66FBC501120D6692C701120D66ABC7BF
:1024130001120D6630C801120D6643C801120D6624
:1024230062C801120D6606C901120D6687CA011240
:102433000D663ACC01120D66D0CC01120D66D3CCD9
:1024430001120D6643CD01120D6661CD01120D66B9
:10245300F8CD01120D6640CE01120D6643CE011276
:102463000D6609CF01120D6676CF01120D669CCF62
:1024730001120D6627D001120D6645D001120D66BB
:102483008BD001120D663FD101120D6689D1011265
:102493000D66B8D101120D6615D201120D664AD22E
:1024A30001120D6676D201120D6684D201120D66F9
:1024B300D1D201120D6641D301120D668AD30112E6
:1024C3000D66D6D301120D6602D401120D660DD42A
:1024D30001120D662BD401120D6616D501120D667D
:1024E30020D501120D665BD501120D666BD5011265
:1024F3000D6674D501120D66C8D501120D66DCD5C3
:1025030001120D660BD701120D6622D701120D665B
:1025130037D701120D66C5D701120D660AD801120D
:102523000D6696D801120D66A1D801120D66E3D986
:1025330001120D66FED901120D664ADA01120D660B
:10254300B9DA01120D66F2DA01120D660CDB011223
:102553000D664EDB01120D661EDE01120D66CBDE2B
:1025630001120D6638DF01120D6678E101120D6666
:1025730090E101120D6693E101120D669FE10112D4
:102583000D66B3E101120D66BBE101120D66EEE1CA
:1025930001120D66F0E201120D6677E301120D667A
:1025A300E7E301120D6669E401120D662AE50112E3
:1025B3000D6649E501120D66EAE501120D6647E66F
:1025C30001120D664AE601120D6677E601120D66E9
:1025D3008CE601120D6600E701120D664FE8011249
:1025E3000D6655E901120D66E0E901120D66FBEA7D
:1025F30001120D66C3EB01120D66F4EB01120D66B9
:1026030017EC01120D6620EC01120D664FEC01125E
:102613000D66DFEC01120D6695ED01120D660AEEF3
:1026230001120D66B1EE01120D6626EF01120D6661
:102633005DEF01120D669BEF01120D66D1EF0112E2
:102643000D66E8D302120D6630A004120D66309FAA
:1026530004120D66499E04120D66399C04120D6620
:10266300479B04120D66E59A04120D6604B3031228
:102673000D66FAB203120D668FB203120D66C0B077
:1026830003120D667EB003120D6645D302120D666A
:10269300AA8004120D6682AF03120D6656AF0312B1
:1026A3000D6697D202120D6682D202120D660DAF2D
:1026B30003120D664EAE03120D663AAB03120D669E
:1026C300FBA803120D66C8A803120D666FA80312B8
:1026D3000D6602A803120D66C1A703120D66FAA6C2
:1026E30003120D6694A603120D6633A603120D663C
:1026F300D3A503120D66AAA403120D663EA403120A
:102703000D6696A303120D6691A303120D6685A3AE
:1027130003120D66B89F03120D66929F03120D6696
:1027230057D202120D66C0A404120D668CA40412C3
:102733000D6635A404120D66A3A204120D66F5A15D
:1027430004120D6658A104120D66309F03120D6624
:10275300D19E03120D66929E03120D667F9E031295
:102763000D664EA104120D66749E03120D66439E00
:1027730003120D66309C03120D66A39B03120D66B4
:10278300FFD202120D665F9B03120D66718D041258
:102793000D66339B03120D6619FD03120D66ECFCE7
:1027A30003120D66B9FC03120D6691FC03120D664C
:1027B30032FC03120D6612FC03120D66DDFB0312DD
:1027C3000D6689F803120D6671F603120D665BF44C
:1027D30003120D66DBF303120D6687F303120D6616
:1027E3003BF303120D6693F203120D66E7A0041286
:1027F3000D664EC20300000080FB000022E4738FCD
:10280300000100D21787000100D01735000400999A
:1028130017250002009D17260002009F17270002BC
:1028230000A11728000100AB1729000100AC178491
:102833000004001D15860001003B172A000100ADAE
:10284300172B000100AE172C000100B2172D000852
:102853000029152E000100B3172F000100B4173013
:10286300000100B51731000100B617320001003135
:102873001533000100321534000100B7173600018B
:1028830000331538000100B81739000100B1178370
:10289300000200CE17630001003F1564000100AF82
:1028A3001765000100B0176D0001004015710008A5
:1028B30000211566000100CD1743000100BE174437
:1028C300000200BF1745000100C11746000200C205
:1028D3001747000800371548000100C4174B0001D3
:1028E30000C51704000100D117A1000100D5173757
:1028F300000100D41788000100D3173C0001003405
:10290300153D000100B91749000200C61767000111
:102913000041154D000200C8174E000100CA174FB1
:10292300000200CB173E000100BD17510001003526
:102933001552000100BB1753000100BC17540001DE
:1029430000361500000000000000013636010100CA
:102953000102010001030100010401060605020052
:1029630000070100340801000F090401010D0100F3
:10297300FF0E08000017020000190100FF1A0100F2
:10298300011B0100FE1C0100081D0200001F0100C5
:102993000120010001210200002301000F24020095
:1029A300002601000127010008280200FF2A010078
:1029B300072B0102402C0100002D0100012E010014
:1029C300012F0100FF30010B1D310800003A010007
:1029D300083B01000F3C0100013D0100FF3E0400E4
:1029E3000042040000460400004A0400004E0400B4
:1029F3000052040000560400005A040000000000C6
:102A030000200146860000010020014886000002E4
:102A13000020014A860000030020014786000004CD
:102A23000042010285000005004201F38400000614
:102A3300004201D1840000070030014B86000000F2
:102A4300404201D1840000FDFF21014486010020A2
:102A53000020054317010021002005441701000051
:102A63000221054517010001022123751702040005
:102A73000029011114020402022923691702040325
:102A83000229236B170204060210237117050400A1
:102A930000210113140504040221236D1705040505
:102AA3000221236F17050407021023731701037113
:102AB30003010301030103010301032203020301D1
:102AC30003100300030003000300030003000300DB
:102AD3000342030003240306030003000304031259
:102AE3000325032303250323030403040300030033
:102AF30003000344030003000323030003650321CE
:102B030000350381030003050300030003000300F2
:102B130003250323030302710230016002110270D3
:102B2300020102020202028002100261023A004123
:102B3300006302730272026202430200021302384C
:102B4300000002000204021202000200020002005E
:102B53000204020402370037003C02440200023937
:102B63000000020002650200023502810200020534
:102B730002820283020002010171010101010111BC
:102B83000101013101010101018001100161013BDA
:102B93000014006301730172016201430100011318
:102BA3000106013D0135000401120100010001008D
:102BB30001000104010401330133013C01440132EA
:102BC30001360000010001650100013500810100AB
:102BD30001050182018301000103007100300160DE
:102BE30000110070003102200350048000100061C6
:102BF30000000014006300730072006200430000D1
:102C03000013000600000000000400120000000092
:102C1300000000000004000400370037003C0244B9
:102C23000000000000000000006500000035008186
:102C330000000005000000830000003600010006CC
:102C43000000000F00000000000000000000000072
:102C53000003FFFF00000403FFFF0000FFFF0FF46A
:102C6300010005C4040320000100000B0000000064
:102C73000000000003010F0000000000000000003E
:102C83000000000000000000000000000000000041
:102C930000000000000000000064198E196A199EEC
:102CA30018701994197019A01976199E187019942F
:102CB300197C199E180000000082199E180000005C
:102CC300000000000088199E1800000000000000AA
:102CD30000000000000000000000000000000000F1
:102CE30000000000000000000000000000000000E1
:102CF30000000000000000DA1B0100DA1B02005094
:102D03001B02804A1B0300561B04005C1B048062E9
:102D13001B0500681B0600741B3100861B33008CE7
:102D23001B3400F227FFFF00000300030004000828
:102D33000010001F003E007B00F600EC01D703AF3C
:102D4300075D0FB91E713D000007ECFDFDFDECDCD6
:102D5300DCCCBCACAC9C9C8C7C7C6C6C5C5C5C4CC0
:102D63004C3C3C2C2C1C1C03EAF5E5D5D5C5B5A57C
:102D73009595858575756565555545453535252580
:102D83001515050ACE2102982105A421079E210CC1
:102D930080210D8C21FF000000160F00000B150B86
:102DA300020002220F3300000E0F5A696742656565
:102DB300416C6C69616E63653039D0D1D2D3D4D59F
:102DC300D6D7D8D9DADBDCDDDEDF303016181920B0
:102DD300231A1C1E3000034D4C4651181A250502B8
:102DE3000001191618161618230300303017181986
:102DF30021301B1D1F30003C40423A3F3F392F47D3
:102E0300300C0E020B040B0A0708000F0204020128
:102E13000101010902E803000000BE040A010024C5
:102E2300000300E803FF04091603100F030A0C0450
:102E33001E0828020C0508151E05C082C083121146
:102E4300A890156A7470F0A3741FF090156C7476D3
:102E5300F0A3741FF090156E747CF0A3741FF090B0
:102E630015707482F0A3741FF0025B7874F7120874
:102E73004090155EE4F0E990155DF07C377D157A9E
:102E83005F7B151218749017C4E0901567F09015C6
:102E9300687421F0A37415023E0574F0120840EA29
:102EA300FEEBFF5480700302300E90155D123E9AC4
:102EB3007003023007EA241B125705707CEA241FB3
:102EC30012570564137002A3E0706E8A828B83121B
:102ED300305C901578124C97750A00750B00800DC5
:102EE300123CDB126D77121778AA0EAB0FEA4B6018
:102EF300488A828B83E0650C7004A3E0650D702C17
:102F03008A828B83A3A3A3A3E0F50EA3E0F50FE5C9
:102F13000A450B8A828B83A3A3A3A360C3123FDD5D
:102F2300850A82850B83A3A3A3A380B78A0A8B0B8D
:102F33008A828B83124C9380B4E508242A125705A6
:102F4300FCE5082402F8E43509F9E8FAE9FB9015F1
:102F530078123143A3A3E06402703C8A828B83120C
:102F63004C97800B88828983A3A3A3A3123FDDE838
:102F730049601F88828983E06A7003A3E06B70E471
:102F830088828983A3A3E06C70DA9017CA125A353A
:102F9300806BECF9121FAC850882850983E064011C
:102FA300704FE5082418123045120DA412631F1246
:102FB3000BDFE5082412123045120DA4E508123E7A
:102FC3008E120DA0E508240B126323120BE3E50810
:102FD3002417123E2BE5082402FCE43509FDE5081D
:102FE3002419FAE43509FB1227CE740A120DB380B3
:102FF3000CE064027007AA08AB0912208AAA08AB86
:10300300091216E2EEFAEF6480802DEA5402600C96
:103013009017DD7401F0EA6402FA8023EA54086031
:103023001A121FA6EA4B700B90157A1261FA7A08EE
:10303300123052EE6408FAEFFB80047A007B000240
:1030430069A9F582E43509F583E0F50A780A22FBDC
:1030530090155DE0F912184422A3A3E0F50CA3E058
:10306300F50D227B0090155DE0F9121838740422E7
:1030730074F41208408A088B098A828B83A3A3A362
:10308300124A8F123E3638F583E02409FA12694159
:1030930070030231368A828B837402124B048508D3
:1030A30082850983123143E8F0A3E91265BB8A8262
:1030B3008B83A3A3A3A3A3A3A3A3F0E5082403F8EB
:1030C300E43509123138123E363AF583E08E828BAD
:1030D30083A3A3A3A3F0EE2409FAE43FFB8E828F1C
:1030E30083A3A3125CE7F5838882E0A2E58E828F37
:1030F30083A3A3A3A3A3500474018001E4F0E50810
:103103002403F5828983124C97EA1252183BF58304
:10311300126908120D9C123E353B125DD98E828FC7
:1031230083A3A3127AB7120DB3EEFAEFFB90155DEA
:1031330012698E8016F98882F583E0FAA3E0CA2229
:10314300124E34A3A3227402120DB37F04020B5A4E
:1031530074F21208408A088B09ECFAEDFB740E1224
:1031630010C9E0FC1211DE8A0C8B0DAE0CAF0DEA18
:103173004F6030AC08AD091211CCE96026AC08AD44
:1031830009EEFAEFFB1211D2E970148E828F8312CB
:103193003FCAFAEFFB1211C6AA08AB091211F6795E
:1031A30000800279B4024D8374F012084074F61261
:1031B3000E4CEAFEEBFF8C088D09750FB385218257
:1031C300852283E4F0750E008002050E902E3CE408
:1031D30093F8E50EC39840030232D2AA0E7B001285
:1031E300121A8A0A8B0BEA4B60E08A828B83A3A3B1
:1031F3001232D928F0F8C3EE98EF940050CC7C1526
:103203007D007900AA08AB091216CA850A82850BCC
:1032130083A3A3A3A3126DB4E0F8EEC3982925E01A
:10322300F8E433F9E50A28F582E50B39F583A3A31E
:10323300A3A3A3A3123E40A312585C8A0C8B0DAC2C
:103243000CAD0DAA08AB09121874850A82850B838D
:10325300A3E06401700A12631F7401123E5280449A
:103263007401120E2C850A82850B83124C9512125F
:1032730002E9603D74091210C9E0C0E012631FD077
:10328300E0F074091210C9E0640370137401120EA4
:103293002CE508240BFAE43509FB12187480127428
:1032A300011210C9123FDDE5081258423509126DAB
:1032B30075850A82850B8312632B123E52A3A3E00A
:1032C300C0E0E5082414126323D0E0F0750F00A9D1
:1032D3000F740A0269A6A3A3A3E0F88521828522BD
:1032E30083E02274F7120840E9FE8A828B83A3A34A
:1032F300A3A3A3A3E0540860338A828B83A3A3A36D
:10330300A3A3A3E0540260218A828B83A3A3A3A374
:10331300A3A3A3A3A3E06406600F74E96E600A7419
:10332300CD6E600574F06E7003121F8E02468274B8
:10333300F012084074EF120E4C740F1210C9126091
:10334300DE74081210C9E9F0ECFEEDFF74051210EB
:10335300C912444A12466EA3E0F91211EA74061226
:1033630010C91260DE74061210C91252A97003024A
:1033730035ED123E7AE0FA74061210C9E0F9121E16
:10338300CE12364DF8A3E0F9E84970030235EDEEAD
:103393002403F50AE43FF50BEE2406F508E43FF5B4
:1033A300097C00850882F583124C97850A82850B78
:1033B30083E0F91211F074031210C91260DE850A5A
:1033C30082850B83E0C0E085218285228312364605
:1033D300D0E01253BEF9852182852283123CE2128A
:1033E3004F101232DCFAA3E0CA2407F582E43AF55F
:1033F30083E8F0A3E41260E92406F582E438F58358
:10340300E4126D81124A83120D9CEE123E363F1276
:103413005DD974031210C9124A8F2409127AB112AA
:103423000DB374291210C9126DAE12313D1253D16E
:103433003A126D75742B1210C9E0C0E085218285A4
:103443002283125270D0E0F074021210C9E4F074B7
:10345300251210C97808121056023544740312104D
:10346300C9125DA18882F583123635A3A3A312582E
:1034730067FB121208850E82850F83A3EAF0A3EB84
:10348300F074031210C9123646A3123635125A7657
:10349300A2E6500F850E82850F83A3A3A3A3A3E007
:1034A300D2E1F074051210C9E0706B850E82850FAE
:1034B30083A3123FDD9015B8E0687003A3E0697041
:1034C30055850E82850F83A3A3A3123E15750C00A9
:1034D300780C120DA47808120D9874291210C9E003
:1034E300F50C780C120DA474271210C9120BE3907B
:1034F30015C5120BE3790074191210C9124C671227
:1035030020D2740A120DB3850E82850F83A3A3A361
:10351300A3A3E04405F074021210C9E004FC8E82F8
:103523008F83124C918E828F83A3A3A3E0F9121190
:10353300F074031210C91260DE74021210C9E004A1
:10354300F074031210C91252A9606774021210C9F1
:10355300E0FA74061210C9123FDDC3EA98E49950E9
:103563005174021210C912391F852182852283E00A
:1035730028F8A3E039F9E8240FF50EE439F50F85AF
:103583000E82F583E4F074031210C912364064010D
:10359300600302345F74051210C97401126994F058
:1035A30074031210C9125B68123942E8F0A3E902EE
:1035B3003483852182852283124C97121ED4852160
:1035C30082852283120BE374261210C9E0FD742551
:1035D3001210C9E0FC740A1210C9E0F9EEFAEFFB0D
:1035E300121F887402120DB380438E828F83A3A3AC
:1035F300A3E0C0E0740C1210C9D0E0F01267FDE044
:10360300C0E0740D1210C9D0E0F074061210C91294
:1036130052A97009740E1210C974B98007740E127E
:1036230010C97410F07409120E241220CC74110204
:1036330069A6E0850E82850F83A3A3A322E012531C
:1036430096E022E0125396A3A3228521828522834A
:10365300EAF0A3EB1252B22274F012084074E112A2
:103663000E4C74041210C9E9F074031210C9ECF083
:1036730074021210C9EDF08A0E8B0F742F1210C949
:1036830012305EAA0CFB121EC274011210C9E9F0BB
:10369300AA0CAB0D121EC874011210C9E07003020C
:1036A300391A852182852283E480158E828F83A334
:1036B300A3A3A3A3E0D2E3F0852182852283E004C0
:1036C3001268ECF8852182852283E0C398400302C7
:1036D300391174011210C9E0700302391185218276
:1036E30085228312391FE50C28F8E50D39F9E82402
:1036F3000FFEE439FF8E82F583A3A3A3A3A3E0A265
:10370300E040B5750800750A08750B0074021210C5
:10371300C9E060037508207C087D007900740512F8
:103723000E241216CA8E828F83E0603E901608E044
:103733006401701AE508D2E3F508750B1012392FEE
:103743001210C9E8F0A3E912575A74FF80764308B0
:103753000C750A0C8E828F83A312393A126D77741B
:10376300051210C974FFF0A3805A74041210C9E043
:103773006009E508D2E6F508750A0A8E828F83A3ED
:10378300E064FE7003A3E0F4703074121210C97485
:1037930004126349F8741D1210C9E8124B04741221
:1037A300120E24121DF07D007C0079007415121096
:1037B300C9AA82AB83121BC2800B12392F1210C904
:1037C300E8F0A3E9F074071210C9E508F0123E719E
:1037D300C0E074091210C9D0E0F0740A1210C97461
:1037E30001F07405120E2412209074111210C9E016
:1037F30060030238EF740D1210C91253B98E828F11
:1038030083A3A3A3A3F0740D1210C9124AD2E50A2D
:10381300F0A3E50BF074031210C9E0C0E0124A6391
:10382300D0E0125A766011901608E0C0E0740D12D1
:1038330010C9124AADD0E0F0740D1210C9123FDD69
:10384300850C82850D83A3A3A3A3A3123928241C6B
:103853001260D8126D9112392A125A283912681C33
:10386300C0E0124A4AD0E01268E1C0E0740D1210C1
:10387300C9124590D0E01265E2C0E0740D1210C980
:10388300124586D0E0F0740D1210C912393A12397C
:1038930028242A1260D8850E82850F83A3A3A3A3AD
:1038A300A3A3A3A3E01260D1123E60C0E01245724D
:1038B300D0E0F0740D1210C9124C97850E82850F5B
:1038C300831268F72428F582E43B126D75123E6972
:1038D300126908120D9C125DD2EA12606A3B127AD9
:1038E300B5120DB37405120E241220968E828F83A7
:1038F300A3A3A3A3A3E0D2E0F074111210C9E06064
:10390300030236AE74011210C9E0140236BA79000C
:10391300AA0CAB0D121F94741F0269A6E075F00781
:10392300A4F8A9F022A3A3124C9BE8228E828F83D2
:10393300A3123FE1740522E0123942A3A3A322F8A4
:10394300A3E0F9850E82850F83A32274F012084049
:1039530074E8120E4CE9852182852283F08A0E8B4E
:103963000F8A828B83A3A3A3A3A3A3A3A3E0F91228
:103973001EEC8A088B09EA4B7003023A2BE50E1200
:10398300522C123E89123E20852182852283E060DB
:1039930003023A2E7C04850E82850F83A3A3A3A37F
:1039A300A3A3A3A3E0F9121EF2EE4F607B8E828FD6
:1039B30083A3A3A3A3123FDD74071210C912620FDE
:1039C300123FDD74091210C9124B34C0E074111296
:1039D30010C9D0E01265C0A3A3A3A3A3A3A3123F5E
:1039E300DD740F1210C9126D7774121210C9E4122C
:1039F300699CC8241FF582E438F583125D9DC413C6
:103A0300135403FC70027C048E828F83E0F97808E0
:103A1300120DA0742059FD744059F97403120E2439
:103A2300121F887402120DB30269A47C08850E82EA
:103A3300850F83A3A3A3A3A3A3A3A3E0F9121EF259
:103A43008B0BEA4B70030239ACEE4F60DB852182AE
:103A5300852283E0F50C780C120DA4850882850974
:103A630083A3A3A3A3A3A3A3E0F50C780C120DA433
:103A73008A828B83A3A3A3E0FB8A82850B831275BF
:103A8300D48A82850B83E0FA8E828F83A3A3E0F925
:103A93001227D47402120DB30239B074F71208401E
:103AA30074FA120E4CE9FE780179017F00800379E4
:103AB300000F124E13E0FCEFC39C5026EF75F00786
:103AC300A4FC85F008AD08EA2CFCEB3DFD12440292
:103AD300E0A2E050DA540C60D6E0A2E250D37800C2
:103AE30080CF8A828B83A3A3A3A3A3A3E0703DE922
:103AF300A2E0400574016E70338A828B83A3A3A373
:103B0300A3A3A37401123DF2E0C0E074031210C931
:103B1300D0E0124461E0C0E074041210C9D0E0F0B8
:103B230074051210C9E8125D3C1220CC74060246DB
:103B33007FC082C0837901121F94025B7874F412F0
:103B43000840EA4B9017DD6019E4F08A088B09F509
:103B53000AF50B7808120D987A02123066120DB32B
:103B6300800A7401F07A027B0012305302314E74E2
:103B7300F012084074F3120E4C74031210C9E4F0EF
:103B8300A3F0901578123E2074011210C9E4F0A33B
:103B9300124B0904F09015B2E0A2E35003023C6516
:103BA300123DE674091210C912109A74091210C951
:103BB300780812105690157A7808120E347405128C
:103BC30010C97808121038123CE974051210C9782C
:103BD30008120FF950077A017B00023CD6740512D4
:103BE30010C9780C1210569017C9E0F509780C79B2
:103BF300081207D1A80CA90D9017CAE0C398E4993D
:103C03005003E08001E8852182852283F074091244
:103C130010C97808121056C008C009C00AC00B7436
:103C2300051210C9780C121056123CE9780C790869
:103C33001207D1E4F50AF50BD00FD00ED00DD00C3E
:103C4300780C7908120EF490157A780C12103880DB
:103C530011123CDB126D77EEFAEFFB121778AE0808
:103C6300AF09EE4F60658E828F831232D9C39850AD
:103C73002DEE2403F8E43FF9E0FA88828983E0C358
:103C83009AF0602374031210C91241437401121095
:103C9300C9EEF0A3EF12622AFEA3E0FF80C48E8276
:103CA3008F83A3A3A3E4F08E828F83127A6E7401B1
:103CB3001210C91252A98E828F83A3A3A3A360916A
:103CC3001262031210C9123CE2808974031210C9F4
:103CD300124C97740D0269A6123FE19015782212D7
:103CE3005DC8A3A3A3229017C8127A76E4F50AF558
:103CF3000B2274F01208408A088B09890A7800792C
:103D030000901578123E20FBEE4B601E088E828FCA
:103D130083A3A3A3A3124C61601008E87001098E6A
:103D2300828F83123E1CEA4F70E39017CB124C979D
:103D3300C3E89AE99B4003023DD97A06123DDCA809
:103D43000CA90DEA497003023DD98A828B83E508E9
:103D5300F0A3E509123DFBE50AF09017CA124E1BCA
:103D6300123DF2A3E4F0A3F0901578124C61600DBC
:103D73008E828F83A3A3A3A3126D778017901578E8
:103D8300126D779015B2E0A2E34009123DE690155B
:103D93007A12109A9015B2E0A2E3503A7A087B00A7
:103DA30090155DE0F912184AEA4B4C4D70289017B4
:103DB300C8E0F508A3E085080CF50DE4F50EF50F52
:103DC300780C120D987A087B0090155DE0F91218B3
:103DD3003E7404120DB30269A97B001217728A0C98
:103DE3008B0D2212185CEAF8EBF9ECFAEDFB2212C8
:103DF3003DF622123DFBA322F08A828B83A3A322EA
:103E0300E508F0024682F08E828F83A3A3A3A3A3C7
:103E1300A322125713A3A3F022A3A3A3A3E0FEA3F9
:103E2300E0FF227F05020B5AF582E43509F583E0B2
:103E3300F922EA123E3A222410F582E422123E4885
:103E4300A3A3A3A322123FE5850882850983221237
:103E53003E5622F0850A82850B83A3A322E50E2416
:103E630011123E86E022E50E240E123E8622E50E56
:103E73002410123E86E022123E7E22EE123E3A3F8C
:103E8300F58322F582E4350FF58322240FF50AE446
:103E93003509F50B780A22E0F91216F48A088B0922
:103EA300EA4B2274F2120840890B8A088B098A8232
:103EB3008B83124C97121FB8EA4B600479B8806A5F
:103EC300121FC4E9F8902E2DE493F9E8C399400436
:103ED30079B280567A15123DDCAE0CAF0DEA4F7005
:103EE30004791080458A828B83E4F0A3123DFBE5BD
:103EF3000BF0750A007808120D9C7C127D00EA24F1
:103F0300031268B3120DB390157E1252A970089074
:103F1300157E800C123FDD88828983123F3070F456
:103F2300EEF0A3EFF0121FD67900024D83124C9BE3
:103F3300EA4B8882898322C082C08390157E8004E5
:103F43008C828D831275D5EC4D60288C828D83A372
:103F5300A3E069600574FF6970E68C828D83A3A377
:103F6300A3E06A7003A3E06B70D6EC2403FAE43D8C
:103F7300FB80047A007B00025B7874F7120840E947
:103F8300FD74FE6D70047C0180027C0090157E80C0
:103F9300096D70027C01888289831252A9601F888F
:103FA300828983A3A3A3E06A7003A3E06B70E7ECA9
:103FB300A2E088828983A3A3E050D6F9800279FE28
:103FC300024682EEF9800CA3A3127A76EE227402E3
:103FD300120DB37F02020B5AF583123FE122123F07
:103FE300E522E0F8A3E0F922123FE58E828F8322D7
:103FF300120DB37F03020B5AC082C0837900901560
:104003007E800109E0FAA3E08A82F583E582458395
:1040130070F1025B7874F6120840E4F508F509784C
:1040230008120DA0902E2DE49375F013A4A9F0129D
:104033004138126DD5120DB3E9FE74096E70031287
:104043001FD0023FC674F612084074FE120E4C8550
:104053002182852283E4F0A3F0A821A9228808897C
:10406300097808120DA07508027509007808120D69
:10407300A0126A46120DB3023FD174F512084074C0
:10408300EB120E4C852182852283E4F0A3F0901578
:104093007E80748E828F83A3A3E0C0E0740212102B
:1040A300C9D0E012575AA982AA8389088A09750AD6
:1040B300007808120D9C7C127D0074061210C91240
:1040C3006D9A120DB37402120E1C880889097808C0
:1040D300120DA07508137509007808120DA0740459
:1040E3001210C912524C75F013A4F8AAF075F0130C
:1040F300E9124134126A4E120DB38521828522835F
:104103001241438E828F83123E20EE4F7085A82189
:10411300A922880889097808120DA0750802750973
:10412300007808120DA0126A46120DB37415023FEF
:10413300F3A42AF9E82402FCE439FD7A427B002245
:10414300E02401F0A3E03400F02274F41208407478
:10415300EB120E4C7E007F00A821A9228808890952
:104163007808120DA07508028E097808120DA07C3C
:10417300007D007A42126DE1120DB3E9706C8E0876
:1041830080567402120E1C880A890B780A120DA03D
:10419300750A13750B00780A120DA0E50875F01364
:1041A300A4F8AAF075F013E509124134126DE31275
:1041B3000DB3E9701B74031210C9AA82AB83740296
:1041C3001210C9E0F9121FB2E970050EEE70010F6B
:1041D3000508E50870020509852182852283123FBF
:1041E300DDC3E50898E509994098EEFAEFFB7415ED
:1041F30002314B74F61208408C828D83A3A31244C0
:104203004FF0EA1260703BF583E0C0E012440CD03B
:10421300E0F0EA241DF582E43B123FDB1243F01287
:10422300444AF0A3F0EA241FF582E43BF583123EEF
:1042330020EC1243E33DF583EEF0A3EFF01243E9E4
:104243003BF58312441AA3A3A3A3A3A3EEF0A3EF06
:10425300125CCBFE8C828D8312445974035EFEC3C1
:10426300940340030243D6EE600874026E600302B7
:1042730042FB8C828D83E0540CFE740C6E7003023F
:10428300433AE0A2E4400D88828983E08C828D83E7
:10429300A312446F74086E600302433A1243FA7424
:1042A30001F08A828B83A3A3A3A3A31257207014C4
:1042B3008C828D83E0440C124461A3A312441AEE52
:1042C300F0A3EFF08C828D83E0A2E4402B8882126E
:1042D300442812443D500109F582124428A3A3A3A4
:1042E300A3A3A3F0A3EF1244698C828D83A3A3A39A
:1042F300F0E82403F850010988828983E0C0E0ECE8
:104303002411F582E43DF583D0E01244598C828D6B
:1043130083E0A2E7507588828983E0FE8C828D83D7
:1043230012446F74FC5E700C8C828D83A3E0540383
:104333006403701E0243D61243FAE4F0740C6E60F9
:10434300030242A5888212442E12443D5001090201
:1043530042C78C828D83A3E05403603288828983B1
:10436300E0C0E0EC1244143DF583D0E01244708CBD
:10437300828D83E054036402701488828983E0C0D1
:10438300E0124402D0E01244708003A3E4F0EC1284
:1043930052183D126D75EC2410FEE43DFFEA241D16
:1043A300F582E43BF583E0F5088E828F83E0C398C2
:1043B3002508F508F0EA2417F8E43BF98882F58329
:1043C300E0C39508C0E01243F0D0E0125CCBC39584
:1043D30008500A1243F0E4F012440CE4F0023FD612
:1043E3002415F582E422EA240DF582E422EC240D5F
:1043F300F582E43DF58322EC1253D13DF58322ECA3
:104403002414F582E43DF58322EC123E3A3DF58314
:10441300222413F582E422E0FEA3E0FF8C828D8345
:10442300A3A3A3A32212442EA3A3228983E0F50806
:10443300A3E0FFE5088C828D8322A3A3A3A3F0A3AB
:10444300EFF0E82402F82212444FA322E4F08C8216
:104453008D83A3A3A322124477A882A98322123DAA
:10446300F6A3A3A3A322124477A3E022A3124477C3
:1044730008A98322125CD4A32274F412084074F3B3
:10448300120E4C8A0A8B0BECFEEDFF8C82F583E057
:10449300540CF508E0A2E75006E508D2E7F508E575
:1044A30008D2E1F5081257207006E508D2E4F508B2
:1044B300E0A2E55006E508D2E5F5087C087D007921
:1044C30000AA21AB221216CA74021210C9E50812FF
:1044D3006D7BC0E074031210C9D0E0124B09E50AEA
:1044E300F0A3E50BF074051210C91265E71210C9A9
:1044F300E0707774081210C9124A8F125CBD38122B
:104503006602C0E074081210C9124590D0E012652B
:10451300E2C0E074081210C9124586D0E0F07408B6
:104523001210C912457CE0124AB7124B381260D1FF
:10453300EE24111256ECC0E0124572D0E0F0EE24E6
:10454300141256ECC0E074081210C9124A8F2435B5
:10455300F582E438F583D0E0124ADCC0E074081237
:1045630010C9124A93D0E012633B740D02314BE839
:104573002432F582E439F58322123FEBA3A3A3A3EC
:10458300A3A322124AA31267E138F58322124AA396
:104593002426F582E438F5832274F71208407E005E
:1045A3008A828B83A3A3A3A3A3A3A3A3A3E06404EB
:1045B300600302465E1253C9E0600302465E125274
:1045C3002B3B1252A7700302465E88828983E05414
:1045D30003600302465EE81253D139F583E0FA8C97
:1045E300828D83A3A3E0FBA3E0CB2411F582E43BFC
:1045F300F583E06A706588828983A3A3A3A3A3A339
:10460300A3A3A3124662E06A7003A3E06B704C8815
:10461300828983A3A312466EE0FFA3E0CF24061290
:1046230056EC6A7003A3E06B703188828983A3A37D
:10463300E0F88C828D83A3A3E0F9A3E0F58389825C
:10464300A3A3E06860138C828D83A3A3A3E0F58307
:104653008982E0540C640470027E01EEF98020121A
:10466300466622124C9F8C828D8322A3A312466638
:10467300A3A322740C1210C9E0F9740D120DB37FB9
:1046830001020B5A74F612084074FC120E4CEAFE37
:10469300EBFFECFAEDFB8C82F583A3E05403601689
:1046A3009015741252A960597900EEFCEFFD125E69
:1046B300C8122800804B852182852283EEF0A3EF68
:1046C300F074021210C9124AFEAC21AD227AEE7BBD
:1046D3001F1222168A088B09A808A909EA49602132
:1046E3008A828B83A3A3A3A3A3A3A3A3A37406F088
:1046F3007A0088828B83124A8F126091E0F912212B
:10470300747404023FD374F212084074F3120E4C13
:10471300EAFEEBFF8A82F583A3A3A3A3A3A3A3A328
:10472300A3A3E0F50A9017DDE0700579BA024A47C2
:10473300750801750900750C00750D007C087D0076
:104743007900AA21AB221216CA74051210C974018A
:10475300124B115404601274021210C9E0D2E61213
:104763004B1154087003750803E05410600674403D
:104773004508F508E05408602274021210C9E044A9
:10478300C0124B115420600A74031210C9E0D2E026
:10479300800874031210C9E0D2E1F0EE241512561A
:1047A300EC124A777003740169700674084508F5C2
:1047B300088E828F83A3A3A3A3A3A3A3A3E070164E
:1047C3001222708521828522831260DE7402121008
:1047D300C9E0D2E28030640F701074021210C91263
:1047E3004B1974044508F508807F8E828F83A3A339
:1047F300A3A3A3A3A3A3E064028E828F83700A12F0
:104803006DAEE8F0A3E9F08060A3A3A3A3A3A3A3E1
:10481300A3E06403700DAC21AD22EEFAEFFB12208E
:104823002480468E828F83A3A3A3A3A3A3A3A3E081
:1048330064017035901608E0601074021210C912FA
:104843004B19750910750AFF801874021210C9E01C
:10485300440C124B0974FDF0A374FFF07404450873
:10486300F5088E828F8312305EEE24151256ECA269
:10487300E0503F74021210C9E0540C701B8E828FFB
:1048830083124C97121C8EE9700579BB024A477458
:10489300021210C9E0D2E5F0EE24151256ECA2E0A4
:1048A300501074021210C9E0540C64047004E0D276
:1048B300E5F0EE24111256ECC0E074041210C9D0D6
:1048C300E01265E91210C9E06003024A407408125D
:1048D30010C9124AD2E508F0A3E509F0124A6DE0C7
:1048E300C0E0124A63D0E0F0124A54E0C0E074081A
:1048F3001210C9124A8F12441438F583D0E0124BB8
:104903003864017011901608E0C0E074081210C9F1
:10491300124AADD0E0F074081210C9124ACD124AFF
:104923005EFAE8241CF582E439F583EA124B04EEBF
:104933002415FAE43FFB8A82F5831275D5E8125AEF
:104943002839F583124AFEEE241C1256ECC0E012FD
:104953004A4AD0E0125B6E124A77700374016970A1
:104963001374081210C91253B9FAEE241D1256EC2F
:10497300F9121EF88E828F83A3A3A3A3A3A3A3A3D9
:10498300A3E0C0E074081210C9124590D0E0F0749F
:10499300081210C9124586E50AF074081210C912EC
:1049A300524C2428F582E439F583E50CF0A3E50D98
:1049B300124AE4124AB71257651260D1EE124A5EE8
:1049C300C0E0E82433F582E439F583D0E0F0EE2447
:1049D3001B1256ECC0E074081210C9124A93D0E0BF
:1049E300F0EE241A1256ECC0E074081210C9124AF1
:1049F3008F2432F582E438F583D0E0124ADC124A80
:104A030083120D9C1267E71275D5740B1210C9122D
:104A13004A8F242F127AB1120DB3EE24151256ECDD
:104A2300544060129015941252A9600AAA21AB2235
:104A3300125EC8122800AA21AB22122096740C120F
:104A430010C9E0F9024D7EE82420F582E439F583AC
:104A530022EE2419F582E43FF583221267F6E02261
:104A6300E82412F582E439F58322EE2418F582E472
:104A73003FF583225480F8A3E05401F9748068223F
:104A8300F508A3E0F509750A00780822124AA32263
:104A9300124AA32434F582E438F58322A3A3A3A303
:104AA300124AA722E0F8A3E0C822124AA31243E362
:104AB30038F58322FAA3E0FBE8242AF582E439F5EA
:104AC30083EAF0A3EB22A3A3A3A3123FE1EE2212F6
:104AD300525012523039F58322F0EE241312576DDF
:104AE30022F0EE240D12576D22E0FC8A828B83E0C4
:104AF3002CFCA3E03400FD8A828B83ECF0A3EDF061
:104B030022F0A3E4F022F085218285228322F0EEB5
:104B1300241512576D22E0D2E3F0124B21228E822C
:104B23008F83123FE5852182852283E8F0A3E9F094
:104B330022E8F0A3E9126224E02274F71208408A03
:104B4300828B83A3E0640170047E6380027E648AA7
:104B5300828B83E060087905124B7124F3FE901574
:104B6300B0E06007F9124B7124F2FE02465E122197
:104B73003EE9F8EEC3982274F612084074FE120E52
:104B83004C8521828522831260DEE9FEECFAEDFB7F
:104B93009005C21252A96032A821A9228808890966
:104BA3007808120DA07D01740E1210C9E0FCEEF915
:104BB3009005C21260B21228007402120DB3EA4BC0
:104BC30060047900800679B2800279B6023FD1741D
:104BD300F7120840E9FE90156A1252A9601F740982
:104BE3001210C9E0F5087808120DA4EEF990156AC1
:104BF3001260B21228007401120DB3800279B6025A
:104C0300468274F71208408908ECFEEDFF79B5E59A
:104C130008245E602014600624F86034803D90050B
:104C2300C4124C616035126DF21228008E828F839C
:104C33001260DE802490156C1275D5EC4D601CEE6D
:104C4300FCEFFD90156C1260B2122800E9F9800B9D
:104C5300901568124C671218747900024682124C40
:104C63009BEA4B221275D9EEFAEFFB2274F7120876
:104C730040E9FE79B574AB6E700B901568124C97D2
:104C830012187479000246828E828F83A3A3A3A392
:104C9300A3A3A3A3124C9B22124C9F22E0FAA3E0EE
:104CA300FB2274F1120840EAFEEBFF8C0A8D0B75B0
:104CB30008019015B8E06E7003A3E06F700C124DFD
:104CC30072AA0AAB0B121874805E122276EE6A7017
:104CD30002EF6B7009AA0AAB0B12227C804AAC0A62
:104CE300AD0BEEFAEFFB121DCCE9F5089017D0E0FF
:104CF3007036122708E97030E508702C901588E0AB
:104D03006E7003A3E06F7020EE4F601C750C80750E
:104D13000D15750E00780C120D9C7C087D00AA0AF7
:104D2300AB0B126D9E120DB3A9080276D174F21269
:104D33000840EAFEEBFF8C088D09750A01124D72DB
:104D4300EEFAEFFB12186EE9640170119015B812B8
:104D53003FDD850882850983126D77800EAC08AD2F
:104D630009EEFAEFFB121DD2E9F50AA90A80111226
:104D7300226A8A0C8B0DAC0CAD0D22740D120DB38F
:104D83007F06020B5A74F6120840EAFEEBFF7A0D17
:104D93007B00121772EA4B6062EE2424126A7BF0E6
:104DA300EE2425126A7BA3124E40126A81A3A3123A
:104DB3006814124E1BF0EE124E01124E30E8F0A3AF
:104DC300E9124E57124E28126D77EE124E0A1268F0
:104DD300D7A3A3A3A3F0EE24331256ECC0E0124EE4
:104DE30013D0E0126606124E28A3A3A3E8F0A3E9AA
:104DF300124E4FC0E01253C9D0E0F0023FD6242A2E
:104E0300F582E43FF58322242EF582E43FF58322E5
:104E1300EA1258423BF58322124E1F22E08A828B0C
:104E230083A3A3A322126936A3A3A3A322124E34FE
:104E330022123FE58A828B83A3A3A3A322F0124EFF
:104E43004522EE2426F582E43FF58322F0EE243258
:104E530012576D22F0EE242C12576D2274F41208AF
:104E63004074FE120E4CECFEEDFFEC24161256ECD1
:104E730064057010EC2406FCE43FFD12201EE9706B
:104E830003024F0BAC21AD22126B30121C9485210F
:104E9300828522831252A9606B8E828F83E0640124
:104EA3007058E875F009A4F8AAF075F009E9A42A86
:104EB300F974E128F8740239F9E8FAE9FB8882F514
:104EC300837808121056EE124FAD120FF940278562
:104ED3002182852283124ACD1256FA124F10780886
:104EE3001210569085D87808120F308A828B8378F7
:104EF30008121038800A79A28010EE240F126D7107
:104F03007900800679A1800279C8023149124B2EBB
:104F1300EE1268022274F21208408A0C8B0DECFE2A
:104F2300EDFFEC1256FAE4F0A3F09085B478081282
:104F33001056EC124FAD120E8D6067EC240E125614
:104F4300F3703478B39015AFE070289015E1E06406
:104F5300017020EC24111256ECF91221268B09A9B9
:104F630009EE12522C3F1260DCEA4960047800809B
:104F73000278A18808802EE060046402700A12207F
:104F830030E9F5087007801DE064037010EEFCEF54
:104F9300FDAA0CAB0D121CB8E9F50880087508A131
:104FA30080037508A3A908024D83126802780822BA
:104FB30074F012084074F5120E4CEAFEEBFFEA247B
:104FC3000AFCE43F8C82F583127A72125236740320
:104FD300120E2C8A828B83125ED2E9700302509CDC
:104FE3007401120E2C7403120E24121C94740112F9
:104FF30010C91252A9700302509CE875F009A4F875
:10500300AAF075F009E9A42AF974DD28FC740239C1
:10501300FDE508240E126323E4F0041210C9123FC5
:10502300DDE50812522C3509126D758C828D8312C1
:10503300108EE508241212632312109A9085D878F3
:10504300081210568C828D837808120F8F8C828DF4
:1050530083780C1210569086387808121056780C04
:1050630079081207D1E5084509450A450B702A74EA
:10507300011210C912524C75F009A4F8AAF075F088
:1050830009E9A42AF974E528F582740239F58374D1
:1050930001F07A007B081252598E828F83A3A3A357
:1050A300A3A3A3A3A3A3A3E02406FCA3E03400FDCE
:1050B3008E828F83125ED21265F4603EEE240A1252
:1050C300521E124AD27468124B04E812521839F570
:1050D300837402F090159A12108E8C828D83126065
:1050E300CB125CBD3CF58312109A9085D8780812D8
:1050F300105690159A7808120F8F125294705D9083
:105103001568125244A3A3A3A3A3A3A3A3A3A31207
:105113005CF312186EE97010125CB1901568125CA2
:10512300C370051265F460348E828F83A3A3A3A397
:10513300A3A3A3A3A3A3125244124C97121CBEE928
:1051430060118E828F83A3A3A3A3A3A3125280E42F
:10515300F0A3F08E828F83125266E4F012529460B1
:10516300030252138E828F83A3A3A3A3A3A3127A52
:105173006E9015AFE060030252089015E1E0640100
:105183006003025208750A3A750B00780A120DA0E3
:105193007402120E1C880A890B780A120DA0127071
:1051A3006D120DB3E9705BE508240E1263237401DD
:1051B3001252AEC0E0E5082411126323D0E0F0E5FB
:1051C30008240F126323743A124B0490159612109D
:1051D3008EE508241212632312109A9085D878085A
:1051E3001210569015967808120F8F9085D878086C
:1051F3001210569015967808120E8D70081252559B
:1052030080031252361252947006125BB474A1F0EA
:10521300740B0269A6240EF582E422F8E43FF9E850
:10522300FCE9FD8882F58322EA12523022240FF52D
:1052330082E422E5081252303509F583E4F0A3F045
:10524300221275D98E828F832212525022123FE589
:10525300E8227A007B02901441E0F912171E228A99
:10526300828B83A3A3A3A3A3A3A3A3A3A312527475
:1052730022124AA7240EF582E438F58322A3A3A3BE
:10528300A312528822124AA7240FF582E438F58329
:10529300228E828F83A3A3A3A3A3A3124A9F240FC7
:1052A300F582E438F58312525049221252B222F0A9
:1052B300852182852283E02274F6120840EAFEEB00
:1052C300FF7A237B00121772EE240AF508E43FF5F8
:1052D300098508821260DC7C237D0079001216CADE
:1052E3008508828509831252A9700302537CEEFA62
:1052F300EFFB12203C12529460748E828F83125300
:10530300AF64018E828F83A3A3A3A3A3A370071209
:1053130053A5740E80211252A970101265F4700BFC
:105323008E828F83A3A3E0A2E0500712539B740DD8
:10533300800512539B7405126606540364017007BB
:105343001253837405800B9015B0E0C0E0125383B1
:10535300D0E01253BEF583888212571985088285DF
:105363000983124A8F12607038F583E9800E85082D
:10537300828509831261558003126098F0023FD63B
:105383008E828F83A3A3A3A3A3A3A3A3A3A3125335
:105393009522E01260B7A3228E828F83A3A3A3A3D7
:1053A300A3A3124A9F12607638F58322A3A3A3A373
:1053B300A3A3A3A3A3A3125274E0221253C22212E3
:1053C3006B45F8A3E022EA1253D13BF58322240C68
:1053D300F582E42274F112084074E4120E4C8A0C34
:1053E3008B0D8C088D097A237B001217728A0A8B26
:1053F3000BAE0AAF0BEA4F70030256D412607CE582
:10540300082415125705687003A3E0698E828F8301
:105413007004740280027401F0E508240DF8E43589
:1054230009F98882F583E0FAC3E49AFA95E0FB125E
:1054330057012AFAA3E03BFB8E828F83A3A3A3A386
:10544300125CDA8E828F83A3A3F0EE2420F582E42C
:105453003FF583E4F0EE2421F582E43FF583E4F0A5
:10546300EEFAEFFB1220F08508828509831257209C
:1054730070098E828F83A3740580069015B012572E
:105483000EF0EE2417F50AE43FF50B8E828F83129C
:105493005719E9850A82850B83F0EE2416F8E43F59
:1054A300F9E508240EFAE43509FB88828983124A58
:1054B300ECE5082410FAE43509FB850A82850B83A1
:1054C300E0FC88828983E0F88A828B83E0C398C3F7
:1054D3009CF812575AF0EEFCEFFDAA0CAB0D12200C
:1054E30036E9F50B8E828F83E064027006125CB19D
:1054F3001256DEE50B60030256CB750C00750D00EA
:105503009017D0E064016005E06402703F1256F02A
:105513006008EE24211256F370328E828F83A3A388
:10552300A312609E125726EE24161256EC12574F02
:10553300FAE439FB123DDEEA4B6011126900120DE9
:105543009C125734AA0C126D9E120DB3EEFAEFFBA8
:105553001220FCE9F50B9017D0E064016008E064C9
:105563000260030256BEE970030256BEE50C450D08
:1055730070030256CB8003850E0B1256F0600BEEC0
:1055830024211256F360030256C4850B0E850C08C2
:10559300850D09750A007808120D9C1257348E8206
:1055A3008F83A3A3A3A3127AB7120DB3EE24201201
:1055B30056EC600D1256F97468124B04EE242080E9
:1055C30015EE24211256EC60151256F97403F0A35C
:1055D3007401F0EE2421F582E43FF583E4F0EEFA62
:1055E300EFFB1220FCE9F50B70907C137D00790032
:1055F3007409120E241216CA741A1210C9740112F5
:10560300576564687002A3E0704F8E828F831252D5
:1056130080E06405600302557A7C0879FF8E828FEF
:1056230083A3A3A3A3E0242A125CF6121754E97000
:105633000302557A7C087D0079FF7401120E24124F
:1056430016CA7401120E2C7A007B0079AB12201853
:1056530074191210C974FC80151256F9E0640370B2
:1056630004A3E06401700874191210C974FFF0E414
:10567300F508F5097808120DA07402120E2C7413A4
:105683001210C9AA82AB831261DB120DB38521828A
:10569300852283E0602B7409120E1C88088909781F
:1056A30008120DA07508137509007808120DA07C67
:1056B300007D00126A4E120DB38006E50C450D60A5
:1056C30007AA0CAB0D121778EEFAEFFB12177880CE
:1056D30003750B10A90B741C0276CEEE2406FAE4B4
:1056E3003FFB12187422EE240C12576D22EE242075
:1056F30012576D640122EE1252303FF58322E50802
:10570300240EF582E43509F583E022125713A32210
:10571300E08E828F8322A3E0F912213E22E054031C
:1057230064012212572A22E0FAE82AF8E43400F945
:10573300228E828F83A3A3A31260A212572AEE2480
:105743001612576D12574FFCE439FD22FAE82AF876
:10575300E439F9E824042212575E22126615A3A342
:10576300A322F012576A22EE240FF582E43FF58359
:10577300E0227901020D6374F4120840EAFEEBFFA4
:105783008A82F583A3A3A3A3A3A3A3A3124A8F246B
:1057930024F582E438F583125720702E8A828B8396
:1057A3001253AF7025125848E06405701D12584813
:1057B300A3E0F8740168600574066870071252620A
:1057C300740280051252627403F0EA240A126149DA
:1057D3001260B2E4F0EA2408F8E43F1231382431CD
:1057E300F582E43AF583E0C0E0126DE9A3A3D0E0CB
:1057F300125867CA242EF582E43AF583E0C0E0121A
:105803006DE9A3A3A3D0E0125D8DC81258423812EC
:105813003FDB126DE912585C8A0A8B0BAC0AAD0BA5
:10582300850882850983125CF312187485088285C2
:105833000983124C971220FC126144F002314E246A
:105843000BF582E4228A828B83A3A3A3A3A3A3A33E
:10585300A31265DBF583888222A3A3A3A3124B2E95
:1058630012226A22125CCFFAA3E022025775C08289
:10587300C08390158A7442F0A37420F090158C7441
:105883004EF0A37420F090158E7454F0A37420F09E
:105893009015907448F0A37420F0025B7874F412AE
:1058A3000840EA2408FEE43BFF8E82F58312524C43
:1058B300126088E0F50874035508F509125CEEF8E8
:1058C300A3E08882F583E508F0A3A882A983E5090C
:1058D300600974026509600302598D740C5508FC54
:1058E300600A74086C600574046C702674026509A0
:1058F3007006E508A2E4401A8A828B83A3A3A3A3BC
:10590300A3A3A3A3125A931267E13D125A2EA3082D
:10591300A983740C6C701C125A8F2428125A7B248E
:1059230028F582E43DF583A312640FF0E82402F81E
:10593300500109740265097006E508A2E4404B12A0
:105943005A8F242A125A7B242AF582E43DF583A335
:10595300125A3D125A9912640F125A99A3125A35C8
:10596300E82404F8500109EC600F74086C600A74B1
:105973000C6C600574046C70111260BF2426F582F0
:10598300E43C125A2EA3A882A9838A828B83A3A301
:10599300A3A3A3A3A3A3125A5D54037014E508A2FF
:1059A300E1400E1260BF125A283CF583E054806038
:1059B30008125A43125A30801990155EE0C0E01263
:1059C3005A43D0E0125A7088828983125A700412A3
:1059D3005CD4A3A882A983E508A2E750458E828FF1
:1059E30083125A5D88828983125A76125A6254034B
:1059F30060301260BF2434F582E43C12640DF0E59C
:105A030008A2E1501D8A828B83A3A3A3A3A3A3A30C
:105A1300A312313D2435F582E43A12640DA3F0E874
:105A2300240302314E241EF582E422F583125A3DEB
:105A3300F022125A3DA3A3A3F022E0888289832295
:105A43008A828B83A3A3A3A3A3A3A3A3E0FCA3E0C2
:105A5300CC2432F582E43CF58322E0125A6222FC24
:105A6300A3E0CC2425F582E43CF583E022F09015F5
:105A73005EE022126611E022F582E43DF583125ABC
:105A83003D125A8822126615125A93228E828F83F0
:105A9300E0FDA3E0CD22A3125A88242CF582E43D35
:105AA300F58322C082C0838A828B83125B68FC7475
:105AB300035CF98A828B83A3A37401F0E960057404
:105AC30002697061740C5CF8600A7408686005749C
:105AD300046870137402697005ECA2E440098A82B9
:105AE3008B83A3A37402F0740C68700A8A828B837D
:105AF300A3A3E02402F07402697005ECA2E440253C
:105B03008A828B83A3A3E02404F0E8600F740868FF
:105B1300600A740C68600574046870098A828B8358
:105B2300A3A3E004F0ECA2E7502A8A828B83A3A309
:105B3300E004125B6E123647E0540360178A828BCF
