:020000040000FA
:06000000021025020604B7
:03002B00020D873C
:03003300020C7448
:0300530002053370
:1000830002059501010000000000F8FF07FFFF00D3
:10009300000504000000030001FF18102700000002
:1000A30020FD000206FFFF1E1900000032000000C1
:1000B300010000008819000000000000000000009B
:1000C30000000000FFFFFF001E0014004600320086
:1000D30000000000000005000104010C000204718F
:1000E3008103A081010400001314000000E8030051
:1000F30000FFFF641488130000E80300002C012CA8
:1001030001BC02A0BB0D00A0BB0D0002020207044C
:10011300010A1E02051E020A0A010108080103B8AA
:100123000B02803E0102FEFFE8030A050001FFFF08
:10013300020A011401E002000000050301010F039C
:100143000003000300030003000300030003000394
:100153000005000A00140028004F009E000000B7AD
:100163002B000000008B2A00000000FF000000FFAE
:10017300001210536046121071603DE9687008F672
:1001830018F618F618F622748067F71201A8090901
:1001930009748067F722121071601D1210537005E5
:1001A300191919801A120F14701F120ED8C3700375
:1001B300E667331919194007181818220808087434
:1001C300FFF618F618F618F622120ED8601712105A
:1001D300F1702192F01210DF7019501720F01408FB
:1001E3000808090909E7F61819E7F61819E7F618D0
:1001F30019E7F6221210DF60E6E869701F0808E6C7
:100203002480F608E436F618547FB47F0CE6548055
:100213006007F6E418F618F622181822E9C6CC0887
:10022300C6CD08C6CE08C6CFC0E0E8C0E0EAC0E04D
:10023300EBC0E009E9F809E7FA09E7FBE6F918E694
:10024300F8C3EC98ED99EE9AEBC2E7F5F0EFC2E74D
:1002530095F0500E600CEBCFFBEACEFAE9CDF9E84E
:10026300CCF8EAA2E7D2E7FAEB33FB13F5F0EEA200
:10027300E7D2E7FEEF33FFC5F013A2E730E601B3A1
:1002830013C5F0C3C0E0C0F07F00C39BFB605E9466
:1002930018600F401D14601AD0E023F9D0E0F80273
:1002A300037A8AF0E9486003D2F0E4AFF0FAF9F890
:1002B300803BEB30E40D89F0EA6003D2F0E4AFF069
:1002C300F9CAF8EB30E30D88F0EF6002D2F0AFF03B
:1002D300E4CAC9F8EB54076014FBC3EA13FAE91341
:1002E300F9E813F8EF135002D2E0FFDBEDD0E0C0E2
:1002F300E030E739C3E49FFFF5F0EC98FC42F0ED02
:1003030099FD42F0EE9AFE42F0D0E0F9D0E0F8E534
:10031300F0607AE923F9EE20E742D8028067C3EF61
:1003230033FFEC33FCED33FDEE33FE80EAEC28FCC7
:10033300ED39FDEE3AFED0E023F9D0E0F84002803B
:100343001BC3EE13FEED13FDEC13FCEF135002D2AF
:10035300E0FF08B800067F7F74FF802EEF3350174D
:100363008CF020F00260100CBC000C0DBD00080ED8
:10037300BE000408E860DFE933E813FFEE2313FE51
:100383004F4D4C8008E95480FFE4FEFDFCEE33EF53
:1003930033F47004FCFD7E80D0E0FBD0E0FAD0E0C3
:1003A300F8D0E0CFC618CEC618CDC618CCC6F922F1
:1003B30000121071604F1210536012E7548066F6FA
:1003C300120F1470111210F1703B090909F4F61899
:1003D300F618F618F622120ED870151210DF080858
:1003E3000860EAE6447FF618768018E4F618F622E9
:1003F3001210DF60161210F17012E4F608F608F618
:1004030008E65480F609090918181822EAC0E0EB37
:10041300C0E0ECC0E0EDC0E0E687F0A4FBACF00880
:10042300E687F0A42CFCE435F0FA1809E687F0A47B
:100433002C4B60027401CA35F0FCE433FB09E687F8
:10044300F0D2F7A42CCB35F0FC1908E687F0A42BE7
:10045300CC35F0FBE433FD0819E687F0D2E7A42C92
:100463004ACB35F0CD3400FC09E687F0D2E7A42D62
:10047300CC35F0FDE433FA0918E687F0D2F7A42C63
:10048300CD35F0CA3400FC08E687F0D2E7D2F7A4F2
:100493002ACC35F07A7E20E70B0ACB33CBCD33CD94
:1004A300CC33CC33CB3350147004ED30E00ED2F1A7
:1004B300E4CD3DCDCC3CCC3B5005DA05C2F1EB5449
:1004C3007FC63308E63392F0FBE73309E733C39A79
:1004D300502D2B70190C0D4C4D70151806E608C3E2
:1004E30033700D20F10AA2F013F6E418800B4024B8
:1004F300E4F630F002768018F618F618F68024D366
:100503003B14501074FFA2F013F6187680E418F62B
:1005130018F6800FA2F013F618E63303F618ECF67C
:1005230018EDF6D0E0FDD0E0FCD0E0FBD0E0FA22FD
:10053300C0E074F112091DA2AFE433F509D2AF850F
:10054300A708AFA1EF5508FE74105E60061213E80A
:1005530075A1EF74085E60081213EE75A1F780248D
:10056300EFA2E092F0E508A2E082F05017906198C4
:10057300E0F890060CE0C398A2D265D0335002E8AD
:10058300F075A1FE752300E509A2E092AF7F020298
:1005930009D9C0E074F212091DA2AFE433FED2AF51
:1005A3009061A4E0F8759B00E591585408600875C4
:1005B30091F712143C8023E591585410600875910B
:1005C300EF1214428014E591A2E092F0E8A2E082D7
:1005D300F05007E0C2E0F01215989061A3E0F8E54F
:1005E300E9585404600E12156E75E9FB906193E0AF
:1005F300A2E640F2752300EEA2E092AF7F0102096A
:10060300D9C0E074F212091DA2AFE433FED2AF9059
:1006130061A5E0F8E5BF585404600675BFFB1215E9
:10062300B080D1C3E498F8E499F91206678026C331
:10063300E49AFAE49BFBE920E7E9120667E498F8F9
:10064300E499F922C3E498F8E499F9120667E49867
:10065300F8E499F9C3E49AFAE49BFB22EB20E7CF91
:10066300E920E7E0B90010BB0008E88AF084F8AAA3
:10067300F022E4FBC8FA22EB70227B10C833C8C90E
:1006830033C9335007C39AC3DBF280069A50012A59
:10069300DBEAC833F4C8C933F4C9FA2275F008E4B5
:1006A300C833C8C933C933C99AC99B5004C92AC9B5
:1006B3003BD5F0ECFBC833F4C8E4C9FA2212070BAC
:1006C30030F039120750803412070B20F01430E752
:1006D3002B74FFFCFBFA747F8022E4FCFBFA74802A
:1006E300801AB48008BC00F2BB00EF800F50EBF916
:1006F300E4C39AFAE49BFBE49CFCE499C6CC18C6D9
:10070300CB18C6CA18C6F922E4C9C608CAC608CB9C
:10071300C6D3330308CCC63392F0C3947F402E94E0
:10072300184019C9B90704CACBCC225025C309CA3A
:1007330033CACB33CBCC33CC33D9F422F4600DC9D9
:10074300CCC313CB13CBCA13CAD9F6CC22E4FCFB1C
:10075300FA2214FCFBFA22080808EAC0E0EBC0E026
:1007630086F0E7A4FA180986F0E7A42AFA1809869E
:10077300F0E7A42AFA180986F0E7A42AFA1986F002
:10078300E7A4FBE5F02AFA190886F0E7A42BFBE5BA
:10079300F03AFA190886F0E7A42BFBE5F03AFA18C9
:1007A300180986F0E7A4C5F02BFBE43AFA1908E729
:1007B300C5F0C6A426F6E5F03BFBE43AFA1886F04A
:1007C300E7A4F6E5F00826F6E43B08F6E43A08F673
:1007D300D0E0FBD0E0FA22E4CFC0E0E4CEC0E0E416
:1007E300CDC0E0E4CCC0E075F020E626F608E633A1
:1007F300F608E633F608E633F6181818EC33FCED82
:1008030033FDEE33FEEF33FFC3EC9709ED9709EEAB
:100813009709EF97191919400FFFEC97FC09ED970A
:10082300FD09EE97FE191906D5F0BFECF709EDF7B0
:1008330009EEF709EFF7191919D0E0FCD0E0FDD064
:10084300E0FED0E0FF222521C582C0E0E52234FF8F
:10085300C583C0E0E521C3958224F810AF088583E2
:10086300228582218008858322858221D2AFCEF022
:10087300A3E520F0A37808E608F0A3DEFAEFF0A3DF
:10088300E58124FAF8E608F0A3E608F0A3E608F009
:10089300A30808E608F0A3E608F0A315811581D0A4
:1008A300E0FED0E0F8158115811581E8C0E0EEC0C7
:1008B300E0221210CAB90003020907E49005017887
:1008C3000079128002F0A3D8FCD9FA78239000862D
:1008D3007A01BA00028007E493A3F608DAF97A00F2
:1008E3007B1790008778EE79018015E493A3AD829E
:1008F300AE838A828B83F0A3AA82AB838D828E839D
:10090300D8E9D9E77582C07583E27404120D69755D
:1009130082CE7583277400120D69C0D02521C5824C
:10092300C0E0E52234FFC583C0E0E521C3958224FE
:10093300F310AF0885832285822180088583228571
:100943008221D2AFC8F0A3E9F0A3EAF0A3EBF0A3AE
:100953007908E709F0A3D8FAECF0A3EDF0A3EEF0E1
:10096300A3EFF0A3D0E0F0A3D0E0F0A3D0E0F0A396
:10097300E520F0A3E5F0F0A322E9799EC608CAC6F4
:1009830008CBC608CCC6C370207996CACBCC7019E5
:10099300798ECBCC70137986CC700EF9802ACA334A
:1009A300CACB33CBCC33CC331930E7F2CCCBCA33FD
:1009B30050147004EA30E00DE4CA3ACACB3BCBCC06
:1009C3003CCC500209C3E913C6CC182313C6CB1879
:1009D300C6CA18C6F922852283852182E0C0E0A316
:1009E300E0F9A3E0FAA3E0FBA37808E0F608A3DFAD
:1009F300FAE0FCA3E0FDA3E0FEA3E0FFA3E0C0E078
:100A0300A3E0C0E0A3E0F5D0A3E0F520A3E0A3F5C5
:100A1300F010AF0885832285822180088583228593
:100A23008221D2AFD082D083D0E0F8D0E032000070
:100A33002275F0108E248F258582298583288521B0
:100A430082852283E0CEA3E0CF852982852883EBAC
:100A5300C9EAC8EDCBECCAC3E833C8E933C9EA3302
:100A6300CAEB33CBC3EA9EF527EB9FF526B35004BD
:100A7300AB26AA27EC33CCED33CDD5F0DAAE24AFD9
:100A83002522121071601C12105360171210DF70B0
:100A9300071210F17001D322C0D01210F17006D0EA
:100AA300D0B322C32233D0D0501430E0F6C3E7963C
:100AB3000809E7960809E7960809E796B32220E0B4
:100AC300D5E6970809E6970809E6970809E697B374
:100AD30022D083D082ECC0E0EDC0E0E493A3FCE439
:100AE30093A3FDED4C600D120BACEC24FFFCED3435
:100AF300FFFD80EFE493A3FCE493A3FDED4C600DB5
:100B0300120C49EC24FFFCED34FFFD80EFD0E0FD37
:100B1300D0E0FCE493A3C0E0E493C0E022D083D010
:100B230082E9C0E0E493A3C386F0C5F095F0F90829
:100B3300E493A386F0C5F095F0700BE493A3C399F7
:100B43004005E9048002A3E475F002A42582F5823E
:100B5300E5F03583F583D0E0F9E493A3C0E0E493B3
:100B6300C0E022852283852182E0A3FEE0A3F52055
:100B73007808E0A3F608DFFAE0A3FFE0A3C0E0E013
:100B8300A3C0E0E0A3C0E0E0A3C0E0E0A3C0E010A6
:100B9300AF0885822185832280088582218583226F
:100BA300D2AFD083D082020D6FC0E0C3E493960826
:100BB3007401939618400FE49366700808740193C8
:100BC300661870007019A3A3C3E493960874019385
:100BD3009618A3A3400DD0E0D0E0D0E0020B10A301
:100BE300A3A3A3A3A3D0E02274048004740280000F
:100BF300CCC0E0EDC0E0E521C39CCCAD2250011D8B
:100C030010AF068C218D2280068C218D22D2AF124B
:100C13000CEBD0E0FDD0E0FC2274028000CCC0E0FD
:100C2300EDC0E0E521C39CCCAD2250011D10AF0601
:100C33008C218D2280068C218D22D2AF120CC9D03B
:100C4300E0FDD0E0FC22C0E0C0F088F0E4936670E1
:100C5300080874019366187000A8F0A3A3700BD062
:100C6300F0D0E0D0E0D0E0020B10A3A3D0F0D0E0AE
:100C730022C0E074F212091DA2AFE433FED2AFE545
:100C83008BA2E05005790412132E758B00C2E87510
:100C93002300EEA2E092AF7F010209D9D083D08274
:100CA300CCC0E0E493A36006120D2B1470FAE49316
:100CB300A36006120E6E1470FAD0E0FCE493A3C096
:100CC300E0E493C0E022CAC0E0E493A3C582CCC5AC
:100CD30082C583CDC583F0A3C582CCC582C583CD30
:100CE300C583DAE5D0E0CA22CAC0E0E0A3C582CC5E
:100CF300C582C583CDC583F0A3C582CCC582C58318
:100D0300CDC583DAE6D0E0CA22C008C3E096F50871
:100D130008A3E096420808A3E096420808A3E096D9
:100D230045087001D3D00822C0E0E493A3D39C50BC
:100D330010E493A3C39C400AD0E0D0E0D0E0020CBF
:100D4300BCA3A3A3D0E022700908080822601618E8
:100D53001818C6C333C608C633C608C633C608C682
:100D630033C6D5E0EA22C09FF59FE473D09F22D01B
:100D730083D082C09FE493C0E0740193C0E0740207
:100D830093F59F22C0E0C0D0E8C0E0A8A8D2AFC2CC
:100D9300C7752300E8A2E792AFD0E0F8D0D0D0E047
:100DA300327404800A74038006740280027401C0E2
:100DB300E0F404120DDAD0E012108D2200C0D02529
:100DC3002110AF08F521500C05228008F5215002AF
:100DD3000522D2AFD0D0222521F58210AF08F5210C
:100DE300400C15228008F52140021522D2AF85223E
:100DF3008322BB0102E722C082C08389828A83BB2C
:100E03000003E08002E493D083D0822260160808B6
:100E130008C6C313C618C613C618C613C618C61306
:100E2300C6D5E0EA222521F8E43522F9222521FA64
:100E3300E43522FB222521FCE43522FD22C3E0C652
:100E430096F608A3E0C696F608A3E0C696F608A3AE
:100E5300E0C696F622252110AF08F521400C152295
:100E63008008F52140021522D2AF22C0E0E493A30B
:100E73006C7009D0E0D0E0D0E0020CBCA3A3D0E0BA
:100E830022C3E09608A3E09608A3E09608A3E096A1
:100E9300A2D265D03322E066701008A3E066700A20
:100EA30008A3E066700408A3E06622C3E796080976
:100EB300E7960809E7960809E796A2D265D0332298
:100EC300E76670100809E766700A0809E7667004A8
:100ED3000809E76622191919E70947097009E7277D
:100EE300097005E733F4220922C3E096F008A3E072
:100EF30096F008A3E096F008A3E096F022C3E697E5
:100F0300F60809E697F60809E697F60809E697F65C
:100F130022181818E60846087009E626087005E640
:100F230033F4220822C3E493960874019396087459
:100F3300029396087403939622E026F608A3E036FC
:100F4300F608A3E036F608A3E036F622E627F6080D
:100F530009E637F60809E637F60809E637F6227098
:100F63000422600D18C6C333C608C633C6D5E0F4E1
:100F73001822E056F008A3E056F008A3E056F00864
:100F8300A3E056F022E657F60809E657F60809E605
:100F930057F60809E657F622E026F008A3E036F0F4
:100FA30008A3E036F008A3E036F022E056F608A3E3
:100FB300E056F608A3E056F608A3E056F622E64705
:100FC300F60809E647F60809E647F60809E647F68C
:100FD30022E4C396F608E496F608E496F608E49647
:100FE300F622600D08C6A2E713C618C613C6D5E0DD
:100FF300F322C6F4C608C6F4C608C6F4C608C6F487
:10100300C622C3E09608A3E09608A3E09608A3E0EF
:101013009622C3E7960809E7960809E7960809E7C1
:10102300962275D00075813F752101752205000256
:1010330008B5600C08C6C313C618C613C6D5E0F4BA
:1010430022E6F008A3E6F008A3E6F008A3E6F02200
:10105300E7094709C3134709336002E733F422E082
:10106300F608A3E0F608A3E0F608A3E0F622E608F4
:101073004608C3134608336002E633F422800100B6
:10108300E9F874FF28F90470F622CAC0E0E6F0A379
:1010930008DAFAD0E0FA22E0F8A3E0F9A3E0FAA331
:1010A300E0FB22E8F0A3E9F0A3EAF0A3EBF022EAE5
:1010B300F0A3EBF0A3ECF0A3EDF022E0FAA3E0FB46
:1010C300A3E0FCA3E0FD22E5C754F84401F5C7798A
:1010D30001222521F582E43522F58322E6261846EE
:1010E3001846184622C2AF75D69F02000022E72792
:1010F30019471947194722120D7280DA02120D722D
:101103002CDB02120D725CDB02120D72BCDB0212CD
:101113000D7250DC02120D7201DD02120D7252DDEE
:1011230002120D7296DD02120D7230DE02120D7282
:10113300A0DE02120D72CFDE02120D72D5DF021293
:101143000D72FFDF02120D7253E002120D7227E1DE
:1011530002120D7255E302120D7203E402120D72B4
:1011630070E602120D72F5E602120D72F8E9021230
:101173000D722CEC02120D7268EC02120D72C1EDAD
:1011830002120D72D4ED02120D7211EE02120D72E3
:10119300ADEF02120D7261F102120D7200800412A2
:1011A3000D727C8004120D72AF8004120D72DD800B
:1011B30004120D721B8104120D72588304120D72F6
:1011C300778304120D72BC8304120D7252840412CD
:1011D3000D729E8404120D72328504120D720B86F9
:1011E30004120D72678604120D72C58604120D7205
:1011F300388704120D727C8704120D72D48704128F
:101203000D72F68704120D72868804120D72178907
:1012130004120D72638904120D728F8904120D7208
:10122300D08904120D72668B04120D72528C041253
:101233000D722D8D04120D72C6D704120D72F1D7E3
:1012430004120D720CD804120D7231D804120D72EF
:10125300D9D804120D72F2D804120D72BCD904123B
:101263000D72E6D904120D721AF404120D721FF4F2
:1012730004120D7252F404120D7271DC04120D7219
:101283002DDD04120D7212DE04120D720CEE041227
:101293000D721DEE04120D72BBEE04120D72C6EE3A
:1012A30004120D72E0EE04120D72F47F00120D723F
:1012B300E17F00120D72EFEE04120D72FFEE0412C5
:1012C3000D7211EF04120D72C3EF04120D7207ECCD
:1012D30004120D728BEC04120D72F3EC04120D72F6
:1012E30094DE04120D72A8DE04120D721EDF0412C6
:1012F3000D726DDF04120D72A2DF04120D72C7DFCF
:1013030004120D72EADF04120D7225E004120D724D
:1013130052E004120D7299E004120D72D9E904121D
:101323000D7260EA04120D7269EA04120D7290EAFA
:1013330004120D72D8EA04120D72EFEA04120D7250
:10134300F2FF02120D72F5FF02120D72F87F001206
:101353000D72B3E004120D72EBE004120D7239E268
:1013630004120D72BDE204120D72C1FE02120D725F
:101373000EFF02120D7237FF02120D72D57A0012A0
:101383000D72017B00120D726B7D00120D72AB7D2D
:1013930000120D72E77D00120D72FB7D00120D72BB
:1013A300147E00120D72067F00120D72B97F0012B7
:1013B3000D72CD7F00120D72A7E404120D72CBE4FF
:1013C30004120D72E4E404120D7222E504120D728C
:1013D30052E504120D727FE504120D7289E50412C1
:1013E3000D72EFE504120D72F2E504120D72FCE5C5
:1013F30004120D7209E604120D721FD504120D7248
:101403003FD504120D727ED504120D729CD50412C1
:101413000D72B7D504120D721DD604120D7229D6A2
:1014230004120D7286D604120D7295D604120D7233
:10143300B9D604120D727AD704120D7287D704122B
:101443000D7298D704120D72C0F104120D7208F2D6
:1014530004120D7234F204120D7237B304120D72BA
:1014630093B404120D72A1B404120D72B4B4041235
:101473000D72C9B404120D72DEB404120D72F1B40C
:1014830004120D726DB504120D72D2B504120D72F1
:101493005AB604120D72D2B604120D72ABB704120F
:1014A3000D72BBB704120D72CAB704120D7227F185
:1014B30004120D724BF104120D7273F104120D72CA
:1014C3009BF104120D729EFD03120D72C5FD0312F2
:1014D3000D72E3FD03120D7252FE03120D724CD214
:1014E30004120D7265D204120D7271D204120D72C0
:1014F30085D204120D72A3D204120D72ADD204125E
:101503000D72B7D204120D72CAD204120D7250D3E7
:1015130004120D72C5D304120D72F4D304120D72AA
:1015230042D404120D7291D404120D72ACD404127D
:101533000D72B6D404120D72C7D404120D720AD5FB
:1015430004120D72B4F204120D72FFF204120D7242
:1015530081A204120D72ADA204120D72CAA204126A
:101563000D72DDA204120D72F8A204120D7252A3C1
:1015730004120D7280A304120D7290A704120D724F
:10158300EEA804120D7220A904120D7283A904128D
:101593000D72EFAA04120D7217AB04120D722CAB6D
:1015A30004120D723CAB04120D727CAB04120D726B
:1015B300BEAB04120D72CEAB04120D72A9E8041275
:1015C3000D72C3E804120D72EBE804120D7204E904
:1015D30004120D7228E904120D7246E904120D7209
:1015E3005DE904120D728BE904120D72A6E904126F
:1015F3000D72C9EF04120D720FF004120D72ACC814
:1016030004120D72BCC804120D72C1C904120D720A
:10161300F3C904120D7223CA04120D7246CA0412CE
:101623000D725DCA04120D7297CA04120D72FCCAC0
:1016330004120D723ECB04120D7285CB04120D728F
:10164300B2CB04120D72DDCB04120D7213E6041239
:101653000D7225E604120D7239E704120D723CE790
:1016630004120D7201EB04120D7237EB04120D72AA
:101673004FEB04120D7291EB04120D72A1EB0412E5
:101683000D72E5EB04120D72EFEB04120D72FEAB5B
:1016930004120D7241AC04120D72A6AC04120D7249
:1016A300C5AC04120D7267AD04120D7270AD041255
:1016B3000D72C1AD04120D72EAAD04120D72F7ADD5
:1016C30004120D7269AE04120D72F7AE04120D729C
:1016D3003CAF04120D7275AF04120D72DAAF04122F
:1016E3000D7203B004120D727AB004120D72C9B0F8
:1016F30004120D7206B104120D723BB104120D7285
:101703004DB104120D725FB104120D727EB1041259
:101713000D7287B104120D7248B204120D728BB2AE
:1017230004120D72C9B204120D7263F304120D7226
:1017330069E704120D7233DA04120D7269DA0412C6
:101743000D72B1DA04120D720ADC04120D726EDE30
:1017530003120D7294DF03120D72D0DF03120D72A8
:101763008EE103120D72BCE103120D7226E4031223
:101773000D7266E403120D7208E603120D729EE603
:1017830003120D72F8E603120D7288E703120D724D
:10179300CCE703120D720EE803120D7273E9031204
:1017A3000D72F3EA03120D7234ED03120D7262ED42
:1017B30003120D728EED03120D7297ED03120D726B
:1017C300F4ED03120D728DEE03120D72A4F10312E8
:1017D3000D722AF203120D727DF004120D7295F050
:1017E30004120D729FF004120D72F5F004120D72C3
:1017F30075BC04120D728BBC04120D722CBD041245
:101803000D726BBD04120D7288BD04120D72B9BD49
:1018130004120D7206BE04120D723ABE04120D724A
:1018230075BE04120D7272C004120D72D8C0041278
:101833000D720CED04120D726BED04120D72A9ED15
:1018430004120D72EAED04120D720BF304120D7201
:101853006DBF01120D7279BF01120D72DBBF011250
:101863000D72E5BF01120D7274C001120D72B0C08A
:1018730001120D72A2C101120D72FFC101120D728C
:101883008DC201120D72DEC201120D725EC301120E
:101893000D7224C501120D721EC701120D7220C8EC
:1018A30001120D7252C901120D72A8CB01120D72F1
:1018B300EACC01120D7290CD01120D724ED20112BB
:1018C3000D724BD301120D72E1D301120D7211D4BB
:1018D30001120D72AED401120D72CBD401120D722E
:1018E300EBD401120D7259D501120D7276D5011286
:1018F3000D72A4D501120D723ED701120D725FD77E
:1019030001120D7205D801120D724DD801120D721C
:10191300ABD801120D7249D901120D72AED9011261
:101923000D7217DA01120D7255DA01120D7207DB0F
:1019330001120D7272DB01120D72AEDB01120D7218
:101943001FDC01120D726ADD01120D72FADE011243
:101953000D7293DF01120D72E4E101120D7249E27F
:1019630001120D7277E201120D72BDE701120D72C1
:1019730081EA01120D7281EB01120D7218F302124A
:101983000D72E5F402120D72A7F602120D72B5F68E
:1019930002120D72D4F602120D72FDF602120D72CE
:1019A3000CF802120D725BF802120D7200F90212AA
:1019B3000D7259FA02120D7264FB02120D727CFC55
:1019C30002120D72FFFD02120D721DC504120D727B
:1019D300D8C504120D723EC604120D725FC60412FE
:1019E3000D723AC704120D7208C903120D7237C97A
:1019F30003120D72AFC903120D72BECA03120D7228
:101A03001ACB03120D7287CC03120D72A3CC0312EF
:101A13000D72F5CC03120D7238CD03120D724BCD3E
:101A230003120D72A3CD03120D7265CE03120D7254
:101A3300E1CE03120D7218CF03120D7250CF0312B1
:101A43000D72E2D003120D72C1D103120D720FD3C6
:101A530003120D72F2D303120D727ED403120D72B0
:101A6300BED403120D72DDD403120D7228D50312F6
:101A73000D7248D503120D72E1D503120D7267D6AC
:101A830003120D72C2D603120D7202D703120D7226
:101A930098D903120D72B1DA03120D72F7DA031239
:101AA3000D7221DC03120D7249DC03120D724CDC42
:101AB30003120D7256DC03120D7272DC03120D72E7
:101AC300ECDC03120D7225DD03120D7251DD0312DE
:101AD3000D7278DD03120D729CDD03120D720DDEA3
:101AE30003120D7220DE03120D724FDE03120D720C
:101AF30037F204120D7243F204120D7277F20412DC
:101B03000D72F8FF02120D72F0B203120D7213B3CD
:101B130003120D7258B403120D72A1B403120D72A5
:101B23000DB503120D726BB503120D726EB5031270
:101B33000D72BFB503120D7234B603120D72B9B62E
:101B430003120D72BCB603120D723DB703120D7270
:101B53007EB703120D726ABB03120D7214BD03121A
:101B63000D7264BD03120D72F3C003120D7226C20F
:101B730003120D727BC303120D7218C403120D728C
:101B830003C503120D72EB9E04120D726AEF01126C
:101B93000D7214F001120D727FF001120D729AF0A2
:101BA30001120D7219D802120D7279F101120D7220
:101BB300C0F101120D7227F201120D72A6F3011288
:101BC3000D72D5F401120D725DF501120D7266F7F7
:101BD30001120D7213F801120D72B7F801120D7292
:101BE30088F901120D7243FB01120D72DBFC011225
:101BF3000D726EFD01120D7294FE01120D724CD323
:101C030002120D72638003120D72AB8003120D7208
:101C1300EF8003120D724A8103120D72A781031222
:101C23000D72E28103120D72648203120D72BE8281
:101C330003120D723C8403120D72BC8403120D72E5
:101C4300178503120D72318503120D72528503122B
:101C53000D72AC8503120D72288803120D7247882A
:101C630003120D72378903120D726A8A03120D7201
:101C7300E98A03120D72258B03120D72948B0312E2
:101C83000D72498C03120D72218E03120D72288F6F
:101C930003120D72A09003120D72969203120D722D
:101CA3000C9503120D72E69603120D72A797031299
:101CB3000D721F9803120D72369803120D722D992F
:101CC30003120D72219A03120D72909A03120D7270
:101CD3005ACF04120D72B1D004120D7270D10412D6
:101CE3000D72D8D104120D7235CC04120D7250CC82
:101CF30004120D7294CC04120D72BACC04120D723C
:101D0300E1CC04120D72F9CC04120D729BCD0412B6
:101D13000D72B0CD04120D72D3CE04120D72DCCE4F
:101D230004120D72E5CE04120D72EECE04120D7282
:101D3300F8CE04120D72FBB704120D7207BC041225
:101D43000D720CBC04120D720EBC04120D7234E33E
:101D530004120D72D3FF01120D72BBF304120D7244
:101D6300CBF304120D72E5C004120D72EBAC021238
:101D73000D721EAD02120D728AAD02120D7225AEE6
:101D830002120D72C2AE02120D7207AF02120D7271
:101D930029AF02120D7242AF02120D7268AF021226
:101DA3000D728AAF02120D72C8AF02120D720CB01F
:101DB30002120D722EB002120D7290B002120D7249
:101DC30057B102120D720EB202120D7280B20212DC
:101DD3000D724BB302120D729EB302120D7204B454
:101DE30002120D723EB402120D7290B402120D7201
:101DF300FEB402120D7269B502120D726CB50212B5
:101E03000D72EDB502120D7284B602120D7204B793
:101E130002120D7223B702120D7287B802120D72ED
:101E230094B802120D72A0B902120D72ADB902126A
:101E33000D72B6B902120D728EBB02120D72A8BCDE
:101E430002120D7221BD02120D7293BD02120D72A8
:101E5300B5BD02120D7249BE02120D721DC00212EF
:101E63000D72F4C302120D7208C402120D7218C46B
:101E730002120D7222C402120D722BC402120D72D1
:101E830034C402120D723EC402120D726BC40212EC
:101E93000D7294C402120D729FC402120D72C3C458
:101EA30002120D72E7C402120D7251C502120D72B5
:101EB30097C502120D72B4C502120D7231C6021219
:101EC3000D7268C602120D72A7C602120D72F4C615
:101ED30002120D727AC702120D7248C902120D72F4
:101EE300CBC902120D72AFCA02120D7216CD0212C5
:101EF3000D726FCD02120D72B9CD02120D7214CF95
:101F030002120D7249CF02120D729BCF02120D7293
:101F130050D002120D72FFD002120D723CD1021288
:101F23000D72D1D102120D723DD202120D72182E12
:101F330000120D724A2E00120D72782E00120D72CD
:101F43004E3000120D722E3100120D7286310012C6
:101F53000D72C13200120D720D3300120D7236363E
:101F630000120D72293900120D72793A00120D72A6
:101F73000F3B00120D721B3B00120D724D3B001202
:101F83000D72D03C00120D72813E00120D72153F8E
:101F930000120D72583F00120D72D63F00120D72DF
:101FA300F33F00120D72234000120D7258400012CD
:101FB3000D72284100120D72D14100120D72574467
:101FC30000120D72774500120D72624600120D72F7
:101FD300E44600120D72184B00120D72554B00129D
:101FE3000D72AD4B00120D72E04B00120D724A4C94
:101FF30000120D72804C00120D720B4D00120D7207
:10200300634D00120D723A4E00120D72F34E001220
:102013000D728E4F00120D72965200120D72B25352
:1020230000120D72555700120D72495800120D72AD
:102033004C5800120D727B5800120D72815A001217
:102043000D725A5B00120D729D5B00120D72F35CF0
:1020530000120D72325D00120D72BB5D00120D7223
:10206300EF5D00120D72B45E00120D72CC600012AF
:102073000D723D6100120D727D6100120D720B62D3
:1020830000120D722D6300120D72EF6300120D72B8
:10209300F66500120D720E6600120D7222660012B2
:1020A3000D725A6600120D72886600120D7207686F
:1020B30000120D722C6900120D72896900120D72E3
:1020C3003B6A00120D72626A00120D72296B0012D4
:1020D3000D72C16B00120D72E76D00120D721C6E52
:1020E30000120D727F6E00120D72AE6F00120D7230
:1020F300567000120D72877000120D729F700012DD
:102103000D722E7100120D72E27300120D72BA7508
:1021130000120D72D67500120D72F27500120D7257
:10212300C07600120D72B37A00120D72768201121C
:102133000D72A88201120D72978601120D72E38649
:1021430001120D72298701120D72CB8701120D72D4
:10215300278801120D726C8801120D72B389011266
:102163000D72C78A01120D72B68E01120D723A8F6B
:1021730001120D72479001120D72A39001120D729C
:10218300939201120D72089301120D7212930112B0
:102193000D721F9301120D724A9301120D72319445
:1021A30001120D72DB9401120D72599501120D7219
:1021B300799501120D72A29501120D72C495011247
:1021C3000D72249801120D72EA9801120D722F9963
:1021D30001120D72AC9901120D725D9A01120D720A
:1021E3008F9A01120D72D59A01120D72119B011271
:1021F3000D72619B01120D72B59B01120D720B9C46
:1022030001120D72579C01120D72C49C01120D72C2
:102213003F9D01120D720A9F01120D720AA0011255
:102223000D722FA101120D726EA401120D7281A7FE
:1022330001120D723EA801120D7282A801120D72D5
:1022430032AA01120D7246AA01120D7250AA01128E
:102253000D725AAA01120D7266AA01120D7282AA98
:1022630001120D722DAB01120D726CAB01120D72C6
:1022730076AB01120D7280AB01120D72F0AB01123D
:102283000D723BAC01120D7250AD01120D72ACAD6B
:1022930001120D722DAE01120D72ECAE01120D7210
:1022A300F5AF01120D7229B101120D7217B20112AD
:1022B3000D722FB201120D728AB201120D72A8B201
:1022C30001120D72F0B201120D7217B301120D72E9
:1022D300B2B301120D7278B401120D720AB5011274
:1022E3000D7284B501120D729EB601120D724BB7B9
:1022F30001120D7273B801120D72C3B801120D727F
:1023030027B901120D7289B901120D72B7B9011201
:102313000D72DBB901120D7210BA01120D7241BABE
:1023230001120D7274BA01120D7294BA01120D7278
:10233300FCBA01120D72F0BB01120D724BBC0112FB
:102343000D7274BC01120D72FCBC01120D727FBDC3
:1023530001120D72AABD01120D728FBE01120D7210
:1023630089F203120D72C1F203120D72E2F203122B
:102373000D7224F303120D7286F303120D7290F3A0
:1023830003120D72A0F303120D72DBF303120D722D
:10239300BBF703120D72A8F903120D728EFB031221
:1023A3000D7225FC03120D72C7FC03120D722481FA
:1023B30002120D72A28102120D72FE8102120D72BF
:1023C300498202120D72648202120D728F8202120E
:1023D3000D72AC8202120D72B88202120D724F841A
:1023E30002120D72688402120D72ED8402120D72D4
:1023F300008502120D721F8502120D72C38502122F
:102403000D72448702120D72F78802120D728D89C4
:1024130002120D72908902120D72008A02120D725D
:102423001E8A02120D72B58A02120D72FD8A021201
:102433000D72008B02120D72C68B02120D72338C59
:1024430002120D72598C02120D72E48C02120D727B
:10245300028D02120D72488D02120D72FC8D021252
:102463000D72468E02120D72758E02120D72D28E8D
:1024730002120D72078F02120D72338F02120D7248
:10248300418F02120D728E8F02120D72FE8F021295
:102493000D72479002120D72939002120D72BF904B
:1024A30002120D72CA9002120D72E89002120D729E
:1024B300D39102120D72DD9102120D721892021263
:1024C3000D72289202120D72319202120D728592D0
:1024D30002120D72999202120D72C89302120D72BA
:1024E300DF9302120D72F49302120D7282940212A0
:1024F3000D72C79402120D72539502120D725E95FE
:1025030002120D72A09602120D72BB9602120D7288
:10251300079702120D72769702120D72AF9702128D
:102523000D72C99702120D720B9802120D72DB9A8B
:1025330002120D72889B02120D72F59B02120D722C
:10254300359E02120D724D9E02120D72509E0212A2
:102553000D725C9E02120D72709E02120D72789EB5
:1025630002120D72AB9E02120D72AD9F02120D721A
:1025730034A002120D72A4A002120D7226A102123F
:102583000D72E7A102120D7206A202120D72A7A22A
:1025930002120D7204A302120D7207A302120D722E
:1025A30034A302120D7249A302120D72BDA30212CB
:1025B3000D720CA502120D7212A602120D729DA6C7
:1025C30002120D72B8A702120D7280A802120D72C8
:1025D300B1A802120D72D4A802120D72DDA8021264
:1025E3000D720CA902120D729CA902120D7252AA4D
:1025F30002120D72C7AA02120D726EAB02120D7295
:10260300E3AB02120D721AAC02120D7258AC021235
:102613000D728EAC02120D72D0D402120D72489E4E
:1026230004120D72489D04120D72619C04120D7206
:10263300519A04120D725F9904120D72FD980412DF
:102643000D72DCB203120D72D2B203120D7267B2B5
:1026530003120D729BB003120D7259B003120D7267
:1026630024D402120D721FF101120D725DAF031219
:102673000D7231AF03120D7217D302120D72E4D231
:1026830002120D72E8AE03120D7229AE03120D721F
:1026930029AB03120D72FBA803120D72C8A8031213
:1026A3000D726FA803120D7202A803120D72C1A757
:1026B30003120D72FAA603120D7294A603120D7281
:1026C30033A603120D72D3A503120D72AAA403122B
:1026D3000D723EA403120D7296A303120D7291A301
:1026E30003120D7285A303120D72B89F03120D72AC
:1026F300929F03120D72CFD202120D72A4D2021254
:102703000D723BA204120D7207A204120D72B0A146
:1027130004120D721EA004120D72709F04120D722A
:10272300309F03120D72D19E03120D72929E0312FB
:102733000D727F9E03120D72669F04120D72749EBA
:1027430003120D72439E03120D72309C03120D721D
:10275300A39B03120D7292D302120D725F9B03129D
:102763000D72008003120D72339B03120D728D984C
:1027730004120D72609804120D722D9804120D72DA
:10278300059804120D72A69704120D72869704120F
:102793000D72519704120D72FD9304120D72E5919F
:1027A30004120D72CF8F04120D724F8F04120D722B
:1027B300FB8E04120D72AF8E04120D72078E04127B
:1027C3000D72FF9E04120D7266C70300000080FBAA
:1027D300E4738F000100AE1787000100AC173500CA
:1027E30004007517250002007917260002007B17E5
:1027F300270002007D172800010087172900010028
:10280300881784000400F014860001000E172A00C4
:10281300010089172B0001008A172C0001008E1775
:102823002D000800FC142E0001008F172F0001005B
:102833009017300001009117310001009217320008
:10284300010004153300010005153400010093173E
:102853003600010006153800010094173900010005
:102863008D1783000200AA1763000100121564008C
:1028730001008B17650001008C176D000100131513
:1028830071000800F41466000100A9174300010059
:102893009A17440002009B17450001009D1746004C
:1028A30002009E17470008000A1548000100A01700
:1028B3004B000100A11704000100AD17A1000100A6
:1028C300B11737000100B01788000100AF173C00B3
:1028D300010007153D000100951749000200A217EA
:1028E3006700010014154D000200A4174E000100FB
:1028F300A6174F000200A7173E00010099175100C9
:1029030001000815520001009717530001009817A2
:102913005400010009150000000000000000000041
:102923002001708200000100200172820000020079
:102933002001748200000300200171820000040062
:1029430042012B810000050042014D810000060079
:1029530042013D8100000700300175820000004004
:102963004201AC810000FEFF21016E8201002000C4
:102973002005401701002100200541170100010235
:1029830021235217020400002905E3130204210244
:102993002923441702042202292346170204200292
:1029A30010234C17020425021023501705040000BE
:1029B3002105E513050421022123481705042202FA
:1029C30021234A170504200210234E17050425026C
:1029D30010235117000136360101000102010001E5
:1029E300030100010401060605020000070100348B
:1029F3000801000F090401010D0100FF0E0800008A
:102A030017020000190100FF1A0100011B0100FE5B
:102A13001C0100081D0200001F010001200100012C
:102A2300210200002301000F2402000026010001FF
:102A330027010008280200FF2A0100072B0102409A
:102A43002C0100002D0100012E0100012F0100FFC8
:102A530030010B1D310800003A0100083B01000F53
:102A63003C0100013D0100FF3E0400004204000060
:102A7300460400004A0400004E0400005204000013
:102A8300560400005A04000001037103010301030B
:102A930001030103010322030203010310030003E3
:102AA30000030003000300030003000342030003C9
:102AB3002403060300030003040312032503230373
:102AC3002503230304030403000300030003440357
:102AD300000300032303000365032100350381037F
:102AE300000305030003000300030003250323037E
:102AF300030271023001600211027002010202023C
:102B030002028002100261023A0041006302730272
:102B13007202620243020002130238000002000242
:102B23000402120200020002000200020402040274
:102B3300370037003C024402000239000002000261
:102B4300650200023502810200020502820283024D
:102B530000020101710101010101110101013101B2
:102B6300010101018001100161013B0014006301B7
:102B730073017201620143010001130106013D016A
:102B830035000401120100010001000100010401EC
:102B93000401330133013C014401320136000001D9
:102BA3000001650100013500810100010501820179
:102BB3008301000103007100300160001100700007
:102BC3003102200350048000100061000000140053
:102BD30063007300720062004300000013000600EC
:102BE30000000000040012000000000000000000CC
:102BF30004000400370037003C02440000000000DA
:102C030000000000650000003500810000000500A1
:102C130000008300000036000100060000000F00E2
:102C230000000000000000000000000003FFFF00A0
:102C3300000403FFFF0000FFFF0FF4010005C404BD
:102C43000320000100000B0000000000000000034F
:102C5300010F000000000000000000000000000061
:102C63000000000000000000000000000000000061
:102C7300000000003A19641940196E1846196A19C0
:102C8300461976194C196E1846196A1952196E1895
:102C93000000000058196E1800000000000000003A
:102CA3005E196E1800000000000000000000000024
:102CB3000000000000000000000000000000000011
:102CC3000000000000000000000000000000000001
:102CD3000000B61B0100B61B02002C1B0280261B42
:102CE3000300321B0400381B04803E1B0500441BF9
:102CF3000600501B3100621B3300681B34006E1B3F
:102D0300FFFF0000030003000400080010001F0081
:102D13003E007B00F600EC01D703AF075D0FB91E41
:102D2300713D000007ECFDFDFDECDCDCCCBCACAC84
:102D33009C9C8C7C7C6C6C5C5C5C4C4C3C3C2C2C80
:102D43001C1C03EAF5E5D5D5C5B5A595958585750F
:102D530075656555554545353525251515050AA46C
:102D630021026E21057A210774210C56210D62215F
:102D7300FF000000160F00000B150B020002220FCC
:102D83003300000E0F5A6967426565416C6C6961D7
:102D93006E63653039D0D1D2D3D4D5D6D7D8D9DA6A
:102DA300DBDCDDDEDF303016181920231A1C1E3061
:102DB30000034D4C4651181A250502000119161837
:102DC300161618230300303017181921301B1D1F46
:102DD30030003C40423A3F3F392F47300C0E020B44
:102DE300040B0A0708000F02040201010101090292
:102DF300E803000000BE040A010024000300E80306
:102E0300FF04091703100F030A0C041E08280218F5
:102E13000A10151E05C082C08312119C90153D74C3
:102E230046F0A3741FF090153F744CF0A3741FF089
:102E33009015417452F0A3741FF09015437458F029
:102E4300A3741FF0025B5374F7120849901531E421
:102E5300F0E9901530F07C0A7D157A327B15121853
:102E6300449017A0E090153AF090153B74F4F0A34A
:102E73007414023DE074F0120849EAFEEBFF54803B
:102E83007003022FE9901530123E757003022FE292
:102E9300EA241B1256E0707CEA241F1256E06413E6
:102EA3007002A3E0706E8A828B8312303790154BC9
:102EB300124C72750A00750B00800D123CB6126D30
:102EC30052121748AA0EAB0FEA4B60488A828B83D3
:102ED300E0650C7004A3E0650D702C8A828B83A3DC
:102EE300A3A3A3E0F50EA3E0F50FE50A450B8A8241
:102EF3008B83A3A3A3A360C3123FB8850A82850B68
:102F030083A3A3A3A380B78A0A8B0B8A828B831222
:102F13004C6E80B4E508242A1256E0FCE50824022E
:102F2300F8E43509F9E8FAE9FB90154B12311EA3D1
:102F3300A3E06402703C8A828B83124C72800B88FC
:102F4300828983A3A3A3A3123FB8E849601F8882A1
:102F53008983E06A7003A3E06B70E488828983A3AA
:102F6300A3E06C70DA9017A6125A10806BECF9127A
:102F73001F82850882850983E06401704FE5082478
:102F830018123020120DB01262FA120BEBE508246E
:102F930012123020120DB0E508123E69120DACE595
:102FA30008240B1262FE120BEFE5082417123E06EB
:102FB300E5082402FCE43509FDE5082419FAE435A3
:102FC30009FB1227A4740A120DBF800CE06402707F
:102FD30007AA08AB09122060AA08AB091216B2EEC1
:102FE300FAEF6480802DEA5402600C9017B97401E3
:102FF300F0EA6402FA8023EA5408601A121F7CEA9A
:103003004B700B90154D1261D57A0812302DEE647A
:1030130008FAEFFB80047A007B00026984F582E4FE
:103023003509F583E0F50A780A22FB901530E0F9BB
:1030330012181422A3A3E0F50CA3E0F50D227B00E4
:10304300901530E0F912180874042274F412084938
:103053008A088B098A828B83A3A3A3124A6A123E2E
:103063001138F583E02409FA12691C700302311147
:103073008A828B837402124ADF8508828509831250
:10308300311EE8F0A3E91265968A828B83A3A3A37A
:10309300A3A3A3A3A3F0E5082403F8E4350912319D
:1030A30013123E113AF583E08E828B83A3A3A3A36D
:1030B300F0EE2409FAE43FFB8E828F83A3A3125C14
:1030C300C2F5838882E0A2E58E828F83A3A3A3A3A4
:1030D300A3500474018001E4F0E5082403F5828918
:1030E30083124C72EA1251F33BF5831268E3120D1B
:1030F300A8123E103B125DB48E828F83A3A3127A73
:1031030092120DBFEEFAEFFB90153012696980162B
:10311300F98882F583E0FAA3E0CA22124E0FA3A333
:10312300227402120DBF7F04020B6674F212084967
:103133008A088B09ECFAEDFB740E1210D5E0FC1231
:1031430011D28A0C8B0DAE0CAF0DEA4F6030AC0878
:10315300AD091211C0E96026AC08AD09EEFAEFFB28
:103163001211C6E970148E828F83123FA5FAEFFB0A
:103173001211BAAA08AB091211EA7900800279B4D4
:10318300024D5E74F012084974F6120E58EAFEEB13
:10319300FF8C088D09750FB3852182852283E4F0A6
:1031A300750E008002050E902E17E493F8E50EC30A
:1031B3009840030232ADAA0E7B0012120E8A0A8BCC
:1031C3000BEA4B60E08A828B83A3A31232B428F00C
:1031D300F8C3EE98EF940050CC7C157D007900AADB
:1031E30008AB0912169A850A82850B83A3A3A3A3AE
:1031F300126D8FE0F8EEC3982925E0F8E433F9E582
:103203000A28F582E50B39F583A3A3A3A3A3A3128D
:103213003E1BA31258378A0C8B0DAC0CAD0DAA08BC
:10322300AB09121844850A82850B83A3E0640170FD
:103233000A1262FA7401123E2D80447401120E3890
:10324300850A82850B83124C701211F6E9603D7476
:10325300091210D5E0C0E01262FAD0E0F07409124E
:1032630010D5E0640370137401120E38E508240BC3
:10327300FAE43509FB121844801274011210D512B6
:103283003FB8E50812581D3509126D50850A82852D
:103293000B83126306123E2DA3A3E0C0E0E50824CE
:1032A300141262FED0E0F0750F00A90F740A0269D0
:1032B30081A3A3A3E0F8852182852283E02274F70A
:1032C300120849E9FE8A828B83A3A3A3A3A3A3E0E5
:1032D300540860338A828B83A3A3A3A3A3A3E054DC
:1032E3000260218A828B83A3A3A3A3A3A3A3A3A383
:1032F300E06406600F74E96E600A74CD6E60057455
:10330300F06E7003121F6402465D74F01208497474
:10331300EF120E58740F1210D51260B97408121000
:10332300D5E9F0ECFEEDFF74051210D51244251219
:103333004649A3E0F91211DE74061210D51260B9E2
:1033430074061210D512528470030235C8123E550A
:10335300E0FA74061210D5E0F9121EA4123628F80A
:10336300A3E0F9E84970030235C8EE2403F50AE443
:103373003FF50BEE2406F508E43FF5097C008508CC
:1033830082F583124C72850A82850B83E0F9121150
:10339300E474031210D51260B9850A82850B83E0A9
:1033A300C0E0852182852283123621D0E012539911
:1033B300F9852182852283123CBD124EEB1232B76E
:1033C300FAA3E0CA2407F582E43AF583E8F0A3E41C
:1033D3001260C42406F582E438F583E4126D5C12AE
:1033E3004A5E120DA8EE123E113F125DB474031231
:1033F30010D5124A6A2409127A8C120DBF7429124D
:1034030010D5126D891231181253AC3A126D5074E3
:103413002B1210D5E0C0E085218285228312524B06
:10342300D0E0F074021210D5E4F074251210D578B0
:103433000812106202351F74031210D5125D7C88C6
:1034430082F583123610A3A3A3125842FB1211FC78
:10345300850E82850F83A3EAF0A3EBF074031210A9
:10346300D5123621A3123610125A51A2E6500F85F7
:103473000E82850F83A3A3A3A3A3E0D2E1F0740577
:103483001210D5E0706B850E82850F83A3123FB8AF
:1034930090158BE0687003A3E0697055850E8285F3
:1034A3000F83A3A3A3123DF0750C00780C120DB08B
:1034B3007808120DA474291210D5E0F50C780C12BB
:1034C3000DB074271210D5120BEF901598120BEF55
:1034D300790074191210D5124C421220A8740A12E2
:1034E3000DBF850E82850F83A3A3A3A3A3E0440589
:1034F300F074021210D5E004FC8E828F83124C6CA0
:103503008E828F83A3A3A3E0F91211E47403121034
:10351300D51260B974021210D5E004F074031210CE
:10352300D5125284606774021210D5E0FA74061241
:1035330010D5123FB8C3EA98E4995051740212109F
:10354300D51238FA852182852283E028F8A3E03951
:10355300F9E8240FF50EE439F50F850E82F583E4BF
:10356300F074031210D512361B6401600302343A5F
:1035730074051210D5740112696FF074031210D51B
:10358300125B4312391DE8F0A3E902345E85218200
:10359300852283124C72121EAA85218285228312F0
:1035A3000BEF74261210D5E0FD74251210D5E0FC44
:1035B300740A1210D5E0F9EEFAEFFB121F5E7402E3
:1035C300120DBF80438E828F83A3A3A3E0C0E07458
:1035D3000C1210D5D0E0F01267D8E0C0E0740D12E1
:1035E30010D5D0E0F074061210D51252847009740D
:1035F3000E1210D574B98007740E1210D57410F022
:103603007409120E301220A27411026981E0850E32
:1036130082850F83A3A3A322E0125371E022E01259
:103623005371A3A322852182852283EAF0A3EB129F
:10363300528D2274F012084974E1120E5874041268
:1036430010D5E9F074031210D5ECF074021210D502
:10365300EDF08A0E8B0F742F1210D5123039AA0C8D
:10366300FB121E9874011210D5E9F0AA0CAB0D12CF
:103673001E9E74011210D5E070030238F585218275
:10368300852283E480158E828F83A3A3A3A3A3E063
:10369300D2E3F0852182852283E0041268C7F8858E
:1036A3002182852283E0C39840030238EC7401121F
:1036B30010D5E070030238EC85218285228312380D
:1036C300FAE50C28F8E50D39F9E8240FFEE439FF93
:1036D3008E82F583A3A3A3A3A3E0A2E040B575085C
:1036E30000750A08750B0074021210D5E0600375AB
:1036F30008207C087D0079007405120E3012169A9A
:103703008E828F83E0603E9015DBE06401701AE5E2
:1037130008D2E3F508750B1012390A1210D5E8F038
:10372300A3E912573574FF807643080C750A0C8E93
:10373300828F83A3123915126D5274051210D5743A
:10374300FFF0A3805A74041210D5E06009E508D293
:10375300E6F508750A0A8E828F83A3E064FE700380
:10376300A3E0F4703074121210D57404126324F8B9
:10377300741D1210D5E8124ADF7412120E30121D96
:10378300C67D007C00790074151210D5AA82AB8324
:10379300121B9E800B12390A1210D5E8F0A3E9F030
:1037A30074071210D5E508F0123E4CC0E0740912FC
:1037B30010D5D0E0F0740A1210D57401F07405121C
:1037C3000E3012206674111210D5E060030238CA5D
:1037D300740D1210D51253948E828F83A3A3A3A3C7
:1037E300F0740D1210D5124AADE50AF0A3E50BF003
:1037F30074031210D5E0C0E0124A3ED0E0125A51D1
:1038030060119015DBE0C0E0740D1210D5124A88E8
:10381300D0E0F0740D1210D5123FB8850C82850DDF
:1038230083A3A3A3A3A3123903241C1260B3126DB1
:103833006C123905125A03391267F7C0E0124A2590
:10384300D0E01268BCC0E0740D1210D512456BD0E5
:10385300E01265BDC0E0740D1210D5124561D0E0D1
:10386300F0740D1210D5123915123903242A12607F
:10387300B3850E82850F83A3A3A3A3A3A3A3A3E06E
:103883001260AC123E3BC0E012454DD0E0F0740D27
:103893001210D5124C72850E82850F831268D224C2
:1038A30028F582E43B126D50123E441268E3120D78
:1038B300A8125DADEA1260453B127A90120DBF74F7
:1038C30005120E3012206C8E828F83A3A3A3A3A3B1
:1038D300E0D2E0F074111210D5E06003023689746F
:1038E300011210D5E0140236957900AA0CAB0D1223
:1038F3001F6A741F026981E075F007A4F8A9F0221A
:10390300A3A3124C76E8228E828F83A3123FBC744A
:103913000522E012391DA3A3A322F8A3E0F9850E23
:1039230082850F83A32274F012084974E8120E589B
:10393300E9852182852283F08A0E8B0F8A828B830D
:10394300A3A3A3A3A3A3A3A3E0F9121EC28A088B74
:1039530009EA4B7003023A06E50E125207123E645F
:10396300123DFB852182852283E06003023A097CB4
:1039730004850E82850F83A3A3A3A3A3A3A3A3E01C
:10398300F9121EC8EE4F607B8E828F83A3A3A3A37D
:10399300123FB874071210D51261EA123FB87409C6
:1039A3001210D5124B0FC0E074111210D5D0E012D3
:1039B300659BA3A3A3A3A3A3A3123FB8740F1210E1
:1039C300D5126D5274121210D5E4126977C8241FF0
:1039D300F582E438F583125D78C413135403FC7045
:1039E300027C048E828F83E0F97808120DAC742078
:1039F30059FD744059F97403120E30121F5E74029C
:103A0300120DBF02697F7C08850E82850F83A3A3F5
:103A1300A3A3A3A3A3A3E0F9121EC88B0BEA4B70C5
:103A230003023987EE4F60DB852182852283E0F52F
:103A33000C780C120DB0850882850983A3A3A3A378
:103A4300A3A3A3E0F50C780C120DB08A828B83A399
:103A5300A3A3E0FB8A82850B831275AF8A82850B51
:103A630083E0FA8E828F83A3A3E0F91227AA74025C
:103A7300120DBF02398B74F712084974FA120E58EB
:103A8300E9FE780179017F00800379000F124DEE82
:103A9300E0FCEFC39C5026EF75F007A4FC85F0080B
:103AA300AD08EA2CFCEB3DFD1243DDE0A2E050DA69
:103AB300540C60D6E0A2E250D3780080CF8A828B88
:103AC30083A3A3A3A3A3A3E0703DE9A2E0400574ED
:103AD300016E70338A828B83A3A3A3A3A3A3740170
:103AE300123DCDE0C0E074031210D5D0E012443C87
:103AF300E0C0E074041210D5D0E0F074051210D5C4
:103B0300E8125D171220A2740602465AC082C083CF
:103B13007901121F6A025B5374F4120849EA4B904D
:103B230017B96019E4F08A088B09F50AF50B7808D0
:103B3300120DA47A02123041120DBF800A7401F0F3
:103B43007A027B0012302E02312974F01208497474
:103B5300F3120E5874031210D5E4F0A3F090154B32
:103B6300123DFB74011210D5E4F0A3124AE404F0F1
:103B7300901585E0A2E35003023C40123DC1740955
:103B83001210D51210A674091210D57808121062FB
:103B930090154D7808120E4074051210D57808124E
:103BA3001044123CC474051210D578081210055045
:103BB300077A017B00023CB174051210D5780C1210
:103BC30010629017A5E0F509780C79081207DAA8B6
:103BD3000CA90D9017A6E0C398E4995003E0800167
:103BE300E8852182852283F074091210D5780812A2
:103BF3001062C008C009C00AC00B74051210D57842
:103C03000C121062123CC4780C79081207DAE4F53E
:103C13000AF50BD00FD00ED00DD00C780C7908120A
:103C23000F0090154D780C1210448011123CB612FF
:103C33006D52EEFAEFFB121748AE08AF09EE4F6074
:103C4300658E828F831232B4C398502DEE2403F80D
:103C5300E43FF9E0FA88828983E0C39AF060237431
:103C6300031210D512411E74011210D5EEF0A3EF0A
:103C7300126205FEA3E0FF80C48E828F83A3A3A3F9
:103C8300E4F08E828F83127A4974011210D5125296
:103C9300848E828F83A3A3A3A360911261DE12108B
:103CA300D5123CBD808974031210D5124C72740D69
:103CB300026981123FBC90154B22125DA3A3A3A3FB
:103CC300229017A4127A51E4F50AF50B2274F0122C
:103CD30008498A088B09890A7800790090154B12E4
:103CE3003DFBFBEE4B601E088E828F83A3A3A3A331
:103CF300124C3C601008E87001098E828F83123DDC
:103D0300F7EA4F70E39017A7124C72C3E89AE99B46
:103D13004003023DB47A06123DB7A80CA90DEA4947
:103D23007003023DB48A828B83E508F0A3E5091290
:103D33003DD6E50AF09017A6124DF6123DCDA3E449
:103D4300F0A3F090154B124C3C600D8E828F83A331
:103D5300A3A3A3126D52801790154B126D529015A9
:103D630085E0A2E34009123DC190154D1210A690C3
:103D73001585E0A2E3503A7A087B00901530E0F90C
:103D830012181AEA4B4C4D70289017A4E0F508A3BB
:103D9300E085080CF50DE4F50EF50F780C120DA473
:103DA3007A087B00901530E0F912180E7404120D96
:103DB300BF0269847B001217428A0C8B0D221218F2
:103DC3002CEAF8EBF9ECFAEDFB22123DD122123D7D
:103DD300D6A322F08A828B83A3A322E508F00246AE
:103DE3005DF08E828F83A3A3A3A3A3A3221256EE17
:103DF300A3A3F022A3A3A3A3E0FEA3E0FF227F05D6
:103E0300020B66F582E43509F583E0F922EA123EF6
:103E130015222410F582E422123E23A3A3A3A32296
:103E2300123FC085088285098322123E3122F08524
:103E33000A82850B83A3A322E50E2411123E61E0BF
:103E430022E50E240E123E6122E50E2410123E617D
:103E5300E022123E5922EE123E153FF58322F582EF
:103E6300E4350FF58322240FF50AE43509F50B78C1
:103E73000A22E0F91216C48A088B09EA4B2274F26B
:103E8300120849890B8A088B098A828B83124C7228
:103E9300121F8EEA4B600479B8806A121F9AE9F800
:103EA300902E08E493F9E8C399400479B280567AD6
:103EB30015123DB7AE0CAF0DEA4F70047910804573
:103EC3008A828B83E4F0A3123DD6E50BF0750A00DA
:103ED3007808120DA87C127D00EA240312688E1262
:103EE3000DBF9015511252847008901551800C1219
:103EF3003FB888828983123F0B70F4EEF0A3EFF092
:103F0300121FAC7900024D5E124C76EA4B8882890F
:103F13008322C082C08390155180048C828D8312CA
:103F230075B0EC4D60288C828D83A3A3E069600596
:103F330074FF6970E68C828D83A3A3A3E06A700388
:103F4300A3E06B70D6EC2403FAE43DFB80047A0013
:103F53007B00025B5374F7120849E9FD74FE6D7030
:103F6300047C0180027C0090155180096D70027CF5
:103F73000188828983125284601F88828983A3A364
:103F8300A3E06A7003A3E06B70E7ECA2E088828988
:103F930083A3A3E050D6F9800279FE02465DEEF9D1
:103FA300800CA3A3127A51EE227402120DBF7F027A
:103FB300020B66F583123FBC22123FC022E0F8A336
:103FC300E0F922123FC08E828F8322120DBF7F033E
:103FD300020B66C082C0837900901551800109E00D
:103FE300FAA3E08A82F583E582458370F1025B538D
:103FF30074F6120849E4F508F5097808120DAC9037
:104003002E08E49375F013A4A9F0124113126DB0B6
:10401300120DBFE9FE74096E7003121FA6023FA1C1
:1040230074F612084974FE120E5885218285228384
:10403300E4F0A3F0A821A922880889097808120DC1
:10404300AC7508027509007808120DAC126A2112CA
:104053000DBF023FAC74F512084974EB120E58857C
:104063002182852283E4F0A3F090155180748E821F
:104073008F83A3A3E0C0E074021210D5D0E01257DF
:1040830035A982AA8389088A09750A007808120D5E
:10409300A87C127D0074061210D5126D75120DBF27
:1040A3007402120E28880889097808120DAC750865
:1040B300137509007808120DAC74041210D512524E
:1040C3002775F013A4F8AAF075F013E912410F1243
:1040D3006A29120DBF85218285228312411E8E8299
:1040E3008F83123DFBEE4F7085A821A92288088992
:1040F300097808120DAC7508027509007808120DCD
:10410300AC126A21120DBF7415023FCEA42AF9E83E
:104113002402FCE439FD7A427B0022E02401F0A36F
:10412300E03400F02274F412084974EB120E587E46
:10413300007F00A821A922880889097808120DACFC
:104143007508028E097808120DAC7C007D007A4256
:10415300126DBC120DBFE9706C8E0880567402128A
:104163000E28880A890B780A120DAC750A13750B91
:1041730000780A120DACE50875F013A4F8AAF075DF
:10418300F013E50912410F126DBE120DBFE9701B4A
:1041930074031210D5AA82AB8374021210D5E0F90E
:1041A300121F88E970050EEE70010F0508E508700F
:1041B300020509852182852283123FB8C3E5089849
:1041C300E509994098EEFAEFFB741502312674F66F
:1041D3001208498C828D83A3A312442AF0EA126049
:1041E3004B3BF583E0C0E01243E7D0E0F0EA241D47
:1041F300F582E43B123FB61243CB124425F0A3F001
:10420300EA241FF582E43BF583123DFBEC1243BE27
:104213003DF583EEF0A3EFF01243C43BF583124365
:10422300F5A3A3A3A3A3A3EEF0A3EF125CA6FE8CB6
:10423300828D8312443474035EFEC39403400302ED
:1042430043B1EE600874026E60030242D68C828D25
:1042530083E0540CFE740C6E7003024315E0A2E479
:10426300400D88828983E08C828D83A312444A7433
:10427300086E60030243151243D57401F08A828BE2
:1042830083A3A3A3A3A31256FB70148C828D83E094
:10429300440C12443CA3A31243F5EEF0A3EFF08CBD
:1042A300828D83E0A2E4402B8882124403124418D7
:1042B300500109F582124403A3A3A3A3A3A3F0A36C
:1042C300EF1244448C828D83A3A3A3F0E82403F864
:1042D30050010988828983E0C0E0EC2411F582E46F
:1042E3003DF583D0E01244348C828D83E0A2E75005
:1042F3007588828983E0FE8C828D8312444A74FC24
:104303005E700C8C828D83A3E054036403701E02E1
:1043130043B11243D5E4F0740C6E6003024280880B
:10432300821244091244185001090242A28C828D60
:1043330083A3E05403603288828983E0C0E0EC12F7
:1043430043EF3DF583D0E012444B8C828D83E054E0
:10435300036402701488828983E0C0E01243DDD0D5
:10436300E012444B8003A3E4F0EC1251F33D126DD1
:1043730050EC2410FEE43DFFEA241DF582E43BF5F6
:1043830083E0F5088E828F83E0C3982508F508F053
:10439300EA2417F8E43BF98882F583E0C39508C063
:1043A300E01243CBD0E0125CA6C39508500A124337
:1043B300CBE4F01243E7E4F0023FB12415F582E4C5
:1043C30022EA240DF582E422EC240DF582E43DF586
:1043D3008322EC1253AC3DF58322EC2414F582E4E2
:1043E3003DF58322EC123E153DF583222413F5821D
:1043F300E422E0FEA3E0FF8C828D83A3A3A3A32288
:10440300124409A3A3228983E0F508A3E0FFE5088A
:104413008C828D8322A3A3A3A3F0A3EFF0E824024D
:10442300F82212442AA322E4F08C828D83A3A3A34F
:1044330022124452A882A98322123DD1A3A3A3A38B
:1044430022124452A3E022A312445208A983221247
:104453005CAFA32274F412084974F3120E588A0A4B
:104463008B0BECFEEDFF8C82F583E0540CF508E03A
:10447300A2E75006E508D2E7F508E508D2E1F5081A
:104483001256FB7006E508D2E4F508E0A2E55006F3
:10449300E508D2E5F5087C087D007900AA21AB2266
:1044A30012169A74021210D5E508126D56C0E07404
:1044B300031210D5D0E0124AE4E50AF0A3E50BF0AD
:1044C30074051210D51265C21210D5E07077740806
:1044D3001210D5124A6A125C98381265DDC0E07476
:1044E300081210D512456BD0E01265BDC0E0740808
:1044F3001210D5124561D0E0F074081210D51245A0
:1045030057E0124A92124B131260ACEE241112566A
:10451300C7C0E012454DD0E0F0EE24141256C7C0D8
:10452300E074081210D5124A6A2435F582E438F58E
:1045330083D0E0124AB7C0E074081210D5124A6E55
:10454300D0E0126316740D023126E82432F582E4BA
:1045530039F58322123FC6A3A3A3A3A3A322124A1E
:104563007E1267BC38F58322124A7E2426F582E444
:1045730038F5832274F71208497E008A828B83A35D
:10458300A3A3A3A3A3A3A3A3E064046003024639E4
:104593001253A4E060030246391252063B125282C0
:1045A300700302463988828983E05403600302461C
:1045B30039E81253AC39F583E0FA8C828D83A3A3D7
:1045C300E0FBA3E0CB2411F582E43BF583E06A70C2
:1045D3006588828983A3A3A3A3A3A3A3A3A312464A
:1045E3003DE06A7003A3E06B704C88828983A3A3C8
:1045F300124649E0FFA3E0CF24061256C76A7003B0
:10460300A3E06B703188828983A3A3E0F88C828D49
:1046130083A3A3E0F9A3E0F5838982A3A3E0686001
:10462300138C828D83A3A3A3E0F5838982E0540CCA
:10463300640470027E01EEF9802012464122124C7E
:104643007A8C828D8322A3A3124641A3A322740CE6
:104653001210D5E0F9740D120DBF7F01020B6674C1
:10466300F612084974FC120E58EAFEEBFFECFAED61
:10467300FB8C82F583A3E054036016901547125216
:104683008460597900EEFCEFFD125EA31227D380FC
:104693004B852182852283EEF0A3EFF07402121082
:1046A300D5124AD9AC21AD227AC47B1F1221EC8AE0
:1046B300088B09A808A909EA4960218A828B83A388
:1046C300A3A3A3A3A3A3A3A37406F07A0088828B56
:1046D30083124A6A12606CE0F912214A7404023FA1
:1046E300AE74F212084974F3120E58EAFEEBFF8A15
:1046F30082F583A3A3A3A3A3A3A3A3A3A3E0F50A80
:104703009017B9E0700579BA024A22750801750954
:1047130000750C00750D007C087D007900AA21ABA3
:104723002212169A74051210D57401124AEC54041D
:10473300601274021210D5E0D2E6124AEC540870EB
:1047430003750803E05410600674404508F508E05B
:104753005408602274021210D5E044C0124AEC548B
:1047630020600A74031210D5E0D2E08008740312AB
:1047730010D5E0D2E1F0EE24151256C7124A52705A
:1047830003740169700674084508F5088E828F83E7
:10479300A3A3A3A3A3A3A3A3E07016122246852178
:1047A300828522831260B974021210D5E0D2E280AE
:1047B30030640F701074021210D5124AF474044559
:1047C30008F508807F8E828F83A3A3A3A3A3A3A34B
:1047D300A3E064028E828F83700A126D89E8F0A3CE
:1047E300E9F08060A3A3A3A3A3A3A3A3E06403703E
:1047F3000DAC21AD22EEFAEFFB121FFA80468E823A
:104803008F83A3A3A3A3A3A3A3A3E0640170359001
:1048130015DBE0601074021210D5124AF47509100A
:10482300750AFF801874021210D5E0440C124AE492
:1048330074FDF0A374FFF074044508F5088E828FAD
:1048430083123039EE24151256C7A2E0503F74028A
:104853001210D5E0540C701B8E828F83124C72128F
:104863001C6AE9700579BB024A2274021210D5E072
:10487300D2E5F0EE24151256C7A2E05010740212CE
:1048830010D5E0540C64047004E0D2E5F0EE24117A
:104893001256C7C0E074041210D5D0E01265C412DA
:1048A30010D5E06003024A1B74081210D5124AADFA
:1048B300E508F0A3E509F0124A48E0C0E0124A3ED9
:1048C300D0E0F0124A2FE0C0E074081210D5124A6B
:1048D3006A1243EF38F583D0E0124B136401701171
:1048E3009015DBE0C0E074081210D5124A88D0E0BE
:1048F300F074081210D5124AA8124A39FAE8241C97
:10490300F582E439F583EA124ADFEE2415FAE43F2F
:10491300FB8A82F5831275B0E8125A0339F58312C4
:104923004AD9EE241C1256C7C0E0124A25D0E01221
:104933005B49124A527003740169701374081210B0
:10494300D5125394FAEE241D1256C7F9121ECE8EB9
:10495300828F83A3A3A3A3A3A3A3A3A3E0C0E07411
:10496300081210D512456BD0E0F074081210D5125E
:104973004561E50AF074081210D51252272428F570
:1049830082E439F583E50CF0A3E50D124ABF124A20
:10499300921257401260ACEE124A39C0E0E8243359
:1049A300F582E439F583D0E0F0EE241B1256C7C03C
:1049B300E074081210D5124A6ED0E0F0EE241A12F9
:1049C30056C7C0E074081210D5124A6A2432F58221
:1049D300E438F583D0E0124AB7124A5E120DA812EA
:1049E30067C21275B0740B1210D5124A6A242F12C3
:1049F3007A8C120DBFEE24151256C75440601290E4
:104A03001567125284600AAA21AB22125EA31227F1
:104A1300D3AA21AB2212206C740C1210D5E0F90238
:104A23004D59E82420F582E439F58322EE2419F563
:104A330082E43FF583221267D1E022E82412F58253
:104A4300E439F58322EE2418F582E43FF5832254FA
:104A530080F8A3E05401F974806822F508A3E0F517
:104A630009750A00780822124A7E22124A7E2434EB
:104A7300F582E438F58322A3A3A3A3124A8222E09A
:104A8300F8A3E0C822124A7E1243BE38F58322FA05
:104A9300A3E0FBE8242AF582E439F583EAF0A3EBEB
:104AA30022A3A3A3A3123FBCEE2212522B12520B3A
:104AB30039F58322F0EE241312574822F0EE240D29
:104AC30012574822E0FC8A828B83E02CFCA3E0345B
:104AD30000FD8A828B83ECF0A3EDF022F0A3E4F0D7
:104AE30022F085218285228322F0EE241512574875
:104AF30022E0D2E3F0124AFC228E828F83123FC05F
:104B0300852182852283E8F0A3E9F022E8F0A3E976
:104B13001261FFE02274F71208498A828B83A3E0B3
:104B2300640170047E6380027E648A828B83E0600A
:104B3300087905124B4C24F3FE901583E06007F9C6
:104B4300124B4C24F2FE024639122114E9F8EEC34B
:104B5300982274F612084974FE120E588521828534
:104B630022831260B9E9FEECFAEDFB9005C2125202
:104B7300846032A821A922880889097808120DAC1B
:104B83007D01740E1210D5E0FCEEF99005C212609F
:104B93008D1227D37402120DBFEA4B600479008093
:104BA3000679B2800279B6023FAC74F7120849E97C
:104BB300FE90153D125284601F74091210D5E0F562
:104BC300087808120DB0EEF990153D12608D12278A
:104BD300D37401120DBF800279B602465D74F712D9
:104BE30008498908ECFEEDFF79B5E508245E6020ED
:104BF30014600624F86034803D9005C4124C3C6078
:104C030035126DCD1227D38E828F831260B9802423
:104C130090153F1275B0EC4D601CEEFCEFFD901546
:104C23003F12608D1227D3E9F9800B90153B124C8C
:104C330042121844790002465D124C76EA4B221266
:104C430075B4EEFAEFFB2274F7120849E9FE79B561
:104C530074AB6E700B90153B124C721218447900B2
:104C630002465D8E828F83A3A3A3A3A3A3A3A31250
:104C73004C7622124C7A22E0FAA3E0FB2274F11262
:104C83000849EAFEEBFF8C0A8D0B75080190158B22
:104C9300E06E7003A3E06F700C124D4DAA0AAB0BCC
:104CA300121844805E12224CEE6A7002EF6B700998
:104CB300AA0AAB0B122252804AAC0AAD0BEEFAEFF2
:104CC300FB121DA2E9F5089017ACE070361226DE40
:104CD300E97030E508702C90155BE06E7003A3E07B
:104CE3006F7020EE4F601C750C53750D15750E001B
:104CF300780C120DA87C087D00AA0AAB0B126D7903
:104D0300120DBFA9080276AC74F2120849EAFEEB51
:104D1300FF8C088D09750A01124D4DEEFAEFFB1257
:104D2300183EE96401701190158B123FB885088213
:104D3300850983126D52800EAC08AD09EEFAEFFBC4
:104D4300121DA8E9F50AA90A80111222408A0C8BC8
:104D53000DAC0CAD0D22740D120DBF7F06020B6658
:104D630074F6120849EAFEEBFF7A0D7B0012174234
:104D7300EA4B6062EE2424126A56F0EE2425126A8E
:104D830056A3124E1B126A5CA3A31267EF124DF6D1
:104D9300F0EE124DDC124E0BE8F0A3E9124E321284
:104DA3004E03126D52EE124DE51268B2A3A3A3A3F4
:104DB300F0EE24331256C7C0E0124DEED0E0126578
:104DC300E1124E03A3A3A3E8F0A3E9124E2AC0E025
:104DD3001253A4D0E0F0023FB1242AF582E43FF558
:104DE3008322242EF582E43FF58322EA12581D3BE9
:104DF300F58322124DFA22E08A828B83A3A3A32296
:104E0300126911A3A3A3A322124E0F22123FC08A39
:104E1300828B83A3A3A3A322F0124E2022EE242687
:104E2300F582E43FF58322F0EE243212574822F054
:104E3300EE242C1257482274F412084974FE120E01
:104E430058ECFEEDFFEC24161256C764057010EC07
:104E53002406FCE43FFD121FF4E97003024EE6ACA6
:104E630021AD22126B0B121C7085218285228312C5
:104E73005284606B8E828F83E064017058E875F012
:104E830009A4F8AAF075F009E9A42AF974B428F87A
:104E9300740239F9E8FAE9FB8882F583780812107D
:104EA30062EE124F881210054027852182852283E6
:104EB300124AA81256D5124EEB780812106290814E
:104EC300EA7808120F3C8A828B8378081210448098
:104ED3000A79A28010EE240F126D4C7900800679B6
:104EE300A1800279C8023124124B09EE1267DD2238
:104EF30074F21208498A0C8B0DECFEEDFFEC12568E
:104F0300D5E4F0A3F09081DE7808121062EC124F22
:104F130088120E996067EC240E1256CE703478B363
:104F2300901582E070289015B4E064017020EC24A1
:104F3300111256C7F91220FC8B09A909EE12520768
:104F43003F1260B7EA4960047800800278A18808BC
:104F5300802EE060046402700A122006E9F50870EE
:104F630007801DE064037010EEFCEFFDAA0CAB0D8F
:104F7300121C94E9F50880087508A180037508A33D
:104F8300A908024D5E1267DD78082274F012084901
:104F930074F5120E58EAFEEBFFEA240AFCE43F8C98
:104FA30082F583127A4D1252117403120E388A82DB
:104FB3008B83125EADE970030250777401120E38D1
:104FC3007403120E30121C7074011210D512528425
:104FD3007003025077E875F009A4F8AAF075F00998
:104FE300E9A42AF974B028FC740239FDE508240EFB
:104FF3001262FEE4F0041210D5123FB8E508125213
:10500300073509126D508C828D8312109AE508249E
:10501300121262FE1210A69081EA78081210628CB6
:10502300828D837808120F9B8C828D83780C1210EB
:10503300629082627808121062780C79081207DA9B
:10504300E5084509450A450B702A74011210D5126B
:10505300522775F009A4F8AAF075F009E9A42AF912
:1050630074B828F582740239F5837401F07A007BF1
:10507300081252348E828F83A3A3A3A3A3A3A3A353
:10508300A3A3E02406FCA3E03400FD8E828F8312E9
:105093005EAD1265CF603EEE240A1251F9124AAD9D
:1050A3007468124ADFE81251F339F5837402F09001
:1050B300156D12109A8C828D831260A6125C983C37
:1050C300F5831210A69081EA780812106290156D8C
:1050D3007808120F9B12526F705D90153B12521F8E
:1050E300A3A3A3A3A3A3A3A3A3A3125CCE12183EBB
:1050F300E97010125C8C90153B125C9E7005126572
:10510300CF60348E828F83A3A3A3A3A3A3A3A3A35C
:10511300A312521F124C72121C9AE960118E828FD5
:1051230083A3A3A3A3A3A312525BE4F0A3F08E82F1
:105133008F83125241E4F012526F60030251EE8EDC
:10514300828F83A3A3A3A3A3A3127A49901582E01A
:1051530060030251E39015B4E0640160030251E37C
:10516300750A3A750B00780A120DAC7402120E28F8
:10517300880A890B780A120DAC127048120DBFE928
:10518300705BE508240E1262FE7401125289C0E0BE
:10519300E50824111262FED0E0F0E508240F126244
:1051A300FE743A124ADF90156912109AE508241228
:1051B3001262FE1210A69081EA780812106290150E
:1051C300697808120F9B9081EA7808121062901593
:1051D300697808120E997008125230800312521126
:1051E30012526F7006125B8F74A1F0740B02698107
:1051F300240EF582E422F8E43FF9E8FCE9FD888215
:10520300F58322EA12520B22240FF582E422E508E9
:1052130012520B3509F583E4F0A3F0221275B48E14
:10522300828F832212522B22123FC0E8227A007B04
:1052330002901413E0F91216EE228A828B83A3A341
:10524300A3A3A3A3A3A3A3A312524F22124A82246C
:105253000EF582E438F58322A3A3A3A3125263229B
:10526300124A82240FF582E438F583228E828F83DB
:10527300A3A3A3A3A3A3124A7A240FF582E438F5C8
:105283008312522B492212528D22F08521828522CC
:1052930083E02274F6120849EAFEEBFF7A237B00CF
:1052A300121742EE240AF508E43FF5098508821235
:1052B30060B77C237D00790012169A8508828509E0
:1052C300831252847003025357EEFAEFFB1220123B
:1052D30012526F60748E828F8312538A64018E829E
:1052E3008F83A3A3A3A3A3A37007125380740E8079
:1052F3002112528470101265CF700B8E828F83A39C
:10530300A3E0A2E05007125376740D800512537682
:1053130074051265E154036401700712535E74054A
:10532300800B901583E0C0E012535ED0E0125399D6
:10533300F58388821256F4850882850983124A6AA6
:1053430012604B38F583E9800E8508828509831244
:1053530061308003126073F0023FB18E828F83A3AA
:10536300A3A3A3A3A3A3A3A3A312537022E0126036
:1053730092A3228E828F83A3A3A3A3A3A3124A7A09
:1053830012605138F58322A3A3A3A3A3A3A3A3A3CA
:10539300A312524FE02212539D22126B20F8A3E076
:1053A30022EA1253AC3BF58322240CF582E42274E7
:1053B300F112084974E4120E588A0C8B0D8C088D77
:1053C300097A237B001217428A0A8B0BAE0AAF0BB2
:1053D300EA4F70030256AF126057E50824151256C0
:1053E300E0687003A3E0698E828F83700474028087
:1053F300027401F0E508240DF8E43509F98882F513
:1054030083E0FAC3E49AFA95E0FB1256DC2AFAA386
:10541300E03BFB8E828F83A3A3A3A3125CB58E8292
:105423008F83A3A3F0EE2420F582E43FF583E4F019
:10543300EE2421F582E43FF583E4F0EEFAEFFB126C
:1054430020C68508828509831256FB70098E828FD8
:1054530083A3740580069015831256E9F0EE241792
:10546300F50AE43FF50B8E828F831256F4E9850A21
:1054730082850B83F0EE2416F8E43FF9E508240E49
:10548300FAE43509FB88828983124AC7E5082410A8
:10549300FAE43509FB850A82850B83E0FC8882895F
:1054A30083E0F88A828B83E0C398C39CF812573554
:1054B300F0EEFCEFFDAA0CAB0D12200CE9F50B8E00
:1054C300828F83E064027006125C8C1256B9E50B7E
:1054D30060030256A6750C00750D009017ACE064CE
:1054E300016005E06402703F1256CB6008EE242190
:1054F3001256CE70328E828F83A3A3A312607912C9
:105503005701EE24161256C712572AFAE439FB1232
:105513003DB9EA4B60111268DB120DA812570FAAAE
:105523000C126D79120DBFEEFAEFFB1220D2E9F5E2
:105533000B9017ACE064016008E06402600302565C
:1055430099E97003025699E50C450D70030256A6BE
:105553008003850E0B1256CB600BEE24211256CE20
:10556300600302569F850B0E850C08850D09750A8D
:10557300007808120DA812570F8E828F83A3A3A35E
:10558300A3127A92120DBFEE24201256C7600D1299
:1055930056D47468124ADFEE24208015EE242112BB
:1055A30056C760151256D47403F0A37401F0EE24A9
:1055B30021F582E43FF583E4F0EEFAEFFB1220D20B
:1055C300E9F50B70907C137D0079007409120E309D
:1055D30012169A741A1210D5740112574064687027
:1055E30002A3E0704F8E828F8312525BE0640560EA
:1055F300030255557C0879FF8E828F83A3A3A3A34F
:10560300E0242A125CD1121724E970030255557C59
:10561300087D0079FF7401120E3012169A7401127C
:105623000E387A007B0079AB121FEE74191210D575
:1056330074FC80151256D4E064037004A3E0640183
:10564300700874191210D574FFF0E4F508F50978A1
:1056530008120DAC7402120E3874131210D5AA82FC
:10566300AB831261B6120DBF852182852283E06070
:105673002B7409120E28880889097808120DAC7555
:1056830008137509007808120DAC7C007D00126ABE
:1056930029120DBF8006E50C450D6007AA0CAB0D62
:1056A300121748EEFAEFFB1217488003750B10A987
:1056B3000B741C0276A9EE2406FAE43FFB1218448D
:1056C30022EE240C12574822EE242012574864017C
:1056D30022EE12520B3FF58322E508240EF582E4F5
:1056E3003509F583E0221256EEA322E08E828F83E2
:1056F30022A3E0F912211422E05403640122125779
:105703000522E0FAE82AF8E43400F9228E828F8336
:10571300A3A3A312607D125705EE24161257481255
:10572300572AFCE439FD22FAE82AF8E439F9E82497
:105733000422125739221265F0A3A3A322F01257B1
:105743004522EE240FF582E43FF583E0227901023E
:105753000D6F74F4120849EAFEEBFF8A82F583A306
:10576300A3A3A3A3A3A3A3124A6A2424F582E43820
:10577300F5831256FB702E8A828B8312538A70250F
:10578300125823E06405701D125823A3E0F8740136
:10579300686005740668700712523D740280051232
:1057A300523D7403F0EA240A12612412608DE4F07E
:1057B300EA2408F8E43F1231132431F582E43AF580
:1057C30083E0C0E0126DC4A3A3D0E0125842CA2400
:1057D3002EF582E43AF583E0C0E0126DC4A3A3A3DF
:1057E300D0E0125D68C812581D38123FB6126DC45E
:1057F3001258378A0A8B0BAC0AAD0B8508828509D0
:1058030083125CCE121844850882850983124C7278
:105813001220D212611FF0023129240BF582E422F7
:105823008A828B83A3A3A3A3A3A3A3A31265B6F521
:1058330083888222A3A3A3A3124B0912224022121C
:105843005CAAFAA3E022025750C082C08390155D80
:105853007418F0A37420F090155F7424F0A37420DF
:10586300F0901561742AF0A37420F0901563741EF0
:10587300F0A37420F0025B5374F4120849EA24087D
:10588300FEE43BFF8E82F583125227126063E0F53C
:105893000874035508F509125CC9F8A3E08882F57A
:1058A30083E508F0A3A882A983E50960097402656A
:1058B300096003025968740C5508FC600A74086C8B
:1058C300600574046C7026740265097006E508A20D
:1058D300E4401A8A828B83A3A3A3A3A3A3A3A31243
:1058E3005A6E1267BC3D125A09A308A983740C6C43
:1058F300701C125A6A2428125A562428F582E43D51
:10590300F583A31263EAF0E82402F8500109740254
:1059130065097006E508A2E4404B125A6A242A126C
:105923005A56242AF582E43DF583A3125A18125AD3
:10593300741263EA125A74A3125A10E82404F8503A
:105943000109EC600F74086C600A740C6C600574D8
:10595300046C701112609A2426F582E43C125A09F1
:10596300A3A882A9838A828B83A3A3A3A3A3A3A3AC
:10597300A3125A3854037014E508A2E1400E1260D2
:105983009A125A033CF583E054806008125A1E129F
:105993005A0B8019901531E0C0E0125A1ED0E01264
:1059A3005A4B88828983125A4B04125CAFA3A88294
:1059B300A983E508A2E750458E828F83125A38885F
:1059C300828983125A51125A3D5403603012609AED
:1059D3002434F582E43C1263E8F0E508A2E1501DAB
:1059E3008A828B83A3A3A3A3A3A3A3A31231182403
:1059F30035F582E43A1263E8A3F0E824030231297F
:105A0300241EF582E422F583125A18F022125A1842
:105A1300A3A3A3F022E088828983228A828B83A3B3
:105A2300A3A3A3A3A3A3A3E0FCA3E0CC2432F58206
:105A3300E43CF58322E0125A3D22FCA3E0CC24256A
:105A4300F582E43CF583E022F0901531E022126503
:105A5300ECE022F582E43DF583125A18125A6322D0
:105A63001265F0125A6E228E828F83E0FDA3E0CD81
:105A730022A3125A63242CF582E43DF58322C082CB
:105A8300C0838A828B83125B43FC74035CF98A8232
:105A93008B83A3A37401F0E96005740269706174D8
:105AA3000C5CF8600A740868600574046870137409
:105AB30002697005ECA2E440098A828B83A3A37474
:105AC30002F0740C68700A8A828B83A3A3E0240219
:105AD300F07402697005ECA2E440258A828B83A3EB
:105AE300A3E02404F0E8600F740868600A740C688B
:105AF300600574046870098A828B83A3A3E004F0B1
:105B0300ECA2E7502A8A828B83A3A3E004125B49A9
:105B1300123622E0540360178A828B83A3A3E00426
:105B2300F0ECA2E150098A828B83A3A3E004F08AFC
:105B3300828B83A3A3E004F08016852182852283D0
